:020000040800F2
:1000000000C000204D460008390D00083B0D0008D7
:100010003D0D00083F0D0008410D000800000000E4
:100020000000000000000000000000001136000881
:10003000430D000800000000B1360008450D00081F
:100040009546000895460008954600089546000824
:100050009546000895460008954600089546000814
:1000600095460008954600084D0D0008590D0008FA
:1000700095460008690D000895460008790D0008AE
:10008000890D000895460008954600089546000829
:1000900095460008954600089546000895460008D4
:1000A00095460008990D00089546000895460008F9
:1000B0009546000895460008A90D000895460008D9
:1000C00095460008954600089546000895460008A4
:1000D00095460008B90D0008650E0008110F0008CC
:1000E0009546000895460008954600089546000884
:1000F0009546000895460008954600089546000874
:100100009546000895460008BD0F00089546000872
:100110009546000895460008954600089546000853
:100120009546000895460008954600089546000843
:1001300000000000000000000000000000000000BF
:1001400000000000000000000000000000000000AF
:10015000000000000000000000000000000000009F
:10016000000000000000000000000000000000008F
:10017000000000000000000000000000000000007F
:10018000000000000000000000000000000000006F
:10019000000000000000000000000000000000005F
:1001A000000000000000000000000000000000004F
:1001B000000000000000000000000000000000003F
:1001C000000000000000000000000000000000002F
:1001D000000000000000000000000000000000001F
:0401E0005FF8E0F1F3
:1001F00010B5054C237833B9044B13B10448AFF361
:1002000000800123237010BD70000020000000005A
:100210001856000808B5034B1BB103490348AFF358
:10022000008008BD0000000074000020185600087F
:1002300000B583B002A941F8040D0F230122034841
:1002400001F0D8FD019803B05DF804FB30120020E6
:1002500070B51646002405E04D1C0878FFF7E8FF4E
:1002600001342946B442F7DB304670BD08B50022A0
:1002700005210A2002F0E8FF0A2003F019F8002205
:1002800005211E2002F0E0FF1E2003F011F80022DD
:100290000521322002F0D8FF322003F009F80022B5
:1002A0000521252002F0D0FF252003F001F80022CF
:1002B0000521262002F0C8FF262002F0F9FF0022C7
:1002C0000521272002F0C0FF272002F0F1FF0022C5
:1002D00005210D2002F0B8FF0D2002F0E9FF0022F9
:1002E00005210F2002F0B0FF0F2002F0E1FF0022F5
:1002F0000521102002F0A8FF102002F0D9FF0022F3
:1003000005210B2002F0A0FF0B2002F0D1FF08BD59
:1003100008B50268034B9A4200D008BD01F0BAFF4D
:10032000FBE700BF002C0140FEE7000000B597B0DE
:1003300001220C924FF480330D9300210E91109204
:100340000222139214934FF4E01315930CA801F0BA
:10035000C9FF50BB0F230793022108910023099383
:100360004FF480620A920B9307A802F0E1F900BBF8
:10037000022301934FF40043039301A802F0D8FA3B
:10038000D8B902F091FA0F4BA3FB0030800902F0BC
:100390009BFF042002F0AEFF00220F214FF0FF3040
:1003A00002F052FF17B05DF804FBB0210648FFF7DA
:1003B000BBFFBE210448FFF7B7FFC5210248FFF786
:1003C000B3FF00BFD34D62105856000808B501F0C6
:1003D0004FFFFFF7ABFF00F01DF800F001F900F050
:1003E00059FB00F075FB00F091FB00F0E7F900F01D
:1003F00075F800F0FBFA00F031FA00F067FAFFF749
:1004000035FF00F06FFC00F07FFC00F089F904F08C
:10041000ECF8FEE72DE9F04188B02C4B9A6942F0E8
:1004200010029A619A6902F010020092009A9A6989
:1004300042F020029A619A6902F020020192019A28
:100440009A6942F004029A619A6902F004020292E7
:10045000029A9A6942F008029A619B6903F00803C4
:100460000393039B1A4D002242F24301284602F0F7
:10047000E1FB184E002243F26021304602F0DAFB25
:1004800042F2430304934FF00108CDF81480002496
:1004900006940227079704A9284602F0D3FA1023EE
:1004A00004930D4B0593069404A9284602F0CAFA5A
:1004B00043F260230493CDF814800694079704A9AF
:1004C000304602F0BFFA08B0BDE8F08100100240EB
:1004D00000100140000C01400000111000B585B073
:1004E0001B481C4B03604FF4807383600023C36080
:1004F00043614FF46022C26143600223036100F054
:10050000B3FEB0B90C230193012302930723039395
:1005100001A90F4800F0E6FD80B9102301930223E2
:10052000029301A90A4800F0DDFD60B905B05DF84D
:1005300004FB4F210848FFF7F7FEE3E7592106487F
:10054000FFF7F2FEE9E762210348FFF7EDFEEDE772
:10055000F00D0020002401406856000802681B4B83
:100560009A4200D0704710B586B0044603F56C433C
:100570009A6942F400729A619B6903F400730193D3
:10058000019B042302930323039302A9104802F062
:1005900059FA1048104B03600023436083608022A7
:1005A000C2604FF4007202614FF4006242618361E5
:1005B000C36102F06BFB20B9064B23625C6206B09C
:1005C00010BD86210548FFF7AFFEF5E70024014086
:1005D00000100140200E002008000240685600086C
:1005E00082B0064B5A6942F001025A615B6903F01E
:1005F00001030193019B02B0704700BF001002404D
:1006000008B54FF4FA7004F00FF8024804F0F0F85F
:10061000F7E700BFAC56000870B500231A4619462C
:100620003248006803F030FA00231A461946304871
:10063000006803F029FA00231A4619462D4800687D
:1006400003F022FA1EE02C4D2C4C2A4621782C482F
:1006500004F05AF822780021284604F04CF80023D0
:10066000237018E0274D284C2A462178274804F0AB
:100670004BF822780021284604F03DF8002323702F
:1006800012E054B30023052219461848006803F00D
:10069000FBF90128D7D00023052219461448006829
:1006A00003F0F2F90128DDD0002305221946114894
:1006B000006803F0E9F904460128E2D1144E154D13
:1006C00032462978144804F01FF82A780021304671
:1006D00004F011F800232B70D3E74FF4FA7003F005
:1006E00057FD0E4804F084F8CCE700BF800E0020D0
:1006F000740E0020700E0020F8120020F41200206A
:10070000C856000860100020E8110020E8560008D4
:1007100068110020701200200857000828570008B0
:1007200030B589B003220021012003F02FF9184BC6
:10073000186003220021012003F028F9154B1860EE
:1007400003220021012003F021F9134B186003ACB0
:10075000124D0FCD0FC42B682360002103A803F0B6
:1007600049FF0F4B18600F4B0193012300930023A7
:100770004FF480720C490D4803F08CFB0C4B186051
:10078000012801D009B030BD0A4804F031F8F9E77A
:10079000700E0020800E0020740E002030560008DD
:1007A000680E00206C0E002078560008190600081C
:1007B000640E002088560008FEE7000008B50E48C9
:1007C0000E4B03604FF48273436000238360C36069
:1007D0000361436183611022C261036243628362E9
:1007E0000A23C36200F0D6FD00B908BD4F210448BA
:1007F000FFF79AFDF9E700BF840E002000300140AA
:10080000485700080268134B9A4200D0704710B551
:1008100086B003F560439A6942F480529A619B69FD
:1008200003F480530193019B50230293002303930D
:100830000493094C02A9204602F004F9A023029374
:10084000022303930323059302A9204602F0FAF83A
:1008500006B010BD003001400008014000B587B06F
:100860001748184B0360002343608360C360036133
:10087000836101F03BF898B906A94FF4805341F821
:10088000103D0F4800F0A1FE78B9002300930193BA
:1008900069460B4801F002F960B907B05DF804FB46
:1008A0007B210948FFF740FDE6E781210648FFF775
:1008B0003BFDEAE788210448FFF736FDEDE700BF7E
:1008C000DC0E0020000800405857000800B587B033
:1008D0001748184B0360002343608360C3600361C3
:1008E000836101F003F898B906A94FF4805341F8E9
:1008F000103D0F4800F069FE78B900230093019382
:1009000069460B4801F0CAF860B907B05DF804FB0E
:100910009A210948FFF708FDE6E7A0210648FFF7FE
:1009200003FDEAE7A7210448FFF7FEFCEDE700BF5F
:100930001C0F0020000C00405857000884B00368CA
:10094000154A934207D0154A93420FD0144A934256
:1009500017D004B07047134BDA6942F00202DA6133
:10096000DB6903F002030193019BF2E70D4BDA69A7
:1009700042F00402DA61DB6903F004030293029B94
:10098000E7E7084BDA6942F00802DA61DB6903F055
:1009900008030393039BDCE70004004000080040C9
:1009A000000C00400010024002680D4B9A4200D03B
:1009B000704700B585B01023009302230193039381
:1009C0006946084802F03EF8074A536823F440633A
:1009D00043F0E06343F40063536005B05DF804FB4B
:1009E00000040040000C01400000014000B58FB041
:1009F0002548264B0360002343608360C360036186
:100A0000836100F073FF28BB0EA94FF4805341F8B7
:100A1000103D1D4800F0D9FD08BB1B4800F07FFFCA
:100A200010BB00230893099308A9174801F036F872
:100A3000F8B960230193002202920392059201A962
:100A4000114800F0BDFFC8B90F48FFF7ADFF0FB068
:100A50005DF804FB4C210E48FFF766FCD4E75221F9
:100A60000B48FFF761FCD8E757210948FFF75CFC0A
:100A7000D7E75E210648FFF757FCDAE7672104480D
:100A8000FFF752FCE0E700BF5C0F002000040040CD
:100A90005857000808B50B480B4B03604FF4E1337F
:100AA000436000238360C36003610C224261836161
:100AB000C36101F070F900B908BD5E210348FFF77A
:100AC00033FCF9E730120020003801406857000875
:100AD00008B50B480B4B03604FF4E1334360002330
:100AE0008360C36003610C2242618361C36101F0D2
:100AF00052F900B908BD71210348FFF715FCF9E769
:100B00007C130020004400406857000808B50B48DB
:100B10000B4B03604FF4E133436000238360C360F9
:100B200003610C2242618361C36101F034F900B9B1
:100B300008BD84210348FFF7F7FBF9E724110020E3
:100B4000004800406857000870B588B00446036844
:100B5000574A934207D0574A93423BD0564A934252
:100B60006DD008B070BD554B9A6942F480429A61CD
:100B70009B6903F480430193019B4FF4007304933A
:100B800002230593032307934D4E04A9304601F039
:100B900059FF4FF48063049300250595069504A939
:100BA000304601F04FFF4748474B03604560856082
:100BB0008023C360056145618561C56102F066F807
:100BC00018B9404B63635C62CBE7AF213F48FFF746
:100BD000ABFBF6E7394BDA6942F40032DA61DB69E4
:100BE00003F400330293029B04230493022305932E
:100BF00003230793324E04A9304601F023FF082354
:100C0000049300250595069504A9304601F01AFFC6
:100C10002F48304B0360456085608023C3600561C9
:100C200045618561C56102F031F818B9284B6363ED
:100C30005C6296E7DA212548FFF776FBF6E71F4B63
:100C4000DA6942F48022DA61DB6903F480230393DA
:100C5000039B4FF4806304930223059303230793BC
:100C60001D4E04A9304601F0EDFE4FF400630493DD
:100C700000250595069504A9304601F0E3FE1748C6
:100C8000174B0360456085608023C3600561456143
:100C90008561C56101F0FAFF18B9104B63635C62AE
:100CA0005FE740F205110948FFF73EFBF5E700BF9B
:100CB000003801400044004000480040001002405D
:100CC00000080140EC11002058000240685700085D
:100CD0001C1000206C000240000C0140E0100020BD
:100CE0003000024008B506480268D36843F010039C
:100CF000D3608022034901F0EDF8002008BD00BF59
:100D0000301200207412002008B508480268D36829
:100D100043F01003D3608022054901F0DBF8002284
:100D20000221044801F086FF002008BD7C1300204A
:100D30009C0F0020001001407047FEE7FEE7FEE731
:100D4000FEE7704708B503F078FC08BD08B5102031
:100D500001F078FF08BD000008B5024802F0ECF889
:100D600008BD00BF200E002008B5024802F0E4F8DC
:100D700008BD00BFE010002008B5024802F0DCF812
:100D800008BD00BFEC11002008B5024802F0D4F8FD
:100D900008BD00BF1C10002008B5024800F09DFCF3
:100DA00008BD00BF3C14002008B5024800F095FCC7
:100DB00008BD00BFDC0E0020F0B583B0204B1B68DF
:100DC0001B6813F0100F14D11D4801F0B9F91D4C28
:100DD00021461D4B186802F0FDFD23683BB11B4BFB
:100DE0004FF080521A60BFF34F8FBFF36F8F03B085
:100DF000F0BD134D284601F0C1F8154B1B685C6827
:100E0000002701972B681A6801925B680193019B88
:100E1000C4F18004E4B20F4B1C700F4E22463146E1
:100E20000E4803F05DFC22463946304603F063FC71
:100E30000B4B1F7080223146284601F04BF8C3E768
:100E4000301200208C000020700E002004ED00E025
:100E5000EC11002070120020741200206811002094
:100E600064110020F0B583B0204B1B681B6813F0A1
:100E7000100F14D11D4801F063F91D4C21461D4B84
:100E8000186802F0A7FD23683BB11B4B4FF080525E
:100E90001A60BFF34F8FBFF36F8F03B0F0BD134DD8
:100EA000284601F06BF8154B1B685C68002701971A
:100EB0002B681A6801925B680193019BC4F180045E
:100EC000E4B20F4B1C700F4E224631460E4803F021
:100ED00007FC22463946304603F00DFC0B4B1F70D1
:100EE00080223146284600F0F5FFC3E77C1300203E
:100EF00090000020800E002004ED00E01C10002077
:100F0000F41200209C0F0020F8120020781300201B
:100F1000F0B583B0204B1B681B6813F0100F14D181
:100F20001D4801F00DF91D4C21461D4B186802F0BB
:100F300051FD23683BB11B4B4FF080521A60BFF349
:100F40004F8FBFF36F8F03B0F0BD134D284601F0F4
:100F500015F8154B1B685C68002701972B681A6809
:100F600001925B680193019BC4F18004E4B20F4BD2
:100F70001C700F4E224631460E4803F0B1FB22464C
:100F80003946304603F0B7FB0B4B1F7080223146C9
:100F9000284600F09FFFC3E72411002094000020A2
:100FA000740E002004ED00E0E0100020E8110020A5
:100FB000BC130020601000207112002008B5024808
:100FC00000F08BFB08BD00BF1C0F002000B583B0F4
:100FD000244B9A6942F001029A619A6902F0010277
:100FE0000092009ADA6942F08052DA61DB6903F01C
:100FF00080530193019B032002F014F90022114653
:101000006FF00B0002F020F9002211466FF00A0089
:1010100002F01AF9002211466FF0090002F014F9EB
:10102000002211466FF0040002F00EF90022114672
:101030006FF0030002F008F900220F216FF00100A9
:1010400002F002F900220F214FF0FF3002F0FCF80D
:10105000054A536823F0E06343F00073536003B024
:101060005DF804FB001002400000014000B589B0AB
:1010700000220146192002F0E7F8192002F018F9C1
:10108000144B9A6942F400629A619B6903F400630D
:101090000193019B02A903A801F02CFC01F01AFCAA
:1010A0000D4BA3FB00239B0C013B0C480C4A026038
:1010B00040F2E732C260436000230361836000F0C6
:1010C00015FC18B1012009B05DF804FB034800F0DD
:1010D0006FFAF8E70010024083DE1B433C14002047
:1010E000002C014030B482B00023019390F82430EA
:1010F000012B00F08B800246012380F824304B68DE
:10110000062B29D80568686B03EB8303053B1F2476
:101110009C4020EA04000C6804FA03F303436B6369
:101120000B68092B38D91568E86803EB43031E3BAD
:1011300007249C4020EA04008C6804FA03F303436C
:10114000EB600B68103B012B34D90020002382F8A0
:10115000243002B030BC70470C2B0ED80568286BC9
:1011600003EB8303233B1F249C4020EA04000C680C
:1011700004FA03F303432B63D2E70568E86A03EB41
:101180008303413B1F249C4020EA04000C6804FABE
:1011900003F30343EB62C3E71568286903EB4303DA
:1011A00007249C4020EA04008C6804FA03F30343FC
:1011B0002B61C6E713681648834205D0936A43F053
:1011C000200393620120C1E7986810F4000F1BD13F
:1011D000986840F4000098600B68102B01D0002044
:1011E000B4E70C4B1B680C49A1FB03139B0C03EBEE
:1011F00083035900019102E0019B013B0193019B94
:10120000002BF9D10020A1E700209FE70220A0E7F2
:10121000002401400400002083DE1B4338B503682E
:101220009A6812F0010F01D1002038BD04469A6877
:1012300022F001029A6001F039F8054623689B68A4
:1012400013F0010F0ED001F031F8401B0228F5D940
:10125000A36A43F01003A362E36A43F00103E3626D
:101260000120E2E70020E0E7002800F08A8070B566
:101270000446836A002B36D02046FFF7CFFFA36ACF
:1012800013F0100377D1002875D1A26A22F4885296
:1012900022F0020242F00202A262626825683A4924
:1012A0008D4226D0E1690A43E66842EA4602A16817
:1012B000B1F5807F27D0012922D06169012925D08D
:1012C000696821F469410B436B6021688D682F4B7D
:1012D0002B4013438B60A368B3F5807F27D0012B8D
:1012E00025D0002126E0C36280F82430FFF736F9CC
:1012F000C2E7E169B1F5402FD5D14FF40021D2E723
:101300004FF48073D9E74FF48073D6E736B9A169FB
:10131000013943EA413343F40063D1E7A16A41F064
:101320002001A162E16A41F00101E162C8E723699D
:10133000013B19052568EB6A23F470030B43EB624C
:1013400023689968124B0B409A420BD0A36A23F092
:10135000120343F01003A362E36A43F00103E36264
:1013600001200DE00023E362A36A23F0030343F0AE
:101370000103A36204E0A36A43F01003A362012007
:1013800070BD0120704700BF003C0140FDF7E1FF48
:10139000FE0E1FFF00283CD010B5044600238362D8
:1013A00090F85130002B31D0022384F8513022685C
:1013B000136823F0400313606368A2681343E26874
:1013C00013432269134362691343A26902F4007252
:1013D0001343E2691343226A1343A16A22680B4351
:1013E0001360638B03F00403616A22680B4353604C
:1013F0002368E26A1A612268D36923F40063D36127
:1014000000206065012384F8513010BDFFF7FAF920
:10141000CAE701207047000030B4036A23F00103DB
:101420000362056A4268846924F073040B681C43F4
:1014300025F002058B682B43104DA84203D005F51B
:101440000065A84205D123F00803CD682B4323F0A3
:1014500004030A4DA84203D005F50065A84205D152
:1014600022F440724D6915438A692A4342608461BF
:101470004A684263036230BC704700BF002C0140E1
:1014800030B4036A23F480730362036A4268C46958
:1014900024F073040D682C4323F400738D6843EA31
:1014A0000523124DA84203D005F50065A84206D1D8
:1014B00023F40063CD6843EA052323F480630B4DD6
:1014C000A84203D005F50065A84207D122F4405296
:1014D0004D6942EA05128D6942EA05124260C46113
:1014E0004A68C263036230BC704700BF002C0140F1
:1014F00030B4036A23F480530362036A4468C26908
:1015000022F4E6420D6842EA052223F400538D6876
:1015100043EA0533094DA84203D005F50065A8420A
:1015200004D124F480444D6944EA85144460C261C6
:101530004A680264036230BC704700BF002C01405F
:1015400010B4036A046A24F001040462846924F07C
:10155000F00444EA021223F00A030B43826103629F
:1015600010BC704710B4036A23F01003036284694F
:10157000036A24F4704444EA023223F0A00343EAED
:1015800001138261036210BC7047836823F070030B
:1015900041F0070119438160704710B4846824F456
:1015A0007F4442EA03230B432343836010BC70470C
:1015B0000268D36843F00103D3600268136843F004
:1015C0000103136000207047704790F83C30012BF6
:1015D0007DD010B50446012380F83C30022380F80A
:1015E0003D300268936823F47F4323F077039360D0
:1015F0000B68402B57D010D9702B3ED01FD8502BE2
:1016000047D0602B32D1CA6849680068FFF7AAFF4B
:1016100060212068FFF7B9FF28E0102B4DD008D9D2
:10162000202B4FD0302B21D130210068FFF7ADFFA8
:101630001CE0DBB900210068FFF7A7FF16E0B3F557
:10164000805F0ED0B3F5005F10D1CB684A6889681F
:101650000068FFF7A2FF2268936843F48043936019
:1016600004E00268936823F007039360012384F881
:101670003D30002084F83C0010BDCB684A68896882
:101680000068FFF78AFF2268936843F0770393604E
:10169000ECE7CA6849680068FFF752FF50212068EC
:1016A000FFF773FFE2E7CA6849680068FFF748FF81
:1016B00040212068FFF769FFD8E710210068FFF795
:1016C00064FFD3E720210068FFF75FFFCEE7022029
:1016D0007047704770477047704710B504460368FD
:1016E0001A6912F0020F11D0DA6812F0020F0DD051
:1016F0006FF002021A610123037703689B6913F0FC
:10170000030F70D0FFF7E6FF0023237723681A69E1
:1017100012F0040F12D0DA6812F0040F0ED06FF03E
:1017200004021A610223237723689B6913F4407F24
:101730005FD02046FFF7CEFF0023237723681A6986
:1017400012F0080F12D0DA6812F0080F0ED06FF006
:1017500008021A61042323772368DB6913F0030F5F
:101760004ED02046FFF7B6FF0023237723681A697F
:1017700012F0100F12D0DA6812F0100F0ED06FF0C6
:1017800010021A61082323772368DB6913F4407F72
:101790003DD02046FFF79EFF0023237723681A6978
:1017A00012F0010F03D0DA6812F0010F36D123686E
:1017B0001A6912F0800F03D0DA6812F0800F34D16A
:1017C00023681A6912F0400F03D0DA6812F0400F54
:1017D00032D123681A6912F0200F03D0DA6812F0B0
:1017E000200F30D110BDFFF774FF2046FFF773FFC5
:1017F0008AE72046FFF76DFF2046FFF76CFF9BE767
:101800002046FFF766FF2046FFF765FFACE720465E
:10181000FFF75FFF2046FFF75EFFBDE76FF00102B5
:101820001A612046FEF774FDC1E76FF080021A616D
:10183000204600F05DF9C3E76FF040021A612046D0
:10184000FFF74AFFC5E76FF020021A61204600F05B
:101850004EF9C7E70368244A904212D002F50062AD
:1018600090420ED0B0F1804F0BD0A2F5983290424A
:1018700007D002F58062904203D002F58062904268
:1018800003D123F070034A681343174A904212D0E1
:1018900002F5006290420ED0B0F1804F0BD0A2F55D
:1018A0009832904207D002F58062904203D002F550
:1018B0008062904203D123F44073CA68134323F03B
:1018C00080034A69134303608B68C3620B688362B9
:1018D000054B984203D003F50063984201D10B6990
:1018E0000363012343617047002C0140A8B110B588
:1018F000044690F83D305BB1022384F83D30211D51
:101900002068FFF7A7FF012384F83D30002010BDB9
:1019100080F83C30FFF712F8EEE701207047A8B1DD
:1019200010B5044690F83D305BB1022384F83D3099
:10193000211D2068FFF78EFF012384F83D30002031
:1019400010BD80F83C30FFF73FFEEEE70120704706
:1019500030B4036A23F010030362036A44688269A7
:1019600022F4E6420D6842EA052223F020038D6846
:1019700043EA0513114DA84203D005F50065A842BE
:1019800006D123F08003CD6843EA051323F040031A
:101990000A4DA84203D005F50065A84207D124F4FA
:1019A00040644D6944EA85048D6944EA85044460D5
:1019B00082614A688263036230BC7047002C014038
:1019C00038B590F83C30012B66D00D460446012313
:1019D00080F83C30022380F83D300C2A1AD8DFE82A
:1019E00002F0071919192019191934191919470082
:1019F0000068FFF711FD2268936943F008039361C3
:101A00002268936923F0040393612268936929692A
:101A10000B439361012384F83D30002084F83C009F
:101A200038BD0068FFF794FF2268936943F40063B0
:101A300093612268936923F48063936122689369B8
:101A4000296943EA01239361E4E70068FFF718FD81
:101A50002268D36943F00803D3612268D36923F075
:101A60000403D3612268D36929690B43D361D1E7A9
:101A70000068FFF73DFD2268D36943F40063D3613A
:101A80002268D36923F48063D3612268D36929690A
:101A900043EA0123D361BDE70220C1E790F83C305F
:101AA000012B22D030B4012280F83C20022380F8A0
:101AB0003D300468636823F0700363600468636802
:101AC0000D682B4363600468A36823F08003A36060
:101AD0000468A36849680B43A36080F83D20002395
:101AE00080F83C30184630BC704702207047704781
:101AF00070470268D36823F0C003D360202380F8C6
:101B0000393070470268D36823F49073D360026859
:101B1000536923F001035361202380F83A30704762
:101B200090F83930DBB2212B2AD18368B3F5805F7E
:101B300016D0036A5A1C02621A7803685A60C38C72
:101B4000013B9BB2C384EBB90268D36823F08003E6
:101B5000D3600268D36843F04003D360002070472D
:101B6000036A1B880268C3F30803536003691BB947
:101B7000036A02330362E2E7036A01330362DEE7CA
:101B800002207047002070472DE9F843054602689F
:101B9000136923F44053C1680B43136183680269DE
:101BA0001343426913430168CA6822F4B05222F019
:101BB0000C021343CB600268536923F440738169BC
:101BC0000B4353610268594B9A4257D000F072FEA2
:101BD00000EB800000EB80006C68A400B0FBF4F424
:101BE000534FA7FB04346409260100F063FE00EBA9
:101BF000800000EB80006C68A400B0FBF4F900F0FA
:101C000059FE00EB800000EB80006C68A400B0FB84
:101C1000F4F4A7FB043464094FF0640808FB14943F
:101C200024013234A7FB0434640904F0F004344482
:101C300000F040FE00EB800000EB80006E68B60014
:101C4000B0FBF6F600F036FE00EB800000EB800003
:101C50006B689B00B0FBF3F0A7FB0030400908FB6A
:101C600010684FEA081808F13208A7FB0837C7F3D5
:101C700043172B6827449F60BDE8F88300F02AFED5
:101C800000EB800000EB80006C68A400B0FBF4F473
:101C9000274FA7FB04346409260100F01BFE00EB6C
:101CA000800000EB80006C68A400B0FBF4F900F049
:101CB00011FE00EB800000EB80006C68A400B0FB1C
:101CC000F4F4A7FB043464094FF0640808FB14948F
:101CD00024013234A7FB0434640904F0F0043444D2
:101CE00000F0F8FD00EB800000EB80006E68B600AD
:101CF000B0FBF6F600F0EEFD00EB800000EB80009C
:101D00006B689B00B0FBF3F0A7FB0030400908FBB9
:101D100010684FEA081808F13208A7FB0837C7F324
:101D200043172B6827449F60A6E700BF0038014097
:101D30001F85EB512DE9F04105460F4616469846A2
:101D4000069C2B681B6837EA03030CBF01230023A2
:101D5000B3421DD1B4F1FF3FF3D02CB100F0A6FA8D
:101D6000A0EB0800A042ECD92A68D36823F4D07312
:101D7000D3602A68536923F001035361202385F857
:101D8000393085F83A30002385F83830032000E0F8
:101D90000020BDE8F08158B310B5044690F8393002
:101DA0000BB3242384F839302268D36823F400531A
:101DB000D3602046FFF7E8FE2268136923F49043BE
:101DC00013612268536923F02A0353612268D368A0
:101DD00043F40053D3600020E063202384F83930BB
:101DE00084F83A3010BD80F83830FEF7ADFED8E701
:101DF000012070472DE9F04182B01E4690F839303D
:101E0000DBB2202B55D104460D469046002955D013
:101E1000002A55D090F83830012B53D0012380F898
:101E200038300023C363212380F8393000F03EFAB4
:101E30000746A4F82480A4F8268010E000963B46CC
:101E4000002280212046FFF775FF00283CD12B8817
:101E50002268C3F3080353602369C3B90235E38CD6
:101E60009BB2B3B1E38C013B9BB2E384A368B3F5AF
:101E7000805FE3D000963B46002280212046FFF79A
:101E800059FF18BB2A7823685A600135E7E7013506
:101E9000E5E700963B46002240212046FFF74AFF37
:101EA0000346A8B9202284F83920002284F838207B
:101EB00000E00223184602B0BDE8F0810123F9E7F3
:101EC0000123F7E70223F5E70323F3E70323F1E711
:101ED0000323EFE730B583B090F83A40E4B2202C0A
:101EE0003DD100293ED0002A3ED090F83830012B59
:101EF0003CD013460A460446012180F8381082621D
:101F000083850025C563222180F83A10416B18486B
:101F10008862616B1748C862616B17480863616B20
:101F20004D6321680431606B00F000FF0195236868
:101F30001A6801925A680192019A84F83850DA6856
:101F400042F48072DA602268536943F001035361FE
:101F50002268536943F040035361284600E00220A1
:101F600003B030BD0120FBE70120F9E70220F7E7CD
:101F7000FF1F0008DB200008E720000810B504461A
:101F800001684A6990F83930DBB2212B0AD0216808
:101F90004A6902F0400294F83A30DBB2222B11D0A9
:101FA000002010BD02F08002002AF0D04B6923F01F
:101FB00080034B61006B08B100F0F2FE2046FFF792
:101FC00098FDE4E7002AEBD04B6923F040034B6116
:101FD000606B08B100F0E4FE2046FFF793FDDFE7F9
:101FE000704708B50168CB6823F04003CB6020231D
:101FF00080F83930FFF7F4FF002008BD704708B5BE
:10200000436A0268126812F0200F13D10022DA85A9
:102010001968CA6822F48072CA6019684A6922F095
:1020200001024A6119684A6922F040024A6120228D
:1020300083F83A201846FFF7E1FF08BD08B590F88D
:102040003A30DBB2222B45D18368B3F5805F0ED0E6
:10205000036903BB03685A68836A591C81621A705A
:10206000C38D013B9BB2C385F3B1002033E0826A8C
:10207000036943B903685B68C3F308031380836A89
:1020800002338362ECE703685B68DBB21380836A28
:1020900001338362E4E703685B68826A511C8162F2
:1020A00003F07F031370DBE70268D36823F020039B
:1020B000D3600268D36823F48073D36002685369E5
:1020C00023F001035361202380F83A30FFF796FF95
:1020D000002000E0022008BD704708B5406AFFF705
:1020E000FBFF08BD704710B5446A23685A6994F82D
:1020F0003930DBB2212B10D023685A6902F040023C
:1021000094F83A30DBB2222B11D0E36B43F010038A
:10211000E3632046FFF7E6FF10BD02F08002002ACD
:10212000EAD00023E3842046FFF7E3FCE4E7002A3B
:10213000EBD00023E3852046FFF7E4FCE5E7000051
:1021400010B5044602681368D168526913F00F0095
:1021500005D113F0200F02D011F0200F53D1002829
:1021600067D012F0010202D111F4907F61D013F018
:10217000010F06D011F4807F03D0E06B40F0010026
:10218000E06313F0040F04D01AB1E06B40F00200DA
:10219000E06313F0020F04D01AB1E06B40F00400CA
:1021A000E06313F0080F04D01AB1E26B42F00802AA
:1021B000E263E26B002A48D013F0200F02D011F046
:1021C000200F24D123685B6903F04003E26B12F017
:1021D000080F00D13BB32046FFF794FC23685A69EF
:1021E00012F0400F1BD05A6922F040025A61636B13
:1021F0008BB11A4A5A63606B00F0EAFD28B3606B3A
:10220000436B984721E02046FFF718FF1DE020466A
:10221000FFF714FFD6E72046FFF764FF15E02046DE
:10222000FFF760FF11E02046FFF75CFF0023E36348
:102230000BE013F0800F02D011F0800F06D113F0E5
:10224000400F02D011F0400F04D110BD2046FFF71F
:1022500067FCFAE72046FFF7C4FEF6E761220008B4
:1022600008B5406A0023C385C384FFF73BFF08BD60
:1022700008B5074A136843F010031360032000F009
:10228000D1FF0020FEF7F2FEFEF7A0FE002008BD01
:1022900000200240034A1168034B1B780B44136073
:1022A000704700BF7C14002000000020014B18681C
:1022B000704700BF7C14002082B0084B1B68084A9E
:1022C000A2FB03235B0A00FB03F0019000BF019B0C
:1022D0005A1E0192002BF9D102B070470400002071
:1022E000D34D621070B582B00446036813F0010F3D
:1022F0002CD0AB4B5B6803F00C03042B1DD0A84B18
:102300005B6803F00C03082B12D06368B3F5803FC1
:1023100041D0002B55D103F1804303F504331A68F3
:1023200022F480321A601A6822F480221A6037E0A0
:102330009B4B5B6813F4803FE7D0994B1B6813F409
:10234000003F03D06368002B00F0AE81236813F0D8
:10235000020F76D0924B5B6813F00C0F5FD0904B5E
:102360005B6803F00C03082B54D02369002B00F0AA
:102370008A808C4B01221A60FFF798FF0546884B34
:102380001B6813F0020F75D1FFF790FF401B022866
:10239000F5D903208BE1824A136843F4803313603C
:1023A000636843B3FFF782FF05467D4B1B6813F458
:1023B000003FCBD1FFF77AFF401B6428F5D90320FB
:1023C00075E1B3F5A02F09D0754B1A6822F480325D
:1023D0001A601A6822F480221A60E1E703F1804350
:1023E000A3F53C331A6842F480221A601A6842F45A
:1023F00080321A60D4E7FFF759FF0546684B1B6827
:1024000013F4003FA2D0FFF751FF401B6428F5D919
:1024100003204CE1624B5B6813F4803FA5D1604B15
:102420001B6813F0020F04D02369012B01D0012097
:102430003DE15B4A136823F0F803616943EAC10395
:102440001360236813F0080F32D0A369002B5BD010
:10245000554B01221A60FFF729FF0546504B5B6A76
:1024600013F0020F21D1FFF721FF401B0228F5D9FD
:1024700003201CE14A4A136823F0F803616943EA28
:10248000C1031360DDE7474B00221A60FFF70EFF20
:102490000546434B1B6813F0020FD2D0FFF706FF2F
:1024A000401B0228F5D9032001E10120FFF704FFBA
:1024B000236813F0040F00F09780394BDB6913F0A9
:1024C000805F33D1364BDA6942F08052DA61DB69E2
:1024D00003F080530193019B0125344B1B6813F4D7
:1024E000807F25D0E368012B36D0002B4CD103F13F
:1024F000804303F504331A6A22F001021A621A6A51
:1025000022F004021A622CE0274B00221A60FFF727
:10251000CDFE0546224B5B6A13F0020FC8D0FFF7D1
:10252000C5FE401B0228F5D90320C0E00025D4E7F2
:102530001E4A136843F480731360FFF7B7FE064624
:102540001A4B1B6813F4807FCCD1FFF7AFFE801BC2
:102550006428F5D90320AAE0114A136A43F0010365
:102560001362E36873B3FFF7A1FE06460C4B1B6AC8
:1025700013F0020F37D1FFF799FE801B41F2883329
:102580009842F3D9032092E0052B11D0044B1A6A2C
:1025900022F001021A621A6A22F004021A62E0E7CB
:1025A000001002400000424280044242007000409D
:1025B000414B1A6A42F004021A621A6A42F001029E
:1025C0001A62CEE7FFF772FE06463B4B1B6A13F01A
:1025D000020F08D0FFF76AFE801B41F28833984251
:1025E000F3D9032063E0E5B9E369002B5ED0324AFA
:1025F000526802F00C02082A5BD0022B17D02F4B36
:1026000000221A60FFF752FE04462B4B1B6813F0A2
:10261000007F47D0FFF74AFE001B0228F5D90320B0
:1026200045E0254AD36923F08053D361DCE7234B8F
:1026300000221A60FFF73AFE05461F4B1B6813F095
:10264000007F06D0FFF732FE401B0228F5D9032099
:102650002DE0236AB3F5803F1AD017494B6823F465
:102660007413226A606A024313434B60134B0122C6
:102670001A60FFF71BFE04460F4B1B6813F0007F28
:102680000ED1FFF713FE001B0228F5D903200EE040
:10269000094A536823F40033A1680B435360DCE715
:1026A000002004E0002002E0012000E0002002B051
:1026B00070BD0120FBE700BF0010024060004242F5
:1026C00010B487B0164C94E80F000DF1180C0CE90B
:1026D0000F00238AADF80430124B5B6803F00C0244
:1026E000082A1AD1C3F38342624412F8102C13F45F
:1026F000803F05D10C4800FB02F007B010BC7047CA
:10270000084B5B68C3F34043634413F8143C074829
:1027100000FB02F0B0FBF3F0EFE70448EDE700BF89
:10272000445600080010024000093D0000127A00E3
:10273000594B1B6803F007038B420CD2564A1368AF
:1027400023F007030B431360136803F007038B4266
:1027500001D00120704770B5036813F0020F06D056
:102760004E4A536823F0F0038468234353600C46B9
:102770000546036813F0010F52D04368012B23D0A4
:10278000022B28D0454A126812F0020F00F0828016
:1027900042494A6822F0030213434B60FFF786FD6B
:1027A00006466B68012B1DD0022B2AD03B4B5B6881
:1027B00013F00C0F34D0FFF779FD801B41F2883302
:1027C0009842F3D9032064E0344A126812F4003FBF
:1027D000DED101205DE0314A126812F0007FD7D1CE
:1027E000012056E02D4B5B6803F00C03042B17D03F
:1027F000FFF75CFD801B41F288339842F2D9032039
:1028000047E0264B5B6803F00C03082B08D0FFF76A
:102810004DFD801B41F288339842F2D9032038E005
:102820001D4B1B6803F00703A3420CD91A4A136817
:1028300023F0070323431360136803F00703A34245
:1028400001D0012025E02B6813F0040F06D0134AB5
:10285000536823F4E063E9680B4353602B6813F07B
:10286000080F07D00D4A536823F46053296943EADF
:10287000C1035360FFF724FF084B5B68C3F30313E6
:10288000074AD35CD840074B18600020FEF7EEFBE8
:10289000002070BD0120FCE7002002400010024033
:1028A0007C57000804000020014B1868704700BFE7
:1028B0000400002008B5FFF7F7FF044B5B68C3F383
:1028C0000223034AD35CD84008BD00BF0010024079
:1028D0008C57000808B5FFF7E7FF044B5B68C3F3AC
:1028E000C223034AD35CD84008BD00BF0010024099
:1028F0008C5700080F2303600B4B5A6802F0030249
:1029000042605A6802F0F00282605A6802F4E062A3
:10291000C2605B68DB0803F4E0630361034B1B6880
:1029200003F007030B6070470010024000200240D4
:1029300070B582B00446036813F0010F34D03E4BEB
:10294000DB6913F0805F48D13B4BDA6942F080527B
:10295000DA61DB6903F080530193019B0125374B5A
:102960001B6813F4807F3AD0334B1B6A13F4407317
:1029700011D0626802F440729A420CD02E4A136A57
:1029800023F440702E4901260E6000260E6010626E
:1029900013F0010F37D1284A136A23F4407361689A
:1029A0000B431362002D3FD1236813F0020F06D0B2
:1029B000214A536823F44043A1680B4353602368C2
:1029C00013F0100F35D01C4A536823F4800361695B
:1029D0000B435360002002B070BD0025BFE7174ACB
:1029E000136843F480731360FFF760FC0646134BD3
:1029F0001B6813F4807FB7D1FFF758FC801B642855
:102A0000F5D90320E7E7FFF751FC06460A4B1B6A9E
:102A100013F0020FBFD1FFF749FC801B41F288334E
:102A20009842F3D90320D6E7D36923F08053D361CA
:102A3000BAE70020CFE700BF00100240007000405E
:102A400040044242F0B482B000263546ABE0002C90
:102A500063D0012C00D1CE68FF2B72D88446FF2BA7
:102A600072D8AC00DCF800200F27A74022EA07024A
:102A700006FA04F42243CCF800204A6812F0805F82
:102A800000F09080654A946944F001049461926971
:102A900002F001020192019AAC08A71C604A52F8A8
:102AA00027C005F0030297000F22BA402CEA020C5F
:102AB0005C4A90424ED002F58062904200F08B80DA
:102AC00002F58062904200F0888002F580629042B8
:102AD00000F0858002F58062904200F0828002F56D
:102AE0008062904234D0062235E04F4FBC4214D071
:102AF0000BD94E4FBC4210D007F58037BC420CD0EA
:102B0000A7F58017BC42A7D107E0A7F58017BC4204
:102B100003D007F58037BC429ED18C687CB1012C74
:102B200008D04261082697E7CE68083694E7CE6859
:102B30000C3691E7026108268EE700268CE7042612
:102B40008AE700F1040C8AE7A5F10804A40089E7EC
:102B5000052200E00022BA4042EA0C020234304F63
:102B600047F824204A6812F4803F3CD0304C226859
:102B70001A4322604A6812F4003F3AD02C4C626833
:102B80001A4362604A6812F4801F38D0284CA26849
:102B90001A43A2604A6812F4001F36D0244CE2683F
:102BA0001343E36001350F2D35D80122AA400B688D
:102BB00013409A42F6D14C68122CB8D095D8022C0A
:102BC000B2D07FF644AF032CB7D0112C7FF444AFC2
:102BD000CE68043640E70122BDE70222BBE70322AC
:102BE000B9E70422B7E7124C226822EA0302226006
:102BF000C0E70F4C626822EA03026260C2E70C4C35
:102C0000A26822EA0302A260C4E7094CE26822EA51
:102C10000303E360C6E702B0F0BC70470010024057
:102C200000000140000801400000211000003110A8
:102C30000004014012B90904016170470161704745
:102C40007047000008B5054B5B69034200D108BD21
:102C5000024B5861FFF7F4FFF9E700BF00040140A1
:102C600070B4066CC56B0124B4406C60046863608A
:102C70004368102B05D0036899600368DA6070BC64
:102C8000704703689A600368D960F8E700283FD06E
:102C900010B4034601681F4A91422ED81E4A0A44C6
:102CA0001E49A1FB02121209920002641C4AC2636F
:102CB000022283F821201868016821F47F5121F055
:102CC00030015A689C682243DC6822431C69224315
:102CD0005C6922439C692243DC6922430A43026007
:102CE00000209862D862186358639863012283F8C1
:102CF000212083F8200010BC70470A4A0A44074983
:102D0000A1FB0212120992000264074AC263CFE7D4
:102D10000120704707040240F8FFFDBFCDCCCCCCAA
:102D200000000240F8FBFDBF0004024038B590F8F7
:102D30002040012C32D0012480F8204090F821401E
:102D4000012C04D0002380F82030022038BD044636
:102D5000022084F821000020A0632568286820F064
:102D6000010028602046FFF77BFFE36A5BB1226821
:102D7000136843F00E0313602268136843F00103E5
:102D800013600020E2E72268136823F00403136055
:102D90002268136843F00A031360EDE70220D5E7C9
:102DA000034601680A6822F00E020A6001680A6898
:102DB00022F001020A60026CC06B012101FA02F2EA
:102DC000426083F82110002083F820007047000043
:102DD00008B590F82130022B03D00423836301202F
:102DE00008BD0268136823F00E03136002681368BD
:102DF00023F00103136003684B4A93424ED9783A9B
:102E0000934224D01432934230D0143293422FD0C4
:102E1000143293422FD0143293422FD01432934263
:102E20002FD0143293422FD002F5627293422ED0EB
:102E3000143293422DD0143293422CD01432934248
:102E400002D04FF4803203E04FF4805200E00122C0
:102E5000364B5A60012380F82130002380F820305F
:102E6000436B002B5ED098470020B9E71022EFE7B4
:102E70004FF48072ECE74FF48052E9E74FF4803270
:102E8000E6E74FF48012E3E74FF08072E0E70122BB
:102E9000DEE71022DCE74FF48072D9E7244A934240
:102EA00024D01432934225D01432934224D01432C9
:102EB000934224D01432934224D01432934224D02B
:102EC0001432934224D002F56272934223D014321A
:102ED000934222D01432934221D01432934202D032
:102EE0004FF4803203E04FF4805200E00122114B96
:102EF0005A60AFE71022FAE74FF48072F7E74FF419
:102F00008052F4E74FF48032F1E74FF48012EEE79D
:102F10004FF08072EBE70122E9E71022E7E74FF478
:102F20008072E4E700205BE780000240000402407A
:102F3000080002400000024038B5C36B1A680468FC
:102F40002568016C04238B40134200F09B8015F030
:102F5000040F00F09780236813F0200F03D123683B
:102F600023F0040323600368AA4A934246D9783ABF
:102F7000934224D01432934228D01432934227D063
:102F80001432934227D01432934227D01432934202
:102F900027D01432934227D002F56272934226D092
:102FA0001432934225D01432934224D014329342E7
:102FB00002D04FF4802203E04FF4804200E004226C
:102FC000954B5A60C36A03B1984738BD4022F7E772
:102FD0004FF48062F4E74FF48042F1E74FF480222F
:102FE000EEE74FF48002EBE74FF08062E8E704225F
:102FF000E6E74022E4E74FF48062E1E7874A934244
:1030000024D01432934225D01432934224D0143267
:10301000934224D01432934224D01432934224D0C9
:103020001432934224D002F56272934223D01432B8
:10303000934222D01432934221D01432934202D0D0
:103040004FF4802203E04FF4804200E00422744BEE
:103050005A60B7E74022FAE74FF48062F7E74FF48F
:103060008042F4E74FF48022F1E74FF48002EEE76C
:103070004FF08062EBE70422E9E74022E7E74FF4F4
:103080008062E4E702238B40134200F0A38015F036
:10309000020F00F09F80236813F0200F06D12368F1
:1030A00023F00A032360012380F821300368594A82
:1030B00093424BD9783A934224D0143293422DD084
:1030C000143293422CD0143293422CD014329342B7
:1030D0002CD0143293422CD0143293422CD002F5CF
:1030E000627293422BD0143293422AD0143293420C
:1030F00029D01432934202D04FF4003203E04FF44F
:10310000005200E00222444B5A60002380F8203035
:10311000836A002B3FF459AF984756E72022F2E725
:103120004FF40072EFE74FF40052ECE74FF4003237
:10313000E9E74FF40012E6E74FF00072E3E70222FE
:10314000E1E72022DFE74FF40072DCE7334A9342E5
:1031500024D01432934225D01432934224D0143216
:10316000934224D01432934224D01432934224D078
:103170001432934224D002F56272934223D0143267
:10318000934222D01432934221D01432934202D07F
:103190004FF4003203E04FF4005200E00222204BD3
:1031A0005A60B2E72022FAE74FF40072F7E74FF4D3
:1031B0000052F4E74FF40032F1E74FF40012EEE76B
:1031C0004FF00072EBE70222E9E72022E7E74FF435
:1031D0000072E4E7082303FA01F111423FF4F5AE6F
:1031E00015F0080F3FF4F1AE236823F00E032360BF
:1031F000026CC16B012303FA02F24A60836380F818
:103200002130002380F82030036B002B3FF4DDAE2B
:103210009847DAE6800002400004024008000240BD
:1032200000000240074AD36823F4E0631B041B0C30
:10323000000200F4E060184340F0BF6040F400304A
:10324000D060704700ED00E030B4174BDB68C3F38B
:103250000223C3F10704042C28BF04241D1D062DDE
:1032600018D9033B4FF0FF3505FA04F421EA0401B5
:10327000994005FA03F322EA0303194300280BDB04
:103280000901C9B200F1604000F5614080F8001307
:1032900030BC70470023E5E700F00F000901C9B218
:1032A000024B1954F4E700BF00ED00E014ED00E01C
:1032B00000F01F02400901239340024A42F82030E7
:1032C000704700BF00E100E00138B0F1807F0AD212
:1032D000064B5860064AF02182F8231000209860BF
:1032E00007221A6070470120704700BF10E000E01D
:1032F00000ED00E0042805D0054A136823F004031C
:1033000013607047024A136843F004031360704768
:1033100010E000E00F4B1A6842F001021A60596891
:103320000D4A0A405A601A6822F0847222F48032F0
:103330001A601A6822F480221A605A6822F4FE0287
:103340005A604FF41F029A60044B4FF000629A607B
:10335000704700BF001002400000FFF800ED00E0E1
:10336000124A12F0070F1ED0D11D21F00701C1F53E
:10337000406313440A460E48026000214160134432
:10338000083B23F007030B48036059601960991A42
:1033900051601360084B1960084B1960084B4FF0DF
:1033A00000421A6070474FF44063E4E79C0000203D
:1033B000A80C002098000020A40C0020A00C0020E5
:1033C0009C0C002010B4124B1A6882421AD3596820
:1033D0005C18844203D14068014459601846416832
:1033E0004418A24212D10B4C2468A2420CD052685D
:1033F000114441601A6812680260984200D0186057
:1034000010BC70471346DFE70460F6E70260F4E79C
:10341000A80C00209800002070B5044600F0AAFD1A
:103420003A4B1B68BBB13A4B1B681C4263D1ACB131
:10343000083414F0070F11D024F00704083404F006
:1034400007035BB14FF0500383F31188BFF36F8F15
:10345000BFF34F8FFEE7FFF783FFE4E7002C4CD06C
:103460002C4B1B68A3424AD32B4B1D6801E02B4613
:1034700015466A68A24202D22A68002AF7D1234A76
:103480001268AA423DD01E6808362A681A606B6826
:103490001B1B102B10D9281910F0070F08D04FF064
:1034A000500383F31188BFF36F8FBFF34F8FFEE795
:1034B00043606C60FFF786FF6A6816490B689B1AC9
:1034C0000B60164909688B4201D214490B60104BFE
:1034D0001B6813436B6000232B6000F0DFFD16F0C8
:1034E000070F10D04FF0500383F31188BFF36F8F95
:1034F000BFF34F8FFEE70026EFE70026EDE700263B
:10350000EBE70026E9E7304670BD00BF98000020D9
:103510009C0C0020A00C0020A80C0020A40C002073
:1035200080B338B50446A0F1080550F8042C1649BC
:1035300009680A4208D14FF0500383F31188BFF3A2
:103540006F8FBFF34F8FFEE750F8080C40B14FF07C
:10355000500383F31188BFF36F8FBFF34F8FFEE7E4
:1035600022EA010244F8042C00F004FD54F8041C83
:10357000064A13680B4413602846FFF723FF00F048
:103580008DFD38BD704700BF9C0C0020A00C0020B2
:103590000B4B1B68B3F1FF3F08D04FF0500383F390
:1035A0001188BFF36F8FBFF34F8FFEE74FF05003CB
:1035B00083F31188BFF36F8FBFF34F8FFEE700BF18
:1035C0000800002006480068006880F3088862B69A
:1035D00061B6BFF34F8FBFF36F8F00DF00BF0000F6
:1035E00008ED00E04FF0807340F8043C21F0010149
:1035F00040F8081C034B40F80C3C40F8202C4038A5
:10360000704700BF91350008000000000000000076
:10361000074B19680868B0E8F00F80F30988BFF31A
:103620006F8F4FF0000080F311884EF00D0E704741
:10363000B80C00204FF0500383F31188BFF36F8F55
:10364000BFF34F8F0A4A136801331360012B00D078
:103650007047084B1B6813F0FF0FF9D04FF0500371
:1036600083F31188BFF36F8FBFF34F8FFEE700BF67
:103670000800002004ED00E0094B1B6843B94FF03F
:10368000500383F31188BFF36F8FBFF34F8FFEE7B3
:10369000013B034A13600BB983F31188704700BFE5
:1036A00008000020000000000000000000000000F2
:1036B000EFF30980BFF36F8F0D4B1A6820E9F00F0D
:1036C00010602DE908404FF0500080F3118800F0A1
:1036D000CBFD4FF0000080F31188BDE80840196869
:1036E0000868B0E8F00F80F30988BFF36F8F704768
:1036F000B80C002008B54FF0500383F31188BFF3D6
:103700006F8FBFF34F8F00F03DFC18B1034B4FF0AC
:1037100080521A60002383F3118808BD04ED00E095
:10372000064B1B68064AA2FB03239B09013B054A83
:103730001360054B07221A60704700BF0400002089
:10374000D34D621014E000E010E000E000B583B05B
:103750001F4B1A78D2B20192FF221A701B78DBB28B
:103760008DF803309DF8033003F05003194A1370AD
:10377000194B07221A6009E0174A1368013B1360CE
:103780009DF803305B00DBB28DF803309DF8033009
:1037900013F0800FF0D1104A13681B0203F4E063AA
:1037A0001360019BDBB20A4A13700C4B1A6842F497
:1037B00070021A601A6842F070421A60FFF7B0FF98
:1037C000074B00221A60FFF7FDFEFFF7E1FE00BF86
:1037D00000E400E0B00C0020B40C002020ED00E07C
:1037E00008000020EFF305830F2B0FD9104A9B5CD4
:1037F000DBB2104A12789A4208D94FF0500383F393
:103800001188BFF36F8FBFF34F8FFEE70A4B1B6822
:1038100003F4E063094A1268934208D94FF0500359
:1038200083F31188BFF36F8FBFF34F8FFEE77047AD
:10383000F0E300E0B00C00200CED00E0B40C002040
:1038400010B50446FFF7F6FEA36B23B10024FFF783
:1038500013FF204610BD0124F9E7026C72B110B5C8
:10386000C3681344C3604468A34201D30368C360C0
:103870000C46C168204600F033FF10BD704738B5D4
:103880000546FFF7D7FE95F8454064B203E000F027
:10389000EBFD013C64B2002C08DD6B6A33B105F12D
:1038A000240000F045FD0028F3D0F0E7FF2385F861
:1038B0004530FFF7E1FEFFF7BDFE95F8444064B2E6
:1038C00003E000F0D1FD013C64B2002C08DD2B695F
:1038D00033B105F1100000F02BFD0028F3D0F0E724
:1038E000FF2385F84430FFF7C7FE38BD38B540B92F
:1038F0004FF0500383F31188BFF36F8FBFF34F8FE7
:10390000FEE704460D46FFF795FE2168E26B236C47
:1039100003FB021060600020A063A160013A02FB7B
:103920000313E360FF2384F8443084F84530A5B9DD
:1039300023691BB9FFF7A0FE012038BD04F1100078
:1039400000F0F6FC0028F5D0084B4FF080521A60CA
:10395000BFF34F8FBFF36F8FECE704F1100000F05F
:10396000F7FD04F1240000F0F3FDE3E704ED00E0CF
:1039700010B5029B0C4639B11A60D8631C64012152
:103980001846FFF7B3FF10BD1B60F6E740B94FF0D4
:10399000500383F31188BFF36F8FBFF34F8FFEE7A0
:1039A000F0B583B0054611B101FB00F000E0002046
:1039B00017460C464830FFF72FFD064638B10090F9
:1039C0003B4600F1480221462846FFF7D1FF30462A
:1039D00003B0F0BD60B170B50446036C8BB14FF01D
:1039E000500383F31188BFF36F8FBFF34F8FFEE750
:1039F0004FF0500383F31188BFF36F8FBFF34F8FE6
:103A0000FEE703682BB30E46FFF7ECFEEFF31185DC
:103A10004FF0500383F31188BFF36F8FBFF34F8FC5
:103A2000A26BE36B934226D994F845305BB2013226
:103A3000A263B3F1FF3F18D1636AF3B104F124002C
:103A400000F076FCD8B1E6B10120306085F3118832
:103A500070BD4368002BD6D04FF0500383F311881C
:103A6000BFF36F8FBFF34F8FFEE701335BB284F874
:103A700045300120EAE70020E8E70120E6E70120E1
:103A8000E4E70120E2E700002DE9F04184B0019273
:103A900060B1044699B9026C8AB14FF0500383F3C8
:103AA0001188BFF36F8FBFF34F8FFEE74FF05003C6
:103AB00083F31188BFF36F8FBFF34F8FFEE71F466D
:103AC000884600F0D7FC50B9019B53B14FF050032A
:103AD00083F31188BFF36F8FBFF34F8FFEE700268C
:103AE0005FE000265DE0E66841462046FFF7B5FE50
:103AF000DFB9013DA563236813B900F01BFD6060C9
:103B0000236963B104F1100000F012FC38B1464B98
:103B10004FF080521A60BFF34F8FBFF36F8FFFF7E4
:103B2000ABFD012004B0BDE8F081E660636A002BC4
:103B3000F5D004F1240000F0FBFB0028EFD03A4B55
:103B40004FF080521A60BFF34F8FBFF36F8FE6E7DD
:103B5000FFF792FD0020E5E702A800F02FFC012608
:103B600029E0002384F8443031E0002384F8453014
:103B700033E0FFF75FFD606800F08CFCFFF77CFD31
:103B80003BE02046FFF77BFE00F088FA09E0204684
:103B9000FFF775FE00F082FA2046FFF751FE00287D
:103BA00040D1FFF747FDA56B002D9CD1019B002B59
:103BB000CED0002ED0D0FFF75FFD00F0DBF9FFF78D
:103BC00039FD94F844305BB2B3F1FF3FC9D094F8AB
:103BD00045305BB2B3F1FF3FC7D0FFF74DFD01A900
:103BE00002A800F001FC0028D1D12046FFF728FEF2
:103BF0000028C6D02368002BBBD0019904F1240013
:103C000000F07EFB2046FFF73AFE00F047FA00285E
:103C1000C7D1054B4FF080521A60BFF34F8FBFF3EF
:103C20006F8FBEE700207DE704ED00E0084B1B68C6
:103C30001B683BB1064B1B68DB68DB685A68054BA9
:103C40001A607047034B4FF0FF321A60704700BF95
:103C5000BC0C0020940D002010B50446006BFFF74B
:103C60005FFC2046FFF75CFC10BD2DE9F047804665
:103C70009946089D099F0A9C266B02F18042013AF1
:103C800006EB820626F0070600230F2B07D8C85C38
:103C9000E21882F83400CA5C0AB10133F5E7002368
:103CA00084F84330062D00D90625E56265644FF09F
:103CB000000AC4F848A0201D00F055FC04F11800CB
:103CC00000F051FC2461C5F10705A5616462C4F8E8
:103CD0004CA084F850A04A4641463046FFF782FC8B
:103CE000206007B13C60BDE8F087000038B50024D3
:103CF00007E004EB840293000E48184400F028FC0F
:103D00000134062CF5D90C4D284600F021FC0B4C53
:103D1000204600F01DFC0A4800F01AFC094800F09B
:103D200017FC094800F014FC084B1D60084B1C6090
:103D300038BD00BFC40C0020680D00207C0D0020A1
:103D40009C0D0020C80D0020B40D0020BC0C0020EC
:103D5000C00C002010B50446FFF76CFC204A136825
:103D6000013313601F4B1B685BB11F4B1B686BB9A2
:103D70001C4B1B68DA6AE36A9A4207D8194B1C602D
:103D800004E0184B1C601368012B26D0174A1368F7
:103D900001331360E36A01229A401549086802431F
:103DA0000A6003EB83039A00211D1248104400F0BF
:103DB000DDFBFFF761FC0C4B1B686BB1094B1B680B
:103DC000DA6AE36A9A4207D20B4B4FF080521A60CC
:103DD000BFF34F8FBFF36F8F10BDFFF787FFD5E79E
:103DE000500D0020B80C0020B00D0020600D002008
:103DF000640D0020C40C002004ED00E070B5044602
:103E00000E461D4B1D681D4B1868043000F0D4FB96
:103E100050B91A4B1B68DA6A012303FA02F21849F7
:103E20000B6823EA02030B60B4F1FF3F13D02C446C
:103E3000124B1B685C60A54216D8124B18680F4BDA
:103E40001968043100F09EFB0F4B1B68A34212D986
:103E50000D4B1C600FE0002EE9D0084B19680431AF
:103E60000A4800F083FB06E0094B1868034B196809
:103E7000043100F087FB70BDDC0D0020B80C002081
:103E8000640D0020BC0C0020940D0020B40D002017
:103E9000C00C00202DE9F04385B007468846154642
:103EA00099469000FFF7B8FAF8B106465420FFF79C
:103EB000B3FA0446A8B10663D4B100230393029475
:103EC0000D9B01930C9B00934B462A464146384676
:103ED000FFF7CBFE2046FFF73DFF012005B0BDE810
:103EE000F0833046FFF71CFBE6E74FF0FF30F5E7C5
:103EF0004FF0FF30F2E7000000B583B0174B01939D
:103F000000230093402216491648FFF7C3FF0128FB
:103F100005D0B0F1FF3F17D003B05DF804FB4FF0C0
:103F2000500383F31188BFF36F8FBFF34F8F0E4B96
:103F30004FF0FF321A600D4B01221A600C4B002229
:103F40001A60FFF703FCE7E74FF0500383F3118893
:103F5000BFF36F8FBFF34F8FFEE700BF900D0020C0
:103F60009457000839420008940D0020B00D00203D
:103F7000DC0D0020024A136801331360704700BF54
:103F80005C0D0020F8B53A4B1B68002B64D1394B0F
:103F90001D6801351D60C5B9374B1B681B6843B1EF
:103FA0004FF0500383F31188BFF36F8FBFF34F8F30
:103FB000FEE7314A1168314B186810601960304AC9
:103FC000136801331360FFF731FE2E4B1B68AB42C1
:103FD00038D900242C4B1B68DB6A03EB83039A005F
:103FE0002A4B9B58012B3CD901243AE00124224B57
:103FF0001B681B6843B3204B1B68DB68DE68736873
:104000009D4226D3371D384600F0D6FAB36A1BB15D
:1040100006F1180000F0D0FAF36A01229A401C4918
:10402000086802430A6003EB83039A003946174885
:10403000104400F09BFAF26A134B1B68DB6A9A4249
:10404000D4D2D4E70024D2E70E4B4FF0FF321A60EF
:10405000C0E70C4A1360BDE70E4A136801331360D2
:1040600000240D4B1B6803B101242046F8BD00BF9E
:104070005C0D0020DC0D0020BC0C0020C00C0020DA
:10408000980D0020940D0020B80C0020C40C0020D6
:10409000640D0020580D0020E00D002038B5334B92
:1040A0001B6843B94FF0500383F31188BFF36F8F40
:1040B000BFF34F8FFEE7FFF7BDFA2C4B1A68013AAA
:1040C0001A601B68002B4DD1294B1B6823B90024B3
:1040D000FFF7D2FA204638BD0024264B1B681BB3DD
:1040E000244BDB68DC6804F1180000F065FA251D3C
:1040F000284600F061FAE36A01229A401E490868E6
:1041000002430A6003EB83039A0029461B481044CC
:1041100000F02CFAE26A1A4B1B68DB6A9A42DCD385
:10412000184B01221A60D8E70CB1FFF77FFD164B40
:104130001C6854B1FFF726FF10B1124B01221A6020
:10414000013CF7D1104B00221A600E4B1B685BB18B
:104150000E4B4FF080521A60BFF34F8FBFF36F8F3B
:104160000124B5E70024B3E70024B1E75C0D00208B
:10417000500D00209C0D0020640D0020C40C002078
:10418000B80C0020E00D0020580D002004ED00E0E8
:1041900010B5A8B104460F4B1B6843B14FF0500354
:1041A00083F31188BFF36F8FBFF34F8FFEE7FFF7E5
:1041B000E1FE00212046FFF721FEFFF76FFF38B92F
:1041C000054B4FF080521A60BFF34F8FBFF36F8FD4
:1041D00010BD00BF5C0D002004ED00E0134B1B6818
:1041E00013B310B5FFF7C6FE114B1C68FFF756FF5F
:1041F00024B90E4B1B68002BF4D110BDFFF71AFA3F
:104200000B4BDB68DC68201D00F0D6F9094A136807
:10421000013B1360054A1368013B1360FFF72CFA5A
:104220002046FFF719FDE4E7704700BF540D00205A
:10423000C80D0020500D002008B501E0FCF7BCFAC5
:10424000FFF7CCFF064B1B68012BF7D9054B4FF04E
:1042500080521A60BFF34F8FBFF36F8FEEE700BF3E
:10426000C40C002004ED00E0204B1B681BB1204B68
:1042700001221A6070471E4B00221A601D4B1B68FA
:10428000B3FA83F3DBB2C3F11F0303EB83018A00AC
:1042900019498A5842B94FF0500383F31188BFF38C
:1042A0006F8FBFF34F8FFEE710B413489A00D418F6
:1042B000A10001444C6864684C601A4491000831C4
:1042C000084484420AD003EB83039A000A4B134448
:1042D0005B68DA68094B1A6010BC70476168064871
:1042E000142202FB03025160EDE700BF5C0D0020C9
:1042F000E00D0020640D0020C40C0020B80C00204C
:1043000040B94FF0500383F31188BFF36F8FBFF3B1
:104310004F8FFEE710B50C46044B1968183100F0BA
:1043200031F901212046FFF769FD10BDB80C0020CE
:1043300038B5C368DC6844B94FF0500383F3118883
:10434000BFF36F8FBFF34F8FFEE704F118052846C8
:1043500000F032F9134B1B68E3B9251D284600F025
:104360002BF9E36A01229A400F49086802430A6068
:1043700003EB83039A0029460C48104400F0F6F83A
:10438000E26A0B4B1B68DB6A9A4208D90120094B91
:10439000186038BD2946084800F0E8F8F0E700202A
:1043A000F7E700BF5C0D0020640D0020C40C002066
:1043B000B80C0020E00D00209C0D002030B1084A10
:1043C00012680260074A1268426070474FF050035B
:1043D00083F31188BFF36F8FBFF34F8FFEE700BFEA
:1043E000980D0020DC0D002038B550B1044689B985
:1043F0004FF0500383F31188BFF36F8FBFF34F8FDC
:10440000FEE74FF0500383F31188BFF36F8FBFF3C4
:104410004F8FFEE70D46FFF70DF9114B19682B681A
:10442000B3F1FF3F18D020680E4A1268904202D0C4
:1044300062688A4212D96268881A834204D80124C9
:10444000FFF71AF9204638BD521A13442B60204654
:10445000FFF7B4FF0024F3E70024F1E70124EFE7BE
:10446000DC0D0020980D0020014B01221A607047DE
:10447000E00D0020054B1B6833B1054B1B680BB1E9
:10448000002070470220704701207047B00D0020C7
:104490005C0D0020002845D038B50446C26A224988
:1044A0000968C96A8A4214D28169002905DB1E495C
:1044B0000968C96AC1F107018161606902EB820282
:1044C00091001A4A0A44904204D0174A1268D26AEC
:1044D000E26238BD251D284600F06EF890B1124BFF
:1044E0001B68DB6AE36201229A40114908680243B3
:1044F0000A6003EB83039A0029460C48104400F03D
:1045000035F8E6E7E36A03EB83018A0007498A5836
:10451000002AE4D101229A4005490B6823EA0203EC
:104520000B60DCE7704700BFB80C0020C40C002013
:10453000640D0020054B1B6823B1044B1A68936C73
:1045400001339364014B1868704700BFB80C00201A
:1045500000F1080343604FF0FF328260C3600361E3
:1045600000230360704700230361704743684B607A
:104570009A688A609A68516099600861036801339B
:104580000360704730B40D68B5F1FF3F02D000F111
:10459000080202E0026904E01A4653681C68AC4253
:1045A000FAD953684B6099608A605160086103686A
:1045B0000133036030BC70470369426881689160D1
:1045C0008268416851605A68824205D000220261C7
:1045D000186801381860704782685A60F6E78428C6
:1045E00001D0033070470020704708B5FFF784FC06
:1045F000002008BDF0B585B00F464468056806691F
:10460000B0F90800FFF7EBFF03AB019300903B46C6
:10461000B2B229462046FFF73DFC012802D103989B
:1046200005B0F0BD0020FBE708B5034600B9012343
:104630001846FFF7ADFD002008BD08B5FFF71AFFCB
:10464000012801D0FFF756F808BD0000002103E063
:104650000B4B5B58435004310A480B4B42189A42AB
:10466000F6D30A4A02E0002342F8043B084B9A4280
:10467000F9D3FEF74FFE00F00FF8FBF7A7FE7047E7
:104680003C5800080000002070000020700000204E
:1046900084140020FEE7000070B500250C4E0D4C80
:1046A000A41BA410A54209D100F0B6FF00250A4EB4
:1046B0000A4CA41BA410A54205D170BD56F82530A4
:1046C00098470135EEE756F8253098470135F2E76F
:1046D0003458000834580008345800083858000886
:1046E00010B5431E0A44914200D110BD11F8014B90
:1046F00003F8014FF7E703460244934200D17047A5
:1047000003F8011BF9E700000FB40A4B13B51C684E
:1047100024B1A36913B9204600F022FA05AB049A2C
:10472000A1682046019300F0D7FB02B0BDE810401D
:1047300004B070470C00002070B50E46054618B155
:1047400083690BB900F00CFAAB69AC6813B9284661
:1047500000F006FA234B9C4217D16C68A3891B0713
:104760001DD52369DBB1013EA36816F8011F013B8B
:10477000A360E9B9002B2EDA22460A21284600F070
:104780003FF8013011D00A2011E0174B9C4201D1B3
:10479000AC68E3E7154B9C4208BFEC68DEE72146B6
:1047A000284600F07FF80028DDD04FF0FF3070BDC4
:1047B000002B04DAA2699A4206DC0A2904D0236895
:1047C0005A1C22601970CFE72246284600F018F8DC
:1047D0000130C9D1E9E70A2023685A1C2260187009
:1047E000E5E700BFC0570008E0570008A0570008E1
:1047F000024B01461868FFF79FBF00BF0C00002066
:10480000F8B50E461446054618B183690BB900F099
:10481000A7F9214B9C422AD16C68A369A360A389A4
:104820001A072ED5236963B323692068F6B2C01A2C
:1048300063693746834204DC2146284600F026F9A6
:1048400028BBA3680130013BA36023685A1C226087
:104850001E706369834204D0A389DB0719D50A2E31
:1048600017D12146284600F011F990B10FE00B4B0B
:104870009C4201D1AC68D0E7094B9C4208BFEC6870
:10488000CBE72146284600F00DF80028CCD04FF0A9
:10489000FF373846F8BD00BFC0570008E057000892
:1048A000A0570008324B70B51D6806460C4625B16E
:1048B000AB6913B9284600F053F92E4B9C420FD137
:1048C0006C68B4F90C309AB215072CD4D00611D408
:1048D0000922326043F04003A3814FF0FF303EE0F5
:1048E000254B9C4201D1AC68EBE7244B9C4208BFAE
:1048F000EC68E6E7510712D5616B41B104F144035E
:10490000994202D0304600F019FA00236363A3896C
:1049100023F02403A3810023636023692360A38918
:1049200043F00803A38123694BB9A38903F42073DF
:10493000B3F5007F03D02146304600F0BFF9A289CD
:1049400012F001030CD00023A36063695B42A361F2
:10495000236953B9B4F90C3013F08000BAD170BD9B
:10496000920758BF6369A360F2E70020F7E700BF32
:104970000C000020C0570008E0570008A0570008AE
:104980008A892DE9F041054610070C4658D44B683A
:10499000002B05DC0B6C002B02DC0020BDE8F08155
:1049A000E66A002EF9D0002312F480522F68216AA3
:1049B0002B6032D0606DA3895A0705D56368C01A91
:1049C000636B0BB1236CC01A00230246E66A216AAE
:1049D0002846B047431CA38906D129681D2948D819
:1049E000294ACA40D60744D5002262602269D90408
:1049F000226004D5421C01D12B6803B96065616B4C
:104A00002F600029C9D004F14403994202D02846FE
:104A100000F094F900206063C0E701232846B04706
:104A2000411CC8D12B68002BC5D01D2B01D0162BE3
:104A300001D12F60B1E7A38943F04003A381ADE723
:104A40000F69002FA9D0930718BF00230E6808BF75
:104A50004B69A6EB07080F608B60B8F1000F9CDD77
:104A600043463A46216A2846A66AB047002806DC33
:104A7000A38943F04003A3814FF0FF308EE7074442
:104A8000A8EB0008E9E700BF0100402038B50B693A
:104A900005460C46DBB118B183690BB900F060F82C
:104AA0000C4B9C4209D16C68B4F90C307BB12146A7
:104AB0002846BDE83840FFF763BF074B9C4201D151
:104AC000AC68F1E7054B9C4208BFEC68ECE70020BE
:104AD00038BD00BFC0570008E0570008A0570008C5
:104AE000002310B50446C0E900338360818143662A
:104AF000C281C0E904338361194608225C30FFF7A4
:104B0000FAFD054B24626362044BA362044BE3622B
:104B1000044B236310BD00BF3554000857540008F0
:104B20008F540008B3540008014900F085B800BF55
:104B30008D4A000870B568254A1E55430E4605F19A
:104B4000740100F047F9044640B10021C0E90016A5
:104B50000C30A06005F16802FFF7CDFD204670BD66
:104B6000836910B5044633BBC0E912330365124BA9
:104B7000124A1B688262984204BF0123836100F0DD
:104B80001FF86060204600F01BF8A060204600F08F
:104B900017F80022E06004216068FFF7A1FF0122FE
:104BA0000921A068FFF79CFF02221221E068FFF7AD
:104BB00097FF0123A36110BD9C570008294B0008F3
:104BC000F8B51B4B07461E68B36913B93046FFF7AB
:104BD000C7FF4836D6E90134013B03D5336833B10A
:104BE0003668F7E7B4F90C506DB16834F4E7042186
:104BF0003846FFF79FFF30600028F1D10C230446B0
:104C00003B602046F8BD0B4B6566C4E90055A560C6
:104C1000C4E90335C4E905550822294604F15C00BE
:104C2000FFF769FDC4E90D55C4E91255E9E700BF76
:104C30009C5700080100FFFF2DE9F8438046894694
:104C4000002600F1480414B93046BDE8F883D4E9E1
:104C50000175013F01D52468F5E7AB89012B07D920
:104C6000B5F90E30013303D029464046C847064304
:104C70006835EEE770B50E46B1F90E1096B0002912
:104C800014461D4607DA00232B60B3891A0610D498
:104C90004FF480630EE06A4600F032FC0028F2DB3D
:104CA000019A02F47042A2F500535A425A412A6016
:104CB000EEE740230020236016B070BD8B8973B5EA
:104CC0009D0706460C4607D504F147032360236180
:104CD0000123636102B070BD01AB6A46FFF7CAFFF2
:104CE00000990546304600F075F848B9B4F90C3023
:104CF0009A05EFD423F0030343F00203A381E3E713
:104D00000D4BB362A389206043F08003A381009B15
:104D100020616361019B5BB1B4F90E10304600F075
:104D200001FC28B1A38923F0030343F00103A3810D
:104D3000A3891D43A581CDE7294B000838B5054659
:104D4000002943D051F8043C0C1F002BB8BFE418D5
:104D500000F018FC1E4A1368104633B963601460F3
:104D60002846BDE8384000F00EBCA3420BD92168AC
:104D70006218934201BF1A685B6852182260636030
:104D80000460EDE713465A680AB1A242FAD91968DD
:104D90005818A0420BD1206801445818824219606B
:104DA000DED110685268014419605A60D8E702D910
:104DB0000C232B60D4E7206821188A4201BF1168B8
:104DC00052680918216062605C60C9E738BD00BFA5
:104DD000E40D002070B5CD1C25F0030508350C2D21
:104DE00038BF0C25002D064601DBA94203D90C2350
:104DF0003360002070BD00F0C5FB214A14682146D5
:104E000091B9204C23681BB9304600F003FB2060A9
:104E10002946304600F0FEFA431C24D10C233046CC
:104E2000336000F0B0FBE4E70B685B1B18D40B2B7E
:104E30000FD90B60CC18CD50304600F0A4FB04F124
:104E40000B00231D20F00700C31AD3D05A42E250B2
:104E5000D0E74B688C4216BF636013600C46EBE7EB
:104E60000C464968CCE7C41C24F00304A04205D0DA
:104E7000211A304600F0CEFA0130CFD02560DBE7B2
:104E8000E40D0020E80D0020936810B4013B002BD6
:104E9000936007DA9469A34201DB0A2902D110BCAE
:104EA000FFF7AEBC1368581C10601970084610BCA0
:104EB0007047F8B506460F461446D518AC4201D1E6
:104EC000002007E03A4614F8011B3046FFF7DCFFEC
:104ED000431CF3D1F8BD00002DE9F04F0C469DB006
:104EE00017461D46064618B183690BB9FFF738FE11
:104EF0007C4B9C4258D17468A38918075ED52369FE
:104F0000002B5BD00023099320238DF82930302318
:104F10004FF0010B8DF82A300395B846454615F839
:104F2000013B0BB1252B54D1B8EB070A0BD05346EC
:104F30003A4621463046FFF7BCFF013000F0C28000
:104F4000099B5344099398F80030002B00F0BA8075
:104F500000234FF0FF32CDE90523049307938DF82A
:104F600053301A93A846052218F8011B5E4800F03A
:104F7000FBFA049B78BBD90644BF20228DF853204E
:104F80001A0744BF2B228DF853202A782A2A2AD0C8
:104F9000A84600200A25079A414611F8013B303BFC
:104FA000092B69D960B324E0504B9C4201D1B4680D
:104FB000A2E74F4B9C4208BFF4689DE7214630466C
:104FC000FFF770FC00289DD04FF0FF301DB0BDE80A
:104FD000F08FA846A2E7444A4546801A0BFA00F033
:104FE00018430490BEE7039A111D12680391002A2A
:104FF00001DB079204E0524243F00203079204935C
:1050000098F800302E2B0ED198F801302A2B38D189
:10501000039B08F102081A1D1B680392002BB8BFFE
:105020004FF0FF330593334D032298F800102846C4
:1050300000F09AFA40B14023401B03FA00F0049BB1
:1050400008F101080343049398F8001006222A4847
:1050500008F101078DF8281000F086FA002837D0F3
:10506000264B1BBB039B073323F007030833039333
:10507000099B4B44099350E705FB02320120884607
:105080008AE700230A25194608F1010805934046DE
:1050900010F8012B303A092A03D9002BC3D005910F
:1050A000C1E705FB012101238046F0E703AB009334
:1050B0002246134B04A93046AFF30080B0F1FF3F06
:1050C0008146D5D1A3895B063FF57EAF09987DE780
:1050D00003AB009322460A4B04A9304600F088F83F
:1050E000ECE700BFC057000800580008E057000870
:1050F000A0570008065800080A58000800000000E1
:10510000B34E00082DE9F04791461F468A680B69A7
:1051100006469342B8BF1346C9F8003091F84320C1
:105120000C46DDF8208012B10133C9F80030236845
:10513000990642BFD9F800300233C9F8003025681B
:1051400015F0060507D104F1190AE368D9F8002023
:105150009B1AAB4229DC94F843302268003318BF15
:10516000012392062ED404F1430239463046C0474B
:10517000013021D02368E56803F00603042B18BF33
:105180000025D9F800204FF0000908BFAD1AA36828
:10519000226908BF25EAE5759342C4BF9B1AED1842
:1051A0001A344D451AD1002008E0012352463946F1
:1051B0003046C047013003D14FF0FF30BDE8F087E3
:1051C0000135C2E73020E11881F843005A1C94F8F9
:1051D00045102244023382F84310C4E701232246DB
:1051E00039463046C0470130E6D009F10109D8E719
:1051F0002DE9F04301F1430C0C46097E85B06E2980
:105200001746064698460C9A00F0B38022D86329C8
:1052100036D00AD8002900F0B980582900F08380E0
:1052200004F1420584F8421032E0642901D0692972
:10523000F6D120681368050603F104012AD51B681E
:105240001160002B03DA2D225B4284F843206F4863
:105250000A2239E0732900F09D8008D86F2920D0F8
:105260007029DDD1236843F02003236003E0752912
:1052700017D07829D4D17823654884F8453055E093
:10528000136804F14205191D1B68116084F842304F
:1052900001238CE01B6810F0400F116018BF1BB297
:1052A000CFE713682568181D1060280601D51B6814
:1052B00002E06806FBD51B886F2914BF0A2208226A
:1052C0005248002184F843106568002DA560C0F2A3
:1052D0009580216821F004012160002B3DD1002D33
:1052E00040F08E806546082A0BD12368DB0708D57D
:1052F000236962689A42DEBF302305F8013C05F15C
:10530000FF35ACEB05032361CDF800803B4603AAD3
:1053100021463046FFF7F6FE01304DD14FF0FF3009
:1053200005B0BDE8F083394884F84510136821685A
:105330001D1D1B6815600A060BD5CA0744BF41F046
:10534000200121601BB9226822F020022260102275
:10535000B7E74D0648BF9BB2EFE76546B3FBF2F1F6
:1053600002FB1133C35C05F8013D0B460029F5D162
:10537000B9E713682568181D6169106028061B6865
:1053800001D5196002E06A06FBD519800023654645
:105390002361B9E71368191D11601D686268002157
:1053A000284600F0E1F808B1401B606063682361A3
:1053B000002384F84330A7E723692A46394630465C
:1053C000C0470130AAD023689B0713D4E068039B31
:1053D0009842B8BF1846A3E701234A4639463046EB
:1053E000C04701309AD00135E368039A9B1AAB425B
:1053F000F2DCEBE7002504F11909F5E7002BACD14D
:10540000037804F1420584F842306CE71158000833
:105410002258000838B50023054C0546084623608D
:1054200000F0ECF8431C02D1236803B12B6038BDB7
:105430008014002010B50C46B1F90E1000F0A4F84D
:105440000028ABBF636DA3891B1823F48053ACBF46
:105450006365A38110BD2DE9F0411F468B89054688
:10546000DB050C46164605D502230022B1F90E10C5
:1054700000F068F8A389324623F48053A381B4F97D
:105480000E103B462846BDE8F04100F017B810B5B5
:105490000C46B1F90E1000F055F8431CA38915BF56
:1054A000606523F4805343F48053A38118BFA38124
:1054B00010BDB1F90E1000F013B8000038B5054664
:1054C000084611460022054C22601A46FAF7C0FE33
:1054D000431C02D1236803B12B6038BD8014002027
:1054E00038B50023054C05460846236000F05EF8F9
:1054F000431C02D1236803B12B6038BD8014002007
:1055000038B50023064C054608461146236000F0D6
:1055100055F8431C02D1236803B12B6038BD00BF8E
:105520008014002038B50023054C0546084623604A
:1055300000F04CF8431C02D1236803B12B6038BD46
:105540008014002038B50546084611460022054C57
:1055500022601A4600F042F8431C02D1236803B1CE
:105560002B6038BD8014002010B5C9B202449042AF
:10557000034601D1002303E01C7801308C42F6D1B0
:10558000184610BD7047704738B5054608461146A5
:105590000022054C22601A4600F028F8431C02D174
:1055A000236803B12B6038BD801400205822024BC1
:1055B0004FF0FF301A607047801400205822024BD1
:1055C0004FF0FF301A607047801400205822024BC1
:1055D00000201A60704700BF801400205822024B40
:1055E0004FF0FF301A607047801400205822024BA1
:1055F0004FF0FF301A60704780140020044A0549BC
:105600001368002B08BF0B461844106018467047FB
:10561000EC0D002088140020F8B500BFF8BC08BCD1
:105620009E467047F8B500BFF8BC08BC9E46704760
:105630003C570008010600080000000001000000BF
:105640004000000002030405060708090A0B0C0DC0
:105650000E0F101001020000436F72652F5372632A
:105660002F6D61696E2E6300436F72652F537263F5
:105670002F6164632E6300007363616E5561727401
:10568000735461736B000000205363616E20436F9D
:10569000726520426F617264205461736B204372A3
:1056A00065617465204F4B21200D000057656C63C8
:1056B0006F6D6520746F20555345204672656552A5
:1056C000544F53200D00000042535041426F61720D
:1056D0006452785F4C656E203D20253033640A208B
:1056E00025730D0A0000000042535042426F617260
:1056F0006452785F4C656E203D20253033640A206B
:1057000025730D0A00000000436F7265426F6172DD
:105710006452785F4C656E203D20253033640A204A
:1057200025730D0A000000005363616E20556172FD
:105730007473205461736B0D000000006465666132
:10574000756C745461736B00436F72652F53726391
:105750002F7370692E630000436F72652F5372635D
:105760002F74696D2E630000436F72652F5372634F
:105770002F75736172742E6300000000000000003A
:1057800000000000010203040607080900000000F1
:105790000102030449444C450000000010000020B1
:1057A00000000000000000000000000000000000F9
:1057B00000000000000000000000000000000000E9
:1057C00000000000000000000000000000000000D9
:1057D00000000000000000000000000000000000C9
:1057E00000000000000000000000000000000000B9
:1057F00000000000000000000000000000000000A9
:10580000232D302B2000686C4C00656667454647A9
:10581000003031323334353637383941424344452C
:10582000460030313233343536373839616263649B
:0458300065660000A9
:045834001502000851
:04583800F101000872
:10583C000100000000A24A04AAAAAAAA1000002093
:10584C0000000000C0570008E0570008A0570008EF
:10585C00000000000000000000000000000000003C
:10586C00000000000000000000000000000000002C
:10587C00000000000000000000000000000000001C
:10588C00000000000000000000000000000000000C
:10589C0000000000000000000000000000000000FC
:040000050800464D5C
:00000001FF
