:020000040800F2
:1000000000C00020D9350008F90A0008FB0A0008E2
:10001000FD0A0008FF0A0008010B000800000000AC
:100020000000000000000000000000005131000846
:10003000030B00080000000081310008050B0008D8
:100040002136000821360008213600082136000834
:100050002136000821360008213600082136000824
:1000600021360008213600080D0B0008190B000886
:1000700021360008290B000821360008390B00083A
:10008000490B0008213600082136000821360008F7
:1000900021360008213600082136000821360008E4
:1000A00021360008590B00082136000821360008C7
:1000B0002136000821360008690B000821360008A7
:1000C00021360008213600082136000821360008B4
:1000D00021360008790B0008250C0008D10C000817
:1000E0002136000821360008213600082136000894
:1000F0002136000821360008213600082136000884
:1001000021360008213600087D0D00082136000840
:100110002136000821360008213600082136000863
:100120002136000821360008213600082136000853
:1001300000000000000000000000000000000000BF
:1001400000000000000000000000000000000000AF
:10015000000000000000000000000000000000009F
:10016000000000000000000000000000000000008F
:10017000000000000000000000000000000000007F
:10018000000000000000000000000000000000006F
:10019000000000000000000000000000000000005F
:1001A000000000000000000000000000000000004F
:1001B000000000000000000000000000000000003F
:1001C000000000000000000000000000000000002F
:1001D000000000000000000000000000000000001F
:0401E0005FF8E0F1F3
:1001F00010B5054C237833B9044B13B10448AFF361
:1002000000800123237010BD0800002000000000C2
:100210009436000808B5034B1BB103490348AFF3FC
:10022000008008BD000000000C000020943600088B
:1002300008B5002205210A2002F0FAFE0A2002F089
:100240002BFF002205211E2002F0F2FE1E2002F0EC
:1002500023FF00220521322002F0EAFE322002F0C4
:100260001BFF00220521252002F0E2FE252002F0DE
:1002700013FF00220521262002F0DAFE262002F0DC
:100280000BFF00220521272002F0D2FE272002F0DA
:1002900003FF002205210D2002F0CAFE0D2002F00E
:1002A000FBFE002205210F2002F0C2FE0F2002F00B
:1002B000F3FE00220521102002F0BAFE102002F009
:1002C000EBFE002205210B2002F0B2FE0B2002F013
:1002D000E3FE08BD08B50268034B9A4200D008BD92
:1002E00001F0B8FEFBE700BF002C0140FEE7000074
:1002F00000B597B001220C924FF480330D9300218A
:100300000E9110920222139214934FF4E01315935E
:100310000CA801F0DBFE50BB0F23079302210891CC
:10032000002309934FF480620A920B9307A802F00E
:10033000F3F800BB022301934FF40043039301A899
:1003400002F0EAF9D8B902F0A3F90F4BA3FB003091
:10035000800902F0ADFE042002F0C0FE00220F2151
:100360004FF0FF3002F064FE17B05DF804FBB421DB
:100370000648FFF7BBFFC2210448FFF7B7FFC921BA
:100380000248FFF7B3FF00BFD34D6210C03600082C
:1003900008B501F04DFEFFF7ABFF00F023F800F0C9
:1003A00007F900F081FA00F09DFA00F0B9FA00F0C8
:1003B0000FF900F07BF800F023FA00F059F900F093
:1003C0008FF9FFF735FF0F230B220449044801F092
:1003D000F1FB4FF47A7001F04FFEF4E7D0360008DD
:1003E000440500202DE9F04188B02C4B9A6942F079
:1003F00010029A619A6902F010020092009A9A69BA
:1004000042F020029A619A6902F020020192019A58
:100410009A6942F004029A619A6902F00402029217
:10042000029A9A6942F008029A619B6903F00803F4
:100430000393039B1A4D002242F24301284602F027
:10044000EDFA184E002243F26021304602F0E6FA3F
:1004500042F2430304934FF00108CDF814800024C6
:1004600006940227079704A9284602F0DFF9102313
:1004700004930D4B0593069404A9284602F0D6F97F
:1004800043F260230493CDF814800694079704A9DF
:10049000304602F0CBF908B0BDE8F0810010024010
:1004A00000100140000C01400000111000B585B0A3
:1004B0001B481C4B03604FF4807383600023C360B0
:1004C00043614FF46022C26143600223036100F084
:1004D000ABFDB0B90C2301930123029307230393CF
:1004E00001A90F4800F0DEFC80B91023019302231C
:1004F000029301A90A4800F0D5FC60B905B05DF887
:1005000004FB4F210848FFF7F1FEE3E759210648B5
:10051000FFF7ECFEE9E762210348FFF7E7FEEDE7AE
:100520000401002000240140E036000802681B4B53
:100530009A4200D0704710B586B0044603F56C436C
:100540009A6942F400729A619B6903F40073019303
:10055000019B042302930323039302A9104802F092
:1005600065F91048104B03600023436083608022CC
:10057000C2604FF4007202614FF400624261836115
:10058000C36102F077FA20B9064B23625C6206B0C1
:1005900010BD86210548FFF7A9FEF5E700240140BC
:1005A000001001403401002008000240E03600083D
:1005B00082B0064B5A6942F001025A615B6903F04E
:1005C00001030193019B02B0704700BF001002407D
:1005D00008B50E480E4B03604FF48273436000234E
:1005E0008360C3600361436183611022C26103625F
:1005F000436283620A23C36200F0ACFD00B908BD08
:100600004F210448FFF772FEF9E700BF9801002070
:1006100000300140F03600080268134B9A4200D0C7
:10062000704710B586B003F560439A6942F4805272
:100630009A619B6903F480530193019B50230293B9
:10064000002303930493094C02A9204602F0EEF81C
:10065000A0230293022303930323059302A92046B8
:1006600002F0E4F806B010BD00300140000801407F
:1006700000B587B01748184B0360002343608360C0
:10068000C3600361836101F011F898B906A94FF4C2
:10069000805341F8103D0F4800F077FE78B90023F1
:1006A0000093019369460B4801F0D8F860B907B090
:1006B0005DF804FB7B210948FFF718FEE6E781217E
:1006C0000648FFF713FEEAE788210448FFF70EFE0D
:1006D000EDE700BFF00100200008004000370008EF
:1006E00000B587B01748184B036000234360836050
:1006F000C3600361836100F0D9FF98B906A94FF484
:10070000805341F8103D0F4800F03FFE78B90023B8
:100710000093019369460B4801F0A0F860B907B057
:100720005DF804FB9A210948FFF7E0FDE6E7A02108
:100730000648FFF7DBFDEAE7A7210448FFF7D6FDEF
:10074000EDE700BF30020020000C00400037000839
:1007500084B00368154A934207D0154A93420FD0DC
:10076000144A934217D004B07047134BDA6942F031
:100770000202DA61DB6903F002030193019BF2E7F5
:100780000D4BDA6942F00402DA61DB6903F004031D
:100790000293029BE7E7084BDA6942F00802DA614C
:1007A000DB6903F008030393039BDCE700040040CC
:1007B00000080040000C00400010024002680D4B91
:1007C0009A4200D0704700B585B0102300930223F1
:1007D000019303936946084802F028F8074A5368D2
:1007E00023F4406343F0E06343F40063536005B0D7
:1007F0005DF804FB00040040000C014000000140D3
:1008000000B58FB02548264B03600023436083600A
:10081000C3600361836100F049FF28BB0EA94FF458
:10082000805341F8103D1D4800F0AFFD08BB1B4848
:1008300000F055FF10BB00230893099308A917483F
:1008400001F00CF8F8B960230193002202920392A0
:10085000059201A9114800F093FFC8B90F48FFF7AE
:10086000ADFF0FB05DF804FB4C210E48FFF73EFDD5
:10087000D4E752210B48FFF739FDD8E75721094843
:10088000FFF734FDD7E75E210648FFF72FFDDAE7D3
:1008900067210448FFF72AFDE0E700BF700200204F
:1008A000000400400037000808B50B480B4B0360FC
:1008B0004FF4E133436000238360C36003610C2283
:1008C00042618361C36101F046F900B908BD5E2150
:1008D0000348FFF70BFDF9E744050020003801400D
:1008E0001037000808B50B480B4B03604FF4E13399
:1008F000436000238360C36003610C224261836113
:10090000C36101F028F900B908BD71210348FFF760
:10091000EDFCF9E790060020004400401037000885
:1009200008B50B480B4B03604FF4E13343600023E1
:100930008360C36003610C2242618361C36101F083
:100940000AF900B908BD84210348FFF7CFFCF9E795
:1009500038040020004800401037000870B588B007
:1009600004460368574A934207D0574A93423BD004
:10097000564A93426DD008B070BD554B9A6942F407
:1009800080429A619B6903F480430193019B4FF479
:100990000073049302230593032307934D4E04A988
:1009A000304601F043FF4FF4806304930025059522
:1009B000069504A9304601F039FF4748474B0360CC
:1009C000456085608023C360056145618561C561BF
:1009D00002F050F818B9404B63635C62CBE7AF217B
:1009E0003F48FFF783FCF6E7394BDA6942F40032FF
:1009F000DA61DB6903F400330293029B042304935E
:100A00000223059303230793324E04A9304601F0D5
:100A10000DFF0823049300250595069504A930468B
:100A200001F004FF2F48304B036045608560802350
:100A3000C360056145618561C56102F01BF818B9A5
:100A4000284B63635C6296E7DA212548FFF74EFC8A
:100A5000F6E71F4BDA6942F48022DA61DB6903F4BE
:100A600080230393039B4FF4806304930223059335
:100A7000032307931D4E04A9304601F0D7FE4FF41F
:100A80000063049300250595069504A9304601F0FE
:100A9000CDFE1748174B0360456085608023C36017
:100AA000056145618561C56101F0E4FF18B9104B2E
:100AB00063635C625FE740F205110948FFF716FCCB
:100AC000F5E700BF00380140004400400048004006
:100AD00000100240000801400005002058000240BC
:100AE00010370008300300206C000240000C014069
:100AF000F4030020300002407047FEE7FEE7FEE707
:100B0000FEE7704708B502F05EFD08BD08B510208D
:100B100001F08CFF08BD000008B5024802F000F9A2
:100B200008BD00BF3401002008B5024802F0F8F803
:100B300008BD00BFF403002008B5024802F0F0F839
:100B400008BD00BF0005002008B5024802F0E8F823
:100B500008BD00BF3003002008B5024800F09DFC2E
:100B600008BD00BF5007002008B5024800F095FC02
:100B700008BD00BFF0010020F0B583B0204B1B681A
:100B80001B6813F0100F14D11D4801F0B9F91D4C6A
:100B900021461D4B186802F059FB23683BB11B4BE3
:100BA0004FF080521A60BFF34F8FBFF36F8F03B0C7
:100BB000F0BD134D284601F0C1F8154B1B685C6869
:100BC000002701972B681A6801925B680193019BCB
:100BD000C4F18004E4B20F4B1C700F4E2246314624
:100BE0000E4802F043FD22463946304602F049FDE8
:100BF0000B4B1F7080223146284601F04BF8C3E7AB
:100C000044050020240000208401002004ED00E0C1
:100C10000005002084050020880500207C040020B9
:100C200078040020F0B583B0204B1B681B6813F0DC
:100C3000100F14D11D4801F063F91D4C21461D4BC6
:100C4000186802F003FB23683BB11B4B4FF0805246
:100C50001A60BFF34F8FBFF36F8F03B0F0BD134D1A
:100C6000284601F06BF8154B1B685C68002701975C
:100C70002B681A6801925B680193019BC4F18004A0
:100C8000E4B20F4B1C700F4E224631460E4802F064
:100C9000EDFC22463946304602F0F3FC0B4B1F7048
:100CA00080223146284600F0F5FFC3E79006002079
:100CB000280000209401002004ED00E03003002013
:100CC00008060020B00200200C0600208C06002040
:100CD000F0B583B0204B1B681B6813F0100F14D1C4
:100CE0001D4801F00DF91D4C21461D4B186802F0FE
:100CF000ADFA23683BB11B4B4FF080521A60BFF333
:100D00004F8FBFF36F8F03B0F0BD134D284601F036
:100D100015F8154B1B685C68002701972B681A684B
:100D200001925B680193019BC4F18004E4B20F4B14
:100D30001C700F4E224631460E4802F097FC2246A8
:100D40003946304602F09DFC0B4B1F708022314625
:100D5000284600F09FFFC3E7380400202C00002045
:100D60008801002004ED00E0F4030020FC040020D2
:100D7000D0060020740300208505002008B5024835
:100D800000F08BFB08BD00BF3002002000B583B02F
:100D9000244B9A6942F001029A619A6902F00102B9
:100DA0000092009ADA6942F08052DA61DB6903F05E
:100DB00080530193019B032002F028F90022114681
:100DC0006FF00B0002F034F9002211466FF00A00B8
:100DD00002F02EF9002211466FF0090002F028F906
:100DE000002211466FF0040002F022F900221146A1
:100DF0006FF0030002F01CF900220F216FF00100D8
:100E000002F016F900220F214FF0FF3002F010F926
:100E1000054A536823F0E06343F00073536003B066
:100E20005DF804FB001002400000014000B589B0ED
:100E300000220146192002F0FBF8192002F02CF9DB
:100E4000144B9A6942F400629A619B6903F400634F
:100E50000193019B02A903A801F040FC01F02EFCC4
:100E60000D4BA3FB00239B0C013B0C480C4A02607A
:100E700040F2E732C260436000230361836000F008
:100E800015FC18B1012009B05DF804FB034800F01F
:100E90006FFAF8E70010024083DE1B435007002082
:100EA000002C014030B482B00023019390F824302C
:100EB000012B00F08B800246012380F824304B6820
:100EC000062B29D80568686B03EB8303053B1F24B9
:100ED0009C4020EA04000C6804FA03F303436B63AC
:100EE0000B68092B38D91568E86803EB43031E3BF0
:100EF00007249C4020EA04008C6804FA03F30343AF
:100F0000EB600B68103B012B34D90020002382F8E2
:100F1000243002B030BC70470C2B0ED80568286B0B
:100F200003EB8303233B1F249C4020EA04000C684E
:100F300004FA03F303432B63D2E70568E86A03EB83
:100F40008303413B1F249C4020EA04000C6804FA00
:100F500003F30343EB62C3E71568286903EB43031C
:100F600007249C4020EA04008C6804FA03F303433E
:100F70002B61C6E713681648834205D0936A43F095
:100F8000200393620120C1E7986810F4000F1BD181
:100F9000986840F4000098600B68102B01D0002086
:100FA000B4E70C4B1B680C49A1FB03139B0C03EB30
:100FB00083035900019102E0019B013B0193019BD6
:100FC000002BF9D10020A1E700209FE70220A0E735
:100FD000002401400400002083DE1B4338B5036871
:100FE0009A6812F0010F01D1002038BD04469A68BA
:100FF00022F001029A6001F039F8054623689B68E7
:1010000013F0010F0ED001F031F8401B0228F5D982
:10101000A36A43F01003A362E36A43F00103E362AF
:101020000120E2E70020E0E7002800F08A8070B5A8
:101030000446836A002B36D02046FFF7CFFFA36A11
:1010400013F0100377D1002875D1A26A22F48852D8
:1010500022F0020242F00202A262626825683A4966
:101060008D4226D0E1690A43E66842EA4602A16859
:10107000B1F5807F27D0012922D06169012925D0CF
:10108000696821F469410B436B6021688D682F4BBF
:101090002B4013438B60A368B3F5807F27D0012BCF
:1010A00025D0002126E0C36280F82430FFF73EFA05
:1010B000C2E7E169B1F5402FD5D14FF40021D2E765
:1010C0004FF48073D9E74FF48073D6E736B9A1693E
:1010D000013943EA413343F40063D1E7A16A41F0A7
:1010E0002001A162E16A41F00101E162C8E72369E0
:1010F000013B19052568EB6A23F470030B43EB628F
:1011000023689968124B0B409A420BD0A36A23F0D4
:10111000120343F01003A362E36A43F00103E362A6
:1011200001200DE00023E362A36A23F0030343F0F0
:101130000103A36204E0A36A43F01003A362012049
:1011400070BD0120704700BF003C0140FDF7E1FF8A
:10115000FE0E1FFF00283CD010B50446002383621A
:1011600090F85130002B31D0022384F8513022689E
:10117000136823F0400313606368A2681343E268B6
:1011800013432269134362691343A26902F4007294
:101190001343E2691343226A1343A16A22680B4393
:1011A0001360638B03F00403616A22680B4353608E
:1011B0002368E26A1A612268D36923F40063D36169
:1011C00000206065012384F8513010BDFFF724FA38
:1011D000CAE701207047000030B4036A23F001031E
:1011E0000362056A4268846924F073040B681C4337
:1011F00025F002058B682B43104DA84203D005F55E
:101200000065A84205D123F00803CD682B4323F0E5
:1012100004030A4DA84203D005F50065A84205D194
:1012200022F440724D6915438A692A434260846101
:101230004A684263036230BC704700BF002C014023
:1012400030B4036A23F480730362036A4268C4699A
:1012500024F073040D682C4323F400738D6843EA73
:101260000523124DA84203D005F50065A84206D11A
:1012700023F40063CD6843EA052323F480630B4D18
:10128000A84203D005F50065A84207D122F44052D8
:101290004D6942EA05128D6942EA05124260C46155
:1012A0004A68C263036230BC704700BF002C014033
:1012B00030B4036A23F480530362036A4468C2694A
:1012C00022F4E6420D6842EA052223F400538D68B9
:1012D00043EA0533094DA84203D005F50065A8424D
:1012E00004D124F480444D6944EA85144460C26109
:1012F0004A680264036230BC704700BF002C0140A2
:1013000010B4036A046A24F001040462846924F0BE
:10131000F00444EA021223F00A030B4382610362E1
:1013200010BC704710B4036A23F010030362846991
:10133000036A24F4704444EA023223F0A00343EA2F
:1013400001138261036210BC7047836823F070034D
:1013500041F0070119438160704710B4846824F498
:101360007F4442EA03230B432343836010BC70474E
:101370000268D36843F00103D3600268136843F046
:101380000103136000207047704790F83C30012B38
:101390007DD010B50446012380F83C30022380F84C
:1013A0003D300268936823F47F4323F07703936012
:1013B0000B68402B57D010D9702B3ED01FD8502B24
:1013C00047D0602B32D1CA6849680068FFF7AAFF8E
:1013D00060212068FFF7B9FF28E0102B4DD008D915
:1013E000202B4FD0302B21D130210068FFF7ADFFEB
:1013F0001CE0DBB900210068FFF7A7FF16E0B3F59A
:10140000805F0ED0B3F5005F10D1CB684A68896861
:101410000068FFF7A2FF2268936843F4804393605B
:1014200004E00268936823F007039360012384F8C3
:101430003D30002084F83C0010BDCB684A688968C4
:101440000068FFF78AFF2268936843F07703936090
:10145000ECE7CA6849680068FFF752FF502120682E
:10146000FFF773FFE2E7CA6849680068FFF748FFC3
:1014700040212068FFF769FFD8E710210068FFF7D7
:1014800064FFD3E720210068FFF75FFFCEE702206B
:101490007047704770477047704710B5044603683F
:1014A0001A6912F0020F11D0DA6812F0020F0DD093
:1014B0006FF002021A610123037703689B6913F03E
:1014C000030F70D0FFF7E6FF0023237723681A6924
:1014D00012F0040F12D0DA6812F0040F0ED06FF081
:1014E00004021A610223237723689B6913F4407F67
:1014F0005FD02046FFF7CEFF0023237723681A69C9
:1015000012F0080F12D0DA6812F0080F0ED06FF048
:1015100008021A61042323772368DB6913F0030FA1
:101520004ED02046FFF7B6FF0023237723681A69C1
:1015300012F0100F12D0DA6812F0100F0ED06FF008
:1015400010021A61082323772368DB6913F4407FB4
:101550003DD02046FFF79EFF0023237723681A69BA
:1015600012F0010F03D0DA6812F0010F36D12368B0
:101570001A6912F0800F03D0DA6812F0800F34D1AC
:1015800023681A6912F0400F03D0DA6812F0400F96
:1015900032D123681A6912F0200F03D0DA6812F0F2
:1015A000200F30D110BDFFF774FF2046FFF773FF07
:1015B0008AE72046FFF76DFF2046FFF76CFF9BE7A9
:1015C0002046FFF766FF2046FFF765FFACE72046A1
:1015D000FFF75FFF2046FFF75EFFBDE76FF00102F8
:1015E0001A612046FEF776FEC1E76FF080021A61AD
:1015F000204600F05DF9C3E76FF040021A61204613
:10160000FFF74AFFC5E76FF020021A61204600F09D
:101610004EF9C7E70368244A904212D002F50062EF
:1016200090420ED0B0F1804F0BD0A2F5983290428C
:1016300007D002F58062904203D002F580629042AA
:1016400003D123F070034A681343174A904212D023
:1016500002F5006290420ED0B0F1804F0BD0A2F59F
:101660009832904207D002F58062904203D002F592
:101670008062904203D123F44073CA68134323F07D
:1016800080034A69134303608B68C3620B688362FB
:10169000054B984203D003F50063984201D10B69D2
:1016A0000363012343617047002C0140A8B110B5CA
:1016B000044690F83D305BB1022384F83D30211D93
:1016C0002068FFF7A7FF012384F83D30002010BDFC
:1016D00080F83C30FFF73CF8EEE701207047A8B1F6
:1016E00010B5044690F83D305BB1022384F83D30DC
:1016F000211D2068FFF78EFF012384F83D30002074
:1017000010BD80F83C30FFF73FFEEEE70120704748
:1017100030B4036A23F010030362036A44688269E9
:1017200022F4E6420D6842EA052223F020038D6888
:1017300043EA0513114DA84203D005F50065A84200
:1017400006D123F08003CD6843EA051323F040035C
:101750000A4DA84203D005F50065A84207D124F43C
:1017600040644D6944EA85048D6944EA8504446017
:1017700082614A688263036230BC7047002C01407A
:1017800038B590F83C30012B66D00D460446012355
:1017900080F83C30022380F83D300C2A1AD8DFE86C
:1017A00002F00719191920191919341919194700C4
:1017B0000068FFF711FD2268936943F00803936105
:1017C0002268936923F0040393612268936929696D
:1017D0000B439361012384F83D30002084F83C00E2
:1017E00038BD0068FFF794FF2268936943F40063F3
:1017F00093612268936923F48063936122689369FB
:10180000296943EA01239361E4E70068FFF718FDC3
:101810002268D36943F00803D3612268D36923F0B7
:101820000403D3612268D36929690B43D361D1E7EB
:101830000068FFF73DFD2268D36943F40063D3617C
:101840002268D36923F48063D3612268D36929694C
:1018500043EA0123D361BDE70220C1E790F83C30A1
:10186000012B22D030B4012280F83C20022380F8E2
:101870003D300468636823F0700363600468636844
:101880000D682B4363600468A36823F08003A360A2
:101890000468A36849680B43A36080F83D200023D7
:1018A00080F83C30184630BC7047022070477047C3
:1018B00070470268D36823F0C003D360202380F808
:1018C000393070470268D36823F49073D36002689C
:1018D000536923F001035361202380F83A307047A5
:1018E00090F83930DBB2212B2AD18368B3F5805FC1
:1018F00016D0036A5A1C02621A7803685A60C38CB5
:10190000013B9BB2C384EBB90268D36823F0800328
:10191000D3600268D36843F04003D360002070476F
:10192000036A1B880268C3F30803536003691BB989
:10193000036A02330362E2E7036A01330362DEE70C
:1019400002207047002070472DE9F84305460268E1
:10195000136923F44053C1680B4313618368026920
:101960001343426913430168CA6822F4B05222F05B
:101970000C021343CB600268536923F440738169FE
:101980000B4353610268594B9A4257D000F086FED0
:1019900000EB800000EB80006C68A400B0FBF4F466
:1019A000534FA7FB04346409260100F077FE00EBD7
:1019B000800000EB80006C68A400B0FBF4F900F03C
:1019C0006DFE00EB800000EB80006C68A400B0FBB3
:1019D000F4F4A7FB043464094FF0640808FB149482
:1019E00024013234A7FB0434640904F0F0043444C5
:1019F00000F054FE00EB800000EB80006E68B60043
:101A0000B0FBF6F600F04AFE00EB800000EB800031
:101A10006B689B00B0FBF3F0A7FB0030400908FBAC
:101A200010684FEA081808F13208A7FB0837C7F317
:101A300043172B6827449F60BDE8F88300F03EFE03
:101A400000EB800000EB80006C68A400B0FBF4F4B5
:101A5000274FA7FB04346409260100F02FFE00EB9A
:101A6000800000EB80006C68A400B0FBF4F900F08B
:101A700025FE00EB800000EB80006C68A400B0FB4A
:101A8000F4F4A7FB043464094FF0640808FB1494D1
:101A900024013234A7FB0434640904F0F004344414
:101AA00000F00CFE00EB800000EB80006E68B600DA
:101AB000B0FBF6F600F002FE00EB800000EB8000C9
:101AC0006B689B00B0FBF3F0A7FB0030400908FBFC
:101AD00010684FEA081808F13208A7FB0837C7F367
:101AE00043172B6827449F60A6E700BF00380140DA
:101AF0001F85EB512DE9F04105460F4616469846E5
:101B0000069C2B681B6837EA03030CBF01230023E4
:101B1000B3421DD1B4F1FF3FF3D02CB100F0A6FACF
:101B2000A0EB0800A042ECD92A68D36823F4D07354
:101B3000D3602A68536923F001035361202385F899
:101B4000393085F83A30002385F83830032000E03A
:101B50000020BDE8F08158B310B5044690F8393044
:101B60000BB3242384F839302268D36823F400535C
:101B7000D3602046FFF7E8FE2268136923F4904300
:101B800013612268536923F02A0353612268D368E2
:101B900043F40053D3600020E063202384F83930FD
:101BA00084F83A3010BD80F83830FEF7D7FED8E719
:101BB000012070472DE9F04182B01E4690F839307F
:101BC000DBB2202B55D104460D469046002955D056
:101BD000002A55D090F83830012B53D0012380F8DB
:101BE00038300023C363212380F8393000F03EFAF7
:101BF0000746A4F82480A4F8268010E000963B460F
:101C0000002280212046FFF775FF00283CD12B8859
:101C10002268C3F3080353602369C3B90235E38C18
:101C20009BB2B3B1E38C013B9BB2E384A368B3F5F1
:101C3000805FE3D000963B46002280212046FFF7DC
:101C400059FF18BB2A7823685A600135E7E7013548
:101C5000E5E700963B46002240212046FFF74AFF79
:101C60000346A8B9202284F83920002284F83820BD
:101C700000E00223184602B0BDE8F0810123F9E735
:101C80000123F7E70223F5E70323F3E70323F1E753
:101C90000323EFE730B583B090F83A40E4B2202C4C
:101CA0003DD100293ED0002A3ED090F83830012B9B
:101CB0003CD013460A460446012180F8381082625F
:101CC00083850025C563222180F83A10416B1848AE
:101CD0008862616B1748C862616B17480863616B63
:101CE0004D6321680431606B00F014FF0195236897
:101CF0001A6801925A680192019A84F83850DA6899
:101D000042F48072DA602268536943F00103536140
:101D10002268536943F040035361284600E00220E3
:101D200003B030BD0120FBE70120F9E70220F7E70F
:101D3000BF1D00089B1E0008A71E000810B5044622
:101D400001684A6990F83930DBB2212B0AD021684A
:101D50004A6902F0400294F83A30DBB2222B11D0EB
:101D6000002010BD02F08002002AF0D04B6923F061
:101D700080034B61006B08B100F006FF2046FFF7BF
:101D800098FDE4E7002AEBD04B6923F040034B6158
:101D9000606B08B100F0F8FE2046FFF793FDDFE727
:101DA000704708B50168CB6823F04003CB6020235F
:101DB00080F83930FFF7F4FF002008BD704708B500
:101DC000436A0268126812F0200F13D10022DA85EC
:101DD0001968CA6822F48072CA6019684A6922F0D8
:101DE00001024A6119684A6922F040024A612022D0
:101DF00083F83A201846FFF7E1FF08BD08B590F8D0
:101E00003A30DBB2222B45D18368B3F5805F0ED028
:101E1000036903BB03685A68836A591C81621A709C
:101E2000C38D013B9BB2C385F3B1002033E0826ACE
:101E3000036943B903685B68C3F308031380836ACB
:101E400002338362ECE703685B68DBB21380836A6A
:101E500001338362E4E703685B68826A511C816234
:101E600003F07F031370DBE70268D36823F02003DD
:101E7000D3600268D36823F48073D3600268536927
:101E800023F001035361202380F83A30FFF796FFD7
:101E9000002000E0022008BD704708B5406AFFF747
:101EA000FBFF08BD704710B5446A23685A6994F86F
:101EB0003930DBB2212B10D023685A6902F040027E
:101EC00094F83A30DBB2222B11D0E36B43F01003CD
:101ED000E3632046FFF7E6FF10BD02F08002002A10
:101EE000EAD00023E3842046FFF7E3FCE4E7002A7E
:101EF000EBD00023E3852046FFF7E4FCE5E7000094
:101F000010B5044602681368D168526913F00F00D7
:101F100005D113F0200F02D011F0200F53D100286B
:101F200067D012F0010202D111F4907F61D013F05A
:101F3000010F06D011F4807F03D0E06B40F0010068
:101F4000E06313F0040F04D01AB1E06B40F002001C
:101F5000E06313F0020F04D01AB1E06B40F004000C
:101F6000E06313F0080F04D01AB1E26B42F00802EC
:101F7000E263E26B002A48D013F0200F02D011F088
:101F8000200F24D123685B6903F04003E26B12F059
:101F9000080F00D13BB32046FFF794FC23685A6931
:101FA00012F0400F1BD05A6922F040025A61636B55
:101FB0008BB11A4A5A63606B00F0FEFD28B3606B68
:101FC000436B984721E02046FFF718FF1DE02046AD
:101FD000FFF714FFD6E72046FFF764FF15E0204621
:101FE000FFF760FF11E02046FFF75CFF0023E3638B
:101FF0000BE013F0800F02D011F0800F06D113F028
:10200000400F02D011F0400F04D110BD2046FFF761
:1020100067FCFAE72046FFF7C4FEF6E72120000838
:1020200008B5406A0023C385C384FFF73BFF08BDA2
:1020300008B5074A136843F010031360032000F04B
:10204000E5FF0020FEF7F2FEFEF7A0FE002008BD2F
:1020500000200240034A1168034B1B780B441360B5
:10206000704700BF9007002000000020014B186857
:10207000704700BF9007002038B50446FFF7F6FF11
:102080000546B4F1FF3F02D0044B1B781C44FFF718
:10209000EDFF401BA042FAD338BD00BF0000002076
:1020A00082B0084B1B68084AA2FB03235B0A00FBB3
:1020B00003F0019000BF019B5A1E0192002BF9D141
:1020C00002B0704704000020D34D621070B582B09A
:1020D0000446036813F0010F2CD0AB4B5B6803F090
:1020E0000C03042B1DD0A84B5B6803F00C03082BDA
:1020F00012D06368B3F5803F41D0002B55D103F176
:10210000804303F504331A6822F480321A601A6897
:1021100022F480221A6037E09B4B5B6813F4803F07
:10212000E7D0994B1B6813F4003F03D06368002B82
:1021300000F0AE81236813F0020F76D0924B5B68FB
:1021400013F00C0F5FD0904B5B6803F00C03082B6F
:1021500054D02369002B00F08A808C4B01221A6036
:10216000FFF784FF0546884B1B6813F0020F75D1FB
:10217000FFF77CFF401B0228F5D903208BE1824A40
:10218000136843F480331360636843B3FFF76EFF53
:1021900005467D4B1B6813F4003FCBD1FFF766FF6C
:1021A000401B6428F5D9032075E1B3F5A02F09D0B1
:1021B000754B1A6822F480321A601A6822F4802261
:1021C0001A60E1E703F18043A3F53C331A6842F457
:1021D00080221A601A6842F480321A60D4E7FFF74E
:1021E00045FF0546684B1B6813F4003FA2D0FFF77C
:1021F0003DFF401B6428F5D903204CE1624B5B682E
:1022000013F4803FA5D1604B1B6813F0020F04D07C
:102210002369012B01D001203DE15B4A136823F0C3
:10222000F803616943EAC1031360236813F0080FE0
:1022300032D0A369002B5BD0554B01221A60FFF707
:1022400015FF0546504B5B6A13F0020F21D1FFF7D3
:102250000DFF401B0228F5D903201CE14A4A1368F0
:1022600023F0F803616943EAC1031360DDE7474BDC
:1022700000221A60FFF7FAFE0546434B1B6813F075
:10228000020FD2D0FFF7F2FE401B0228F5D903203F
:1022900001E10120FFF704FF236813F0040F00F0B1
:1022A0009780394BDB6913F0805F33D1364BDA69A5
:1022B00042F08052DA61DB6903F080530193019BA5
:1022C0000125344B1B6813F4807F25D0E368012B74
:1022D00036D0002B4CD103F1804303F504331A6A46
:1022E00022F001021A621A6A22F004021A622CE039
:1022F000274B00221A60FFF7B9FE0546224B5B6AA6
:1023000013F0020FC8D0FFF7B1FE401B0228F5D929
:102310000320C0E00025D4E71E4A136843F480730D
:102320001360FFF7A3FE06461A4B1B6813F4807F69
:10233000CCD1FFF79BFE801B6428F5D90320AAE0CF
:10234000114A136A43F001031362E36873B3FFF7A2
:102350008DFE06460C4B1B6A13F0020F37D1FFF7B8
:1023600085FE801B41F288339842F3D9032092E026
:10237000052B11D0044B1A6A22F001021A621A6A64
:1023800022F004021A62E0E700100240000042421C
:102390008004424200700040414B1A6A42F004023D
:1023A0001A621A6A42F001021A62CEE7FFF75EFE75
:1023B00006463B4B1B6A13F0020F08D0FFF756FE90
:1023C000801B41F288339842F3D9032063E0E5B9DA
:1023D000E369002B5ED0324A526802F00C02082AF0
:1023E0005BD0022B17D02F4B00221A60FFF73EFE66
:1023F00004462B4B1B6813F0007F47D0FFF736FED7
:10240000001B0228F5D9032045E0254AD36923F0B3
:102410008053D361DCE7234B00221A60FFF726FECE
:1024200005461F4B1B6813F0007F06D0FFF71EFE0A
:10243000401B0228F5D903202DE0236AB3F5803F25
:102440001AD017494B6823F47413226A606A024356
:1024500013434B60134B01221A60FFF707FE04463B
:102460000F4B1B6813F0007F0ED1FFF7FFFD001B21
:102470000228F5D903200EE0094A536823F40033FB
:10248000A1680B435360DCE7002004E0002002E079
:10249000012000E0002002B070BD0120FBE700BF7A
:1024A000001002406000424210B487B0164C94E81D
:1024B0000F000DF1180C0CE90F00238AADF8043061
:1024C000124B5B6803F00C02082A1AD1C3F3834253
:1024D000624412F8102C13F4803F05D10C4800FB25
:1024E00002F007B010BC7047084B5B68C3F3404371
:1024F000634413F8143C074800FB02F0B0FBF3F010
:10250000EFE70448EDE700BFAC36000800100240DA
:1025100000093D0000127A00594B1B6803F00703C5
:102520008B420CD2564A136823F007030B43136007
:10253000136803F007038B4201D00120704770B588
:10254000036813F0020F06D04E4A536823F0F003DD
:102550008468234353600C460546036813F0010F5B
:1025600052D04368012B23D0022B28D0454A126851
:1025700012F0020F00F0828042494A6822F0030202
:1025800013434B60FFF772FD06466B68012B1DD0AD
:10259000022B2AD03B4B5B6813F00C0F34D0FFF7B3
:1025A00065FD801B41F288339842F3D9032064E033
:1025B000344A126812F4003FDED101205DE0314A56
:1025C000126812F0007FD7D1012056E02D4B5B68D6
:1025D00003F00C03042B17D0FFF748FD801B41F2DA
:1025E00088339842F2D9032047E0264B5B6803F01A
:1025F0000C03082B08D0FFF739FD801B41F288330C
:102600009842F2D9032038E01D4B1B6803F0070302
:10261000A3420CD91A4A136823F00703234313601B
:10262000136803F00703A34201D0012025E02B68C3
:1026300013F0040F06D0134A536823F4E063E968EB
:102640000B4353602B6813F0080F07D00D4A5368F3
:1026500023F46053296943EAC1035360FFF724FF61
:10266000084B5B68C3F30313074AD35CD840074B9E
:1026700018600020FEF7DAFB002070BD0120FCE7A7
:10268000002002400010024024370008040000200F
:10269000014B1868704700BF0400002008B5FFF721
:1026A000F7FF044B5B68C3F30223034AD35CD840B3
:1026B00008BD00BF001002403437000808B5FFF71E
:1026C000E7FF044B5B68C3F3C223034AD35CD840E3
:1026D00008BD00BF00100240343700080F2303601C
:1026E0000B4B5A6802F0030242605A6802F0F00293
:1026F00082605A6802F4E062C2605B68DB0803F43F
:10270000E0630361034B1B6803F007030B60704732
:10271000001002400020024070B582B004460368F9
:1027200013F0010F34D03E4BDB6913F0805F48D1CA
:102730003B4BDA6942F08052DA61DB6903F0805387
:102740000193019B0125374B1B6813F4807F3AD01E
:10275000334B1B6A13F4407311D0626802F4407269
:102760009A420CD02E4A136A23F440702E49012657
:102770000E6000260E60106213F0010F37D1284A58
:10278000136A23F4407361680B431362002D3FD139
:10279000236813F0020F06D0214A536823F4404304
:1027A000A1680B435360236813F0100F35D01C4A07
:1027B000536823F4800361690B435360002002B027
:1027C00070BD0025BFE7174A136843F48073136098
:1027D000FFF74CFC0646134B1B6813F4807FB7D100
:1027E000FFF744FC801B6428F5D90320E7E7FFF7D7
:1027F0003DFC06460A4B1B6A13F0020FBFD1FFF7E0
:1028000035FC801B41F288339842F3D90320D6E788
:10281000D36923F08053D361BAE70020CFE700BF2C
:10282000001002400070004040044242F0B482B008
:1028300000263546ABE0002C63D0012C00D1CE68D9
:10284000FF2B72D88446FF2B72D8AC00DCF8002036
:102850000F27A74022EA070206FA04F42243CCF825
:1028600000204A6812F0805F00F09080654A946909
:1028700044F001049461926902F001020192019A0C
:10288000AC08A71C604A52F827C005F00302970065
:102890000F22BA402CEA020C5C4A90424ED002F55C
:1028A0008062904200F08B8002F58062904200F0DE
:1028B000888002F58062904200F0858002F5806297
:1028C000904200F0828002F58062904234D006226D
:1028D00035E04F4FBC4214D00BD94E4FBC4210D004
:1028E00007F58037BC420CD0A7F58017BC42A7D1B2
:1028F00007E0A7F58017BC4203D007F58037BC423C
:102900009ED18C687CB1012C08D04261082697E7E3
:10291000CE68083694E7CE680C3691E70261082647
:102920008EE700268CE704268AE700F1040C8AE78C
:10293000A5F10804A40089E7052200E00022BA40BE
:1029400042EA0C020234304F47F824204A6812F45D
:10295000803F3CD0304C22681A4322604A6812F40F
:10296000003F3AD02C4C62681A4362604A6812F405
:10297000801F38D0284CA2681A43A2604A6812F41B
:10298000001F36D0244CE2681343E36001350F2D5D
:1029900035D80122AA400B6813409A42F6D14C6800
:1029A000122CB8D095D8022CB2D07FF644AF032CAD
:1029B000B7D0112C7FF444AFCE68043640E7012233
:1029C000BDE70222BBE70322B9E70422B7E7124CB6
:1029D000226822EA03022260C0E70F4C626822EA02
:1029E00003026260C2E70C4CA26822EA0302A26002
:1029F000C4E7094CE26822EA0303E360C6E702B0D9
:102A0000F0BC704700100240000001400008014087
:102A100000002110000031100004014012B9090427
:102A200001617047016170477047000008B5054BB0
:102A30005B69034200D108BD024B5861FFF7F4FF08
:102A4000F9E700BF0004014070B4066CC56B0124B7
:102A5000B4406C60046863604368102B05D0036861
:102A600099600368DA6070BC704703689A60036815
:102A7000D960F8E700283FD010B4034601681F4A28
:102A800091422ED81E4A0A441E49A1FB0212120985
:102A9000920002641C4AC263022283F82120186853
:102AA000016821F47F5121F030015A689C6822436B
:102AB000DC6822431C6922435C6922439C692243EF
:102AC000DC6922430A43026000209862D8621863DE
:102AD00058639863012283F8212083F8200010BCFA
:102AE00070470A4A0A440749A1FB021212099200E0
:102AF0000264074AC263CFE701207047070402401F
:102B0000F8FFFDBFCDCCCCCC00000240F8FBFDBFF0
:102B10000004024038B590F82040012C32D0012446
:102B200080F8204090F82140012C04D0002380F848
:102B30002030022038BD0446022084F82100002005
:102B4000A0632568286820F0010028602046FFF770
:102B50007BFFE36A5BB12268136843F00E031360E6
:102B60002268136843F0010313600020E2E7226843
:102B7000136823F0040313602268136843F00A0308
:102B80001360EDE70220D5E7034601680A6822F0EA
:102B90000E020A6001680A6822F001020A60026CF3
:102BA000C06B012101FA02F2426083F8211000207B
:102BB00083F820007047000008B590F82130022B00
:102BC00003D004238363012008BD0268136823F047
:102BD0000E0313600268136823F001031360036897
:102BE0004B4A93424ED9783A934224D014329342BE
:102BF00030D0143293422FD0143293422FD014325B
:102C000093422FD0143293422FD0143293422FD0BC
:102C100002F5627293422ED0143293422DD01432B8
:102C200093422CD01432934202D04FF4803203E00E
:102C30004FF4805200E00122364B5A60012380F8A5
:102C40002130002380F82030436B002B5ED0984762
:102C50000020B9E71022EFE74FF48072ECE74FF461
:102C60008052E9E74FF48032E6E74FF48012E3E761
:102C70004FF08072E0E70122DEE71022DCE74FF43C
:102C80008072D9E7244A934224D01432934225D04B
:102C90001432934224D01432934224D014329342FB
:102CA00024D01432934224D01432934224D002F51B
:102CB0006272934223D01432934222D01432934250
:102CC00021D01432934202D04FF4803203E04FF40B
:102CD000805200E00122114B5A60AFE71022FAE760
:102CE0004FF48072F7E74FF48052F4E74FF48032EC
:102CF000F1E74FF48012EEE74FF08072EBE701222C
:102D0000E9E71022E7E74FF48072E4E700205BE791
:102D1000800002400004024008000240000002401F
:102D200038B5C36B1A6804682568016C04238B40AE
:102D3000134200F09B8015F0040F00F09780236889
:102D400013F0200F03D1236823F0040323600368EA
:102D5000AA4A934246D9783A934224D014329342F5
:102D600028D01432934227D01432934227D0143201
:102D7000934227D01432934227D01432934227D063
:102D800002F56272934226D01432934225D0143257
:102D9000934224D01432934202D04FF4802203E0B5
:102DA0004FF4804200E00422954B5A60C36A03B19D
:102DB000984738BD4022F7E74FF48062F4E74FF4BC
:102DC0008042F1E74FF48022EEE74FF48002EBE718
:102DD0004FF08062E8E70422E6E74022E4E74FF4A0
:102DE0008062E1E7874A934224D01432934225D08F
:102DF0001432934224D01432934224D0143293429A
:102E000024D01432934224D01432934224D002F5B9
:102E10006272934223D01432934222D014329342EE
:102E200021D01432934202D04FF4802203E04FF4B9
:102E3000804200E00422744B5A60B7E74022FAE770
:102E40004FF48062F7E74FF48042F4E74FF48022BA
:102E5000F1E74FF48002EEE74FF08062EBE70422E7
:102E6000E9E74022E7E74FF48062E4E702238B4082
:102E7000134200F0A38015F0020F00F09F8023683A
:102E800013F0200F06D1236823F00A0323600123E7
:102E900080F821300368594A93424BD9783A9342DB
:102EA00024D0143293422DD0143293422CD01432B9
:102EB00093422CD0143293422CD0143293422CD013
:102EC000143293422CD002F5627293422BD014320A
:102ED00093422AD01432934229D01432934202D022
:102EE0004FF4003203E04FF4005200E00222444B62
:102EF0005A60002380F82030836A002B3FF459AFDA
:102F0000984756E72022F2E74FF40072EFE74FF4BC
:102F10000052ECE74FF40032E9E74FF40012E6E725
:102F20004FF00072E3E70222E1E72022DFE74FF4EF
:102F30000072DCE7334A934224D01432934225D006
:102F40001432934224D01432934224D01432934248
:102F500024D01432934224D01432934224D002F568
:102F60006272934223D01432934222D0143293429D
:102F700021D01432934202D04FF4003203E04FF4D8
:102F8000005200E00222204B5A60B2E72022FAE70A
:102F90004FF40072F7E74FF40052F4E74FF40032B9
:102FA000F1E74FF40012EEE74FF00072EBE7022278
:102FB000E9E72022E7E74FF40072E4E7082303FA89
:102FC00001F111423FF4F5AE15F0080F3FF4F1AEF8
:102FD000236823F00E032360026CC16B012303FA04
:102FE00002F24A60836380F82130002380F82030A9
:102FF000036B002B3FF4DDAE9847DAE68000024019
:10300000000402400800024000000240074AD36862
:1030100023F4E0631B041B0C000200F4E06018437F
:1030200040F0BF6040F40030D060704700ED00E039
:1030300030B4174BDB68C3F30223C3F10704042C3D
:1030400028BF04241D1D062D18D9033B4FF0FF3562
:1030500005FA04F421EA0401994005FA03F322EA8F
:103060000303194300280BDB0901C9B200F16040DA
:1030700000F5614080F8001330BC70470023E5E79D
:1030800000F00F000901C9B2024B1954F4E700BF68
:1030900000ED00E014ED00E000F01F024009012304
:1030A0009340024A42F82030704700BF00E100E040
:1030B0000138B0F1807F0AD2064B5860064AF021F1
:1030C00082F823100020986007221A6070470120C0
:1030D000704700BF10E000E000ED00E0042805D0DC
:1030E000054A136823F0040313607047024A13680B
:1030F00043F004031360704710E000E00F4B1A68C0
:1031000042F001021A6059680D4A0A405A601A6872
:1031100022F0847222F480321A601A6822F480222B
:103120001A605A6822F4FE025A604FF41F029A6035
:10313000044B4FF000629A60704700BF00100240DD
:103140000000FFF800ED00E00000000000000000BB
:10315000074B19680868B0E8F00F80F30988BFF3DF
:103160006F8F4FF0000080F311884EF00D0E704706
:1031700038000020000000000000000000000000F7
:10318000EFF30980BFF36F8F0D4B1A6820E9F00F42
:1031900010602DE908404FF0500080F3118800F0D6
:1031A00051F94FF0000080F31188BDE8084019681C
:1031B0000868B0E8F00F80F30988BFF36F8F70479D
:1031C0003800002008B54FF0500383F31188BFF397
:1031D0006F8FBFF34F8F00F0A9F818B1034B4FF07A
:1031E00080521A60002383F3118808BD04ED00E0CB
:1031F000EFF305830F2B0FD9104A9B5CDBB2104A0B
:1032000012789A4208D94FF0500383F31188BFF324
:103210006F8FBFF34F8FFEE70A4B1B6803F4E06329
:10322000094A1268934208D94FF0500383F311887A
:10323000BFF36F8FBFF34F8FFEE77047F0E300E0FF
:10324000300000200CED00E03400002060B170B5CB
:103250000446036C8BB14FF0500383F31188BFF326
:103260006F8FBFF34F8FFEE74FF0500383F311884A
:10327000BFF36F8FBFF34F8FFEE703682BB30E468C
:10328000FFF7B6FFEFF311854FF0500383F311887A
:10329000BFF36F8FBFF34F8FA26BE36B934226D9BF
:1032A00094F845305BB20132A263B3F1FF3F18D10D
:1032B000636AF3B104F1240000F010F9D8B1E6B16B
:1032C0000120306085F3118870BD4368002BD6D093
:1032D0004FF0500383F31188BFF36F8FBFF34F8F0D
:1032E000FEE701335BB284F845300120EAE70020B5
:1032F000E8E70120E6E70120E4E70120E2E700003B
:10330000084B1B681B683BB1064B1B68DB68DB681E
:103310005A68054B1A607047034B4FF0FF321A6032
:10332000704700BF3C000020DC000020F8B53A4B9D
:103330001B68002B64D1394B1D6801351D60C5B970
:10334000374B1B681B6843B14FF0500383F3118860
:10335000BFF36F8FBFF34F8FFEE7314A1168314BD8
:10336000186810601960304A136801331360FFF762
:10337000C7FF2E4B1B68AB4238D900242C4B1B686F
:10338000DB6A03EB83039A002A4B9B58012B3CD941
:1033900001243AE00124224B1B681B6843B3204BF5
:1033A0001B68DB68DE6873689D4226D3371D38468C
:1033B00000F0F6F8B36A1BB106F1180000F0F0F85F
:1033C000F36A01229A401C49086802430A6003EB31
:1033D00083039A0039461748104400F0D5F8F26A82
:1033E000134B1B68DB6A9A42D4D2D4E70024D2E79D
:1033F0000E4B4FF0FF321A60C0E70C4A1360BDE776
:103400000E4A13680133136000240D4B1B6803B18F
:1034100001242046F8BD00BFD4000020FC0000209D
:103420003C00002040000020E0000020DC000020E4
:103430003800002044000020D8000020D0000020E8
:1034400000010020204B1B681BB1204B01221A6099
:1034500070471E4B00221A601D4B1B68B3FA83F3A2
:10346000DBB2C3F11F0303EB83018A0019498A58B9
:1034700042B94FF0500383F31188BFF36F8FBFF34E
:103480004F8FFEE710B413489A00D418A1000144EE
:103490004C6864684C601A449100083108448442C6
:1034A0000AD003EB83039A000A4B13445B68DA6883
:1034B000094B1A6010BC704761680648142202FB71
:1034C00003025160EDE700BFD4000020000100209E
:1034D000D8000020440000203800002038B5C36820
:1034E000DC6844B94FF0500383F31188BFF36F8F4A
:1034F000BFF34F8FFEE704F11805284600F050F89F
:10350000134B1B68E3B9251D284600F049F8E36A10
:1035100001229A400F49086802430A6003EB8303C3
:103520009A0029460C48104400F02EF8E26A0B4B32
:103530001B68DB6A9A4208D90120094B186038BD24
:103540002946084800F020F8F0E70020F7E700BF20
:10355000D4000020D80000204400002038000020C3
:1035600000010020E4000020054B1B6833B1054B2F
:103570001B680BB100207047022070470120704784
:10358000F8000020D400002043684B609A688A60ED
:103590009A6851609960086103680133036070475D
:1035A00003694268816891608268416851605A6825
:1035B000824205D000220261186801381860704705
:1035C00082685A60F6E708B5FFF7CEFF012801D000
:1035D000FFF7F8FD08BD0000002103E00B4B5B582E
:1035E000435004310A480B4B42189A42F6D30A4A18
:1035F00002E0002342F8043B084B9A42F9D3FFF75C
:103600007DFD00F00FF8FCF7C3FE7047443700085B
:10361000000000200800002008000020940700207F
:10362000FEE7000070B500250C4E0D4CA41BA41045
:10363000A54209D100F02EF800250A4E0A4CA41B21
:10364000A410A54205D170BD56F825309847013524
:10365000EEE756F8253098470135F2E73C37000889
:103660003C3700083C3700084037000810B5431EBF
:103670000A44914200D110BD11F8014B03F8014FEB
:10368000F7E703460244934200D1704703F8011B59
:10369000F9E70000F8B500BFF8BC08BC9E467047CB
:0C36A000F8B500BFF8BC08BC9E4670479F
:1036AC0002030405060708090A0B0C0D0E0F101077
:1036BC0001020000436F72652F5372632F6D6169B5
:1036CC006E2E630048656C6C6F77204D61696E0DD2
:1036DC000A000000436F72652F5372632F6164639D
:1036EC002E630000436F72652F5372632F737069E2
:1036FC002E630000436F72652F5372632F74696DD4
:10370C002E630000436F72652F5372632F757361C4
:10371C0072742E6300000000000000000000000026
:10372C00010203040607080900000000010203045B
:04373C00150200086A
:04374000F10100088B
:083744000100000000A24A048C
:04000005080035D9E1
:00000001FF
