:020000040800F2
:1000000000C00020A9390008CD0B0008CF0B000864
:10001000D10B0008D30B0008D50B0008000000002E
:100020000000000000000000000000004130000857
:10003000D70B000800000000E1300008D90B0008D1
:10004000F1390008F1390008F1390008F1390008E8
:10005000F1390008F1390008F1390008F1390008D8
:10006000F1390008F1390008E10B0008ED0B000838
:10007000F1390008FD0B0008F13900080D0C0008EB
:100080001D0C0008F1390008F1390008F1390008A9
:10009000F1390008F1390008F1390008F139000898
:1000A000F13900082D0C0008F1390008F139000879
:1000B000F1390008F13900083D0C0008F139000859
:1000C000F1390008F1390008F1390008F139000868
:1000D000F13900084D0C00085D0C00086D0C00089B
:1000E000F1390008F1390008F1390008F139000848
:1000F000F1390008F1390008F1390008F139000838
:10010000F1390008F13900087D0C0008F1390008C8
:10011000F1390008F1390008F1390008F139000817
:10012000F1390008F1390008F1390008F139000807
:1001300000000000000000000000000000000000BF
:1001400000000000000000000000000000000000AF
:10015000000000000000000000000000000000009F
:10016000000000000000000000000000000000008F
:10017000000000000000000000000000000000007F
:10018000000000000000000000000000000000006F
:10019000000000000000000000000000000000005F
:1001A000000000000000000000000000000000004F
:1001B000000000000000000000000000000000003F
:1001C000000000000000000000000000000000002F
:1001D000000000000000000000000000000000001F
:0401E0005FF8E0F1F3
:1001F00010B5054C237833B9044B13B10448AFF361
:1002000000800123237010BD70000020000000005A
:100210008443000808B5034B1BB103490348AFF3FF
:10022000008008BD00000000740000208443000826
:1002300000B583B002A941F8040D0F230122034841
:1002400001F030FC019803B05DF804FB3011002090
:1002500070B51646002405E04D1C0878FFF7E8FF4E
:1002600001342946B442F7DB304670BD08B50022A0
:1002700005210A2002F000FD0A2002F031FD0022D3
:1002800005211E2002F0F8FC1E2002F029FD0022AC
:100290000521322002F0F0FC322002F021FD002284
:1002A0000521252002F0E8FC252002F019FD00229E
:1002B0000521262002F0E0FC262002F011FD00229C
:1002C0000521272002F0D8FC272002F009FD00229A
:1002D00005210D2002F0D0FC0D2002F001FD0022CE
:1002E00005210F2002F0C8FC0F2002F0F9FC0022CB
:1002F0000521102002F0C0FC102002F0F1FC0022C9
:1003000005210B2002F0B8FC0B2002F0E9FC08BD2F
:1003100008B50268034B9A4200D008BD01F03AFDCF
:10032000FBE700BF002C0140FEE7000000B597B0DE
:1003300001220C924FF480330D9300210E91109204
:100340000222139214934FF4E01315930CA801F0BA
:1003500049FD50BB0F230793022108910023099305
:100360004FF480620A920B9307A801F061FF00BB73
:10037000022301934FF40043039301A802F058F8BD
:10038000D8B902F011F80F4BA3FB0030800902F03E
:10039000B3FC042002F0C6FC00220F214FF0FF3016
:1003A00002F06AFC17B05DF804FBAE210648FFF7C7
:1003B000BBFFBC210448FFF7B7FFC3210248FFF78A
:1003C000B3FF00BFD34D6210B043000808B501F081
:1003D000CFFCFFF7ABFF00F019F800F0FDF800F0DC
:1003E000CFFA00F0EBFA00F007FB00F05DF900F047
:1003F00071F800F071FA00F0A7F900F0DDF9FFF7ED
:1004000035FF00F01DF903F0C2FAFEE72DE9F041D7
:1004100088B02C4B9A6942F010029A619A6902F0F6
:1004200010020092009A9A6942F020029A619A6939
:1004300002F020020192019A9A6942F004029A6144
:100440009A6902F004020292029A9A6942F0080242
:100450009A619B6903F008030393039B1A4D0022E2
:1004600042F24301284602F065F9184E002243F299
:100470006021304602F05EF942F2430304934FF0EC
:100480000108CDF81480002406940227079704A9D8
:10049000284602F057F8102304930D4B0593069459
:1004A00004A9284602F04EF843F260230493CDF8E5
:1004B00014800694079704A9304602F043F808B068
:1004C000BDE8F0810010024000100140000C014026
:1004D0000000111000B585B01B481C4B03604FF4A1
:1004E000807383600023C36043614FF46022C26164
:1004F00043600223036100F017FDB0B90C230193A0
:10050000012302930723039301A90F4800F04AFC3B
:1005100080B9102301930223029301A90A4800F035
:1005200041FC60B905B05DF804FB4F210848FFF7B6
:10053000FBFEE3E759210648FFF7F6FEE9E76221F3
:100540000348FFF7F1FEEDE7840E00200024014090
:10055000C043000802681B4B9A4200D0704710B598
:1005600086B0044603F56C439A6942F400729A61BE
:100570009B6903F400730193019B042302930323FB
:10058000039302A9104801F0DDFF1048104B0360EF
:100590000023436083608022C2604FF400720261D6
:1005A0004FF4006242618361C36102F0D9F820B95F
:1005B000064B23625C6206B010BD86210548FFF73A
:1005C000B3FEF5E70024014000100140B40E002006
:1005D00008000240C043000882B0064B5A6942F04E
:1005E00001025A615B6903F001030193019B02B0B0
:1005F000704700BF0010024008B54FF4FA7003F0D6
:10060000BBF8024803F07EFAF7E700BF0444000895
:1006100008B54FF4FA7003F0AFF8024803F072FA2D
:10062000F7E700BF1044000808B54FF4FA7003F074
:10063000A3F8024803F066FAF7E700BF1C4400087D
:1006400010B582B00F4B0193002400942346802202
:100650000D490E4802F012FF0D4B01930123009348
:10066000234680220B490C4802F008FF0B4B0193F4
:10067000022300932346802209490A4802F0FEFE25
:1006800002B010BDFC0E0020D0430008F9050008A0
:10069000000F0020E043000811060008040F0020AE
:1006A000F04300082906000808B50E480E4B036009
:1006B0004FF48273436000238360C360036143612E
:1006C00083611022C2610362436283620A23C362B0
:1006D00000F0C0FC00B908BD4F210448FFF724FE1C
:1006E000F9E700BF0C0F0020003001402C44000847
:1006F0000268134B9A4200D0704710B586B003F5DC
:1007000060439A6942F480529A619B6903F4805372
:100710000193019B50230293002303930493094CFC
:1007200002A9204601F00EFFA023029302230393A7
:100730000323059302A9204601F004FF06B010BD73
:10074000003001400008014000B587B01748184B41
:100750000360002343608360C3600361836100F032
:1007600025FF98B906A94FF4805341F8103D0F4872
:1007700000F08BFD78B900230093019369460B4884
:1007800000F0ECFF60B907B05DF804FB7B2109487D
:10079000FFF7CAFDE6E781210648FFF7C5FDEAE756
:1007A00088210448FFF7C0FDEDE700BF640F00207B
:1007B000000800403C44000800B587B01748184BBB
:1007C0000360002343608360C3600361836100F0C2
:1007D000EDFE98B906A94FF4805341F8103D0F483B
:1007E00000F053FD78B900230093019369460B484C
:1007F00000F0B4FF60B907B05DF804FB9A21094826
:10080000FFF792FDE6E7A0210648FFF78DFDEAE736
:10081000A7210448FFF788FDEDE700BFA40F0020E3
:10082000000C00403C44000884B00368154A934221
:1008300007D0154A93420FD0144A934217D004B000
:100840007047134BDA6942F00202DA61DB6903F0A8
:1008500002030193019BF2E70D4BDA6942F00402B7
:10086000DA61DB6903F004030293029BE7E7084BBC
:10087000DA6942F00802DA61DB6903F008030393E6
:10088000039BDCE70004004000080040000C00402F
:100890000010024002680D4B9A4200D0704700B52C
:1008A00085B01023009302230193039369460848FF
:1008B00001F048FE074A536823F4406343F0E063C5
:1008C00043F40063536005B05DF804FB000400408E
:1008D000000C01400000014000B58FB02548264BB8
:1008E0000360002343608360C3600361836100F0A1
:1008F0005DFE28BB0EA94FF4805341F8103D1D4802
:1009000000F0C3FC08BB1B4800F069FE10BB0023CD
:100910000893099308A9174800F020FFF8B960234D
:100920000193002202920392059201A9114800F05E
:10093000A7FEC8B90F48FFF7ADFF0FB05DF804FB85
:100940004C210E48FFF7F0FCD4E752210B48FFF78B
:10095000EBFCD8E757210948FFF7E6FCD7E75E2113
:100960000648FFF7E1FCDAE767210448FFF7DCFC03
:10097000E0E700BFE40F0020000400403C44000812
:1009800008B50B480B4B03604FF4E1334360002381
:100990008360C36003610C2242618361C36101F023
:1009A00052F800B908BD52210348FFF7BDFCF9E732
:1009B00030110020003801404C44000808B50B48B5
:1009C0000B4B03604FF4E133436000238360C3604B
:1009D00003610C2242618361C36101F034F800B904
:1009E00008BD65210348FFF79FFCF9E7701100205F
:1009F000004400404C44000808B50B480B4B036012
:100A00004FF4E133436000238360C36003610C2231
:100A100042618361C36101F016F800B908BD782115
:100A20000348FFF781FCF9E7AC10002000480040C4
:100A30004C44000870B588B004460368564A934297
:100A400007D0564A93423BD0554A93426DD008B0E6
:100A500070BD544B9A6942F480429A619B6903F4D9
:100A600080430193019B4FF4007304930223059389
:100A7000032307934C4E04A9304601F063FD4FF465
:100A80008063049300250595069504A9304601F07E
:100A900059FD4648464B0360456085608023C3602E
:100AA000056145618561C56101F05AFE18B93F4B8A
:100AB00063635C62CBE7A3213E48FFF735FCF6E7B2
:100AC000384BDA6942F40032DA61DB6903F400334F
:100AD0000293029B042304930223059303230793A9
:100AE000314E04A9304601F02DFD08230493002562
:100AF0000595069504A9304601F024FD2E482F4B9C
:100B00000360456085608023C36005614561856140
:100B1000C56101F025FE18B9274B63635C6296E757
:100B2000CE212448FFF700FCF6E71E4BDA6942F4B9
:100B30008022DA61DB6903F480230393039B4FF483
:100B40008063049302230593032307931C4E04A997
:100B5000304601F0F7FC4FF400630493002505953F
:100B6000069504A9304601F0EDFC1648164B0360CB
:100B7000456085608023C360056145618561C5610D
:100B800001F0EEFD18B90F4B63635C625FE7F9217A
:100B90000848FFF7C9FBF6E7003801400044004071
:100BA000004800400010024000080140EC10002006
:100BB000580002404C440008241000206C00024001
:100BC000000C014068100020300002407047FEE732
:100BD000FEE7FEE7FEE7704708B502F0DDFE08BD60
:100BE00008B5102001F0AEFD08BD000008B50248B0
:100BF00001F0BAFE08BD00BFB40E002008B50248DF
:100C000001F0B2FE08BD00BF6810002008B5024820
:100C100001F0AAFE08BD00BFEC10002008B5024894
:100C200001F0A2FE08BD00BF2410002008B5024854
:100C300000F0B3FB08BD00BFB011002008B50248AA
:100C400000F0ABFB08BD00BF640F002008B50248F0
:100C500000F0F6FF08BD00BF3011002008B50248C3
:100C600000F0EEFF08BD00BF7011002008B502487B
:100C700000F0E6FF08BD00BFAC10002008B5024838
:100C800000F08BFB08BD00BFA40F002000B583B0AF
:100C9000244B9A6942F001029A619A6902F00102BA
:100CA0000092009ADA6942F08052DA61DB6903F05F
:100CB00080530193019B032001F0CCFF00221146D9
:100CC0006FF00B0001F0D8FF002211466FF00A0010
:100CD00001F0D2FF002211466FF0090001F0CCFFB5
:100CE000002211466FF0040001F0C6FF00221146F9
:100CF0006FF0030001F0C0FF00220F216FF0010030
:100D000001F0BAFF00220F214FF0FF3001F0B4FFD5
:100D1000054A536823F0E06343F00073536003B067
:100D20005DF804FB001002400000014000B589B0EE
:100D300000220146192001F09FFF192001F0D0FF89
:100D4000144B9A6942F400629A619B6903F4006350
:100D50000193019B02A903A801F04CFB01F03AFBAF
:100D60000D4BA3FB00239B0C013B0C480C4A02607B
:100D700040F2E732C260436000230361836000F009
:100D800015FC18B1012009B05DF804FB034800F020
:100D90006FFAF8E70010024083DE1B43B011002019
:100DA000002C014030B482B00023019390F824302D
:100DB000012B00F08B800246012380F824304B6821
:100DC000062B29D80568686B03EB8303053B1F24BA
:100DD0009C4020EA04000C6804FA03F303436B63AD
:100DE0000B68092B38D91568E86803EB43031E3BF1
:100DF00007249C4020EA04008C6804FA03F30343B0
:100E0000EB600B68103B012B34D90020002382F8E3
:100E1000243002B030BC70470C2B0ED80568286B0C
:100E200003EB8303233B1F249C4020EA04000C684F
:100E300004FA03F303432B63D2E70568E86A03EB84
:100E40008303413B1F249C4020EA04000C6804FA01
:100E500003F30343EB62C3E71568286903EB43031D
:100E600007249C4020EA04008C6804FA03F303433F
:100E70002B61C6E713681648834205D0936A43F096
:100E8000200393620120C1E7986810F4000F1BD182
:100E9000986840F4000098600B68102B01D0002087
:100EA000B4E70C4B1B680C49A1FB03139B0C03EB31
:100EB00083035900019102E0019B013B0193019BD7
:100EC000002BF9D10020A1E700209FE70220A0E736
:100ED000002401400400002083DE1B4338B5036872
:100EE0009A6812F0010F01D1002038BD04469A68BB
:100EF00022F001029A6000F059FF054623689B68C2
:100F000013F0010F0ED000F051FF401B0228F5D95D
:100F1000A36A43F01003A362E36A43F00103E362B0
:100F20000120E2E70020E0E7002800F08A8070B5A9
:100F30000446836A002B36D02046FFF7CFFFA36A12
:100F400013F0100377D1002875D1A26A22F48852D9
:100F500022F0020242F00202A262626825683A4967
:100F60008D4226D0E1690A43E66842EA4602A1685A
:100F7000B1F5807F27D0012922D06169012925D0D0
:100F8000696821F469410B436B6021688D682F4BC0
:100F90002B4013438B60A368B3F5807F27D0012BD0
:100FA00025D0002126E0C36280F82430FFF7D2FA72
:100FB000C2E7E169B1F5402FD5D14FF40021D2E766
:100FC0004FF48073D9E74FF48073D6E736B9A1693F
:100FD000013943EA413343F40063D1E7A16A41F0A8
:100FE0002001A162E16A41F00101E162C8E72369E1
:100FF000013B19052568EB6A23F470030B43EB6290
:1010000023689968124B0B409A420BD0A36A23F0D5
:10101000120343F01003A362E36A43F00103E362A7
:1010200001200DE00023E362A36A23F0030343F0F1
:101030000103A36204E0A36A43F01003A36201204A
:1010400070BD0120704700BF003C0140FDF7E1FF8B
:10105000FE0E1FFF00283CD010B50446002383621B
:1010600090F85130002B31D0022384F8513022689F
:10107000136823F0400313606368A2681343E268B7
:1010800013432269134362691343A26902F4007295
:101090001343E2691343226A1343A16A22680B4394
:1010A0001360638B03F00403616A22680B4353608F
:1010B0002368E26A1A612268D36923F40063D3616A
:1010C00000206065012384F8513010BDFFF710FB4C
:1010D000CAE701207047000030B4036A23F001031F
:1010E0000362056A4268846924F073040B681C4338
:1010F00025F002058B682B43104DA84203D005F55F
:101100000065A84205D123F00803CD682B4323F0E6
:1011100004030A4DA84203D005F50065A84205D195
:1011200022F440724D6915438A692A434260846102
:101130004A684263036230BC704700BF002C014024
:1011400030B4036A23F480730362036A4268C4699B
:1011500024F073040D682C4323F400738D6843EA74
:101160000523124DA84203D005F50065A84206D11B
:1011700023F40063CD6843EA052323F480630B4D19
:10118000A84203D005F50065A84207D122F44052D9
:101190004D6942EA05128D6942EA05124260C46156
:1011A0004A68C263036230BC704700BF002C014034
:1011B00030B4036A23F480530362036A4468C2694B
:1011C00022F4E6420D6842EA052223F400538D68BA
:1011D00043EA0533094DA84203D005F50065A8424E
:1011E00004D124F480444D6944EA85144460C2610A
:1011F0004A680264036230BC704700BF002C0140A3
:1012000010B4036A046A24F001040462846924F0BF
:10121000F00444EA021223F00A030B4382610362E2
:1012200010BC704710B4036A23F010030362846992
:10123000036A24F4704444EA023223F0A00343EA30
:1012400001138261036210BC7047836823F070034E
:1012500041F0070119438160704710B4846824F499
:101260007F4442EA03230B432343836010BC70474F
:101270000268D36843F00103D3600268136843F047
:101280000103136000207047704790F83C30012B39
:101290007DD010B50446012380F83C30022380F84D
:1012A0003D300268936823F47F4323F07703936013
:1012B0000B68402B57D010D9702B3ED01FD8502B25
:1012C00047D0602B32D1CA6849680068FFF7AAFF8F
:1012D00060212068FFF7B9FF28E0102B4DD008D916
:1012E000202B4FD0302B21D130210068FFF7ADFFEC
:1012F0001CE0DBB900210068FFF7A7FF16E0B3F59B
:10130000805F0ED0B3F5005F10D1CB684A68896862
:101310000068FFF7A2FF2268936843F4804393605C
:1013200004E00268936823F007039360012384F8C4
:101330003D30002084F83C0010BDCB684A688968C5
:101340000068FFF78AFF2268936843F07703936091
:10135000ECE7CA6849680068FFF752FF502120682F
:10136000FFF773FFE2E7CA6849680068FFF748FFC4
:1013700040212068FFF769FFD8E710210068FFF7D8
:1013800064FFD3E720210068FFF75FFFCEE702206C
:101390007047704770477047704710B50446036840
:1013A0001A6912F0020F11D0DA6812F0020F0DD094
:1013B0006FF002021A610123037703689B6913F03F
:1013C000030F70D0FFF7E6FF0023237723681A6925
:1013D00012F0040F12D0DA6812F0040F0ED06FF082
:1013E00004021A610223237723689B6913F4407F68
:1013F0005FD02046FFF7CEFF0023237723681A69CA
:1014000012F0080F12D0DA6812F0080F0ED06FF049
:1014100008021A61042323772368DB6913F0030FA2
:101420004ED02046FFF7B6FF0023237723681A69C2
:1014300012F0100F12D0DA6812F0100F0ED06FF009
:1014400010021A61082323772368DB6913F4407FB5
:101450003DD02046FFF79EFF0023237723681A69BB
:1014600012F0010F03D0DA6812F0010F36D12368B1
:101470001A6912F0800F03D0DA6812F0800F34D1AD
:1014800023681A6912F0400F03D0DA6812F0400F97
:1014900032D123681A6912F0200F03D0DA6812F0F3
:1014A000200F30D110BDFFF774FF2046FFF773FF08
:1014B0008AE72046FFF76DFF2046FFF76CFF9BE7AA
:1014C0002046FFF766FF2046FFF765FFACE72046A2
:1014D000FFF75FFF2046FFF75EFFBDE76FF00102F9
:1014E0001A612046FEF714FFC1E76FF080021A610F
:1014F000204600F05DF9C3E76FF040021A61204614
:10150000FFF74AFFC5E76FF020021A61204600F09E
:101510004EF9C7E70368244A904212D002F50062F0
:1015200090420ED0B0F1804F0BD0A2F5983290428D
:1015300007D002F58062904203D002F580629042AB
:1015400003D123F070034A681343174A904212D024
:1015500002F5006290420ED0B0F1804F0BD0A2F5A0
:101560009832904207D002F58062904203D002F593
:101570008062904203D123F44073CA68134323F07E
:1015800080034A69134303608B68C3620B688362FC
:10159000054B984203D003F50063984201D10B69D3
:1015A0000363012343617047002C0140A8B110B5CB
:1015B000044690F83D305BB1022384F83D30211D94
:1015C0002068FFF7A7FF012384F83D30002010BDFD
:1015D00080F83C30FFF728F9EEE701207047A8B10A
:1015E00010B5044690F83D305BB1022384F83D30DD
:1015F000211D2068FFF78EFF012384F83D30002075
:1016000010BD80F83C30FFF73FFEEEE70120704749
:1016100030B4036A23F010030362036A44688269EA
:1016200022F4E6420D6842EA052223F020038D6889
:1016300043EA0513114DA84203D005F50065A84201
:1016400006D123F08003CD6843EA051323F040035D
:101650000A4DA84203D005F50065A84207D124F43D
:1016600040644D6944EA85048D6944EA8504446018
:1016700082614A688263036230BC7047002C01407B
:1016800038B590F83C30012B66D00D460446012356
:1016900080F83C30022380F83D300C2A1AD8DFE86D
:1016A00002F00719191920191919341919194700C5
:1016B0000068FFF711FD2268936943F00803936106
:1016C0002268936923F0040393612268936929696E
:1016D0000B439361012384F83D30002084F83C00E3
:1016E00038BD0068FFF794FF2268936943F40063F4
:1016F00093612268936923F48063936122689369FC
:10170000296943EA01239361E4E70068FFF718FDC4
:101710002268D36943F00803D3612268D36923F0B8
:101720000403D3612268D36929690B43D361D1E7EC
:101730000068FFF73DFD2268D36943F40063D3617D
:101740002268D36923F48063D3612268D36929694D
:1017500043EA0123D361BDE70220C1E790F83C30A2
:10176000012B22D030B4012280F83C20022380F8E3
:101770003D300468636823F0700363600468636845
:101780000D682B4363600468A36823F08003A360A3
:101790000468A36849680B43A36080F83D200023D8
:1017A00080F83C30184630BC7047022070477047C4
:1017B00070470268D36823F49073D360026853695A
:1017C00023F001035361202380F83A30704790F8EA
:1017D0003930DBB2212B2AD18368B3F5805F16D074
:1017E000036A5A1C02621A7803685A60C38C013B70
:1017F0009BB2C384EBB90268D36823F08003D36043
:101800000268D36843F04003D36000207047036A46
:101810001B880268C3F30803536003691BB9036A9A
:1018200002330362E2E7036A01330362DEE7022068
:1018300070470020704700002DE9F8430546026814
:10184000136923F44053C1680B4313618368026931
:101850001343426913430168CA6822F4B05222F06C
:101860000C021343CB600268536923F4407381690F
:101870000B4353610268594B9A4257D000F09AFDCE
:1018800000EB800000EB80006C68A400B0FBF4F477
:10189000534FA7FB04346409260100F08BFD00EBD5
:1018A000800000EB80006C68A400B0FBF4F900F04D
:1018B00081FD00EB800000EB80006C68A400B0FBB1
:1018C000F4F4A7FB043464094FF0640808FB149493
:1018D00024013234A7FB0434640904F0F0043444D6
:1018E00000F068FD00EB800000EB80006E68B60041
:1018F000B0FBF6F600F05EFD00EB800000EB800030
:101900006B689B00B0FBF3F0A7FB0030400908FBBD
:1019100010684FEA081808F13208A7FB0837C7F328
:1019200043172B6827449F60BDE8F88300F052FD01
:1019300000EB800000EB80006C68A400B0FBF4F4C6
:10194000274FA7FB04346409260100F043FD00EB98
:10195000800000EB80006C68A400B0FBF4F900F09C
:1019600039FD00EB800000EB80006C68A400B0FB48
:10197000F4F4A7FB043464094FF0640808FB1494E2
:1019800024013234A7FB0434640904F0F004344425
:1019900000F020FD00EB800000EB80006E68B600D8
:1019A000B0FBF6F600F016FD00EB800000EB8000C7
:1019B0006B689B00B0FBF3F0A7FB0030400908FB0D
:1019C00010684FEA081808F13208A7FB0837C7F378
:1019D00043172B6827449F60A6E700BF00380140EB
:1019E0001F85EB512DE9F04105460F4616469846F6
:1019F000069C2B681B6837EA03030CBF01230023F6
:101A0000B3421DD1B4F1FF3FF3D02CB100F0CEF9B9
:101A1000A0EB0800A042ECD92A68D36823F4D07365
:101A2000D3602A68536923F001035361202385F8AA
:101A3000393085F83A30002385F83830032000E04B
:101A40000020BDE8F08158B310B5044690F8393055
:101A50000BB3242384F839302268D36823F400536D
:101A6000D3602046FFF7E8FE2268136923F4904311
:101A700013612268536923F02A0353612268D368F3
:101A800043F40053D3600020E063202384F839300E
:101A900084F83A3010BD80F83830FEF7CBFFD8E735
:101AA000012070472DE9F04182B01E4690F8393090
:101AB000DBB2202B55D104460D469046002955D067
:101AC000002A55D090F83830012B53D0012380F8EC
:101AD00038300023C363212380F8393000F066F9E1
:101AE0000746A4F82480A4F8268010E000963B4620
:101AF000002280212046FFF775FF00283CD12B886B
:101B00002268C3F3080353602369C3B90235E38C29
:101B10009BB2B3B1E38C013B9BB2E384A368B3F502
:101B2000805FE3D000963B46002280212046FFF7ED
:101B300059FF18BB2A7823685A600135E7E7013559
:101B4000E5E700963B46002240212046FFF74AFF8A
:101B50000346A8B9202284F83920002284F83820CE
:101B600000E00223184602B0BDE8F0810123F9E746
:101B70000123F7E70223F5E70323F3E70323F1E764
:101B80000323EFE7704708B50168CB6823F04003F3
:101B9000CB60202380F83930FFF7F4FF002008BD28
:101BA000704708B590F83A30DBB2222B45D18368F4
:101BB000B3F5805F0ED0036903BB03685A68836A7C
:101BC000591C81621A70C38D013B9BB2C385F3B16E
:101BD000002033E0826A036943B903685B68C3F39A
:101BE00008031380836A02338362ECE703685B684F
:101BF000DBB21380836A01338362E4E703685B68C6
:101C0000826A511C816203F07F031370DBE7026874
:101C1000D36823F02003D3600268D36823F4807371
:101C2000D3600268536923F001035361202380F8D5
:101C30003A30FFF7B5FF002000E0022008BD7047F2
:101C400010B5044602681368D168526913F00F009A
:101C500005D113F0200F02D011F0200F53D100282E
:101C600067D012F0010202D111F4907F61D013F01D
:101C7000010F06D011F4807F03D0E06B40F001002B
:101C8000E06313F0040F04D01AB1E06B40F00200DF
:101C9000E06313F0020F04D01AB1E06B40F00400CF
:101CA000E06313F0080F04D01AB1E26B42F00802AF
:101CB000E263E26B002A48D013F0200F02D011F04B
:101CC000200F24D123685B6903F04003E26B12F01C
:101CD000080F00D13BB32046FFF76BFD23685A691C
:101CE00012F0400F1BD05A6922F040025A61636B18
:101CF0008BB11A4A5A63606B00F082FD28B3606BA7
:101D0000436B984721E02046FFF74BFF1DE020463C
:101D1000FFF747FFD6E72046FFF791FF15E0204683
:101D2000FFF78DFF11E02046FFF789FF0023E363F3
:101D30000BE013F0800F02D011F0800F06D113F0EA
:101D4000400F02D011F0400F04D110BD2046FFF724
:101D50003EFDFAE72046FFF716FFF6E7611D000893
:101D600008B5406A0023C385C384FFF768FF08BD38
:101D700008B5074A136843F010031360032000F00E
:101D800069FF0020FEF7D2FFFEF780FF002008BDAC
:101D900000200240034A1168034B1B780B44136078
:101DA000704700BFF011002000000020014B1868B0
:101DB000704700BFF011002082B0084B1B68084A32
:101DC000A2FB03235B0A00FB03F0019000BF019B11
:101DD0005A1E0192002BF9D102B070470400002076
:101DE000D34D621070B582B00446036813F0010F42
:101DF0002CD0AB4B5B6803F00C03042B1DD0A84B1D
:101E00005B6803F00C03082B12D06368B3F5803FC6
:101E100041D0002B55D103F1804303F504331A68F8
:101E200022F480321A601A6822F480221A6037E0A5
:101E30009B4B5B6813F4803FE7D0994B1B6813F40E
:101E4000003F03D06368002B00F0AE81236813F0DD
:101E5000020F76D0924B5B6813F00C0F5FD0904B63
:101E60005B6803F00C03082B54D02369002B00F0AF
:101E70008A808C4B01221A60FFF798FF0546884B39
:101E80001B6813F0020F75D1FFF790FF401B02286B
:101E9000F5D903208BE1824A136843F48033136041
:101EA000636843B3FFF782FF05467D4B1B6813F45D
:101EB000003FCBD1FFF77AFF401B6428F5D9032000
:101EC00075E1B3F5A02F09D0754B1A6822F4803262
:101ED0001A601A6822F480221A60E1E703F1804355
:101EE000A3F53C331A6842F480221A601A6842F45F
:101EF00080321A60D4E7FFF759FF0546684B1B682C
:101F000013F4003FA2D0FFF751FF401B6428F5D91E
:101F100003204CE1624B5B6813F4803FA5D1604B1A
:101F20001B6813F0020F04D02369012B01D001209C
:101F30003DE15B4A136823F0F803616943EAC1039A
:101F40001360236813F0080F32D0A369002B5BD015
:101F5000554B01221A60FFF729FF0546504B5B6A7B
:101F600013F0020F21D1FFF721FF401B0228F5D902
:101F700003201CE14A4A136823F0F803616943EA2D
:101F8000C1031360DDE7474B00221A60FFF70EFF25
:101F90000546434B1B6813F0020FD2D0FFF706FF34
:101FA000401B0228F5D9032001E10120FFF704FFBF
:101FB000236813F0040F00F09780394BDB6913F0AE
:101FC000805F33D1364BDA6942F08052DA61DB69E7
:101FD00003F080530193019B0125344B1B6813F4DC
:101FE000807F25D0E368012B36D0002B4CD103F144
:101FF000804303F504331A6A22F001021A621A6A56
:1020000022F004021A622CE0274B00221A60FFF72C
:10201000CDFE0546224B5B6A13F0020FC8D0FFF7D6
:10202000C5FE401B0228F5D90320C0E00025D4E7F7
:102030001E4A136843F480731360FFF7B7FE064629
:102040001A4B1B6813F4807FCCD1FFF7AFFE801BC7
:102050006428F5D90320AAE0114A136A43F001036A
:102060001362E36873B3FFF7A1FE06460C4B1B6ACD
:1020700013F0020F37D1FFF799FE801B41F288332E
:102080009842F3D9032092E0052B11D0044B1A6A31
:1020900022F001021A621A6A22F004021A62E0E7D0
:1020A00000100240000042428004424200700040A2
:1020B000414B1A6A42F004021A621A6A42F00102A3
:1020C0001A62CEE7FFF772FE06463B4B1B6A13F01F
:1020D000020F08D0FFF76AFE801B41F28833984256
:1020E000F3D9032063E0E5B9E369002B5ED0324AFF
:1020F000526802F00C02082A5BD0022B17D02F4B3B
:1021000000221A60FFF752FE04462B4B1B6813F0A7
:10211000007F47D0FFF74AFE001B0228F5D90320B5
:1021200045E0254AD36923F08053D361DCE7234B94
:1021300000221A60FFF73AFE05461F4B1B6813F09A
:10214000007F06D0FFF732FE401B0228F5D903209E
:102150002DE0236AB3F5803F1AD017494B6823F46A
:102160007413226A606A024313434B60134B0122CB
:102170001A60FFF71BFE04460F4B1B6813F0007F2D
:102180000ED1FFF713FE001B0228F5D903200EE045
:10219000094A536823F40033A1680B435360DCE71A
:1021A000002004E0002002E0012000E0002002B056
:1021B00070BD0120FBE700BF0010024060004242FA
:1021C00010B487B0164C94E80F000DF1180C0CE910
:1021D0000F00238AADF80430124B5B6803F00C0249
:1021E000082A1AD1C3F38342624412F8102C13F464
:1021F000803F05D10C4800FB02F007B010BC7047CF
:10220000084B5B68C3F34043634413F8143C07482E
:1022100000FB02F0B0FBF3F0EFE70448EDE700BF8E
:102220009C4300080010024000093D0000127A00A3
:10223000594B1B6803F007038B420CD2564A1368B4
:1022400023F007030B431360136803F007038B426B
:1022500001D00120704770B5036813F0020F06D05B
:102260004E4A536823F0F0038468234353600C46BE
:102270000546036813F0010F52D04368012B23D0A9
:10228000022B28D0454A126812F0020F00F082801B
:1022900042494A6822F0030213434B60FFF786FD70
:1022A00006466B68012B1DD0022B2AD03B4B5B6886
:1022B00013F00C0F34D0FFF779FD801B41F2883307
:1022C0009842F3D9032064E0344A126812F4003FC4
:1022D000DED101205DE0314A126812F0007FD7D1D3
:1022E000012056E02D4B5B6803F00C03042B17D044
:1022F000FFF75CFD801B41F288339842F2D903203E
:1023000047E0264B5B6803F00C03082B08D0FFF76F
:102310004DFD801B41F288339842F2D9032038E00A
:102320001D4B1B6803F00703A3420CD91A4A13681C
:1023300023F0070323431360136803F00703A3424A
:1023400001D0012025E02B6813F0040F06D0134ABA
:10235000536823F4E063E9680B4353602B6813F080
:10236000080F07D00D4A536823F46053296943EAE4
:10237000C1035360FFF724FF084B5B68C3F30313EB
:10238000074AD35CD840074B18600020FEF7CEFC0C
:10239000002070BD0120FCE7002002400010024038
:1023A0006044000804000020014B1868704700BF1B
:1023B0000400002008B5FFF7F7FF044B5B68C3F388
:1023C0000223034AD35CD84008BD00BF001002407E
:1023D0007044000808B5FFF7E7FF044B5B68C3F3E0
:1023E000C223034AD35CD84008BD00BF001002409E
:1023F000704400080F2303600B4B5A6802F003027D
:1024000042605A6802F0F00282605A6802F4E062A8
:10241000C2605B68DB0803F4E0630361034B1B6885
:1024200003F007030B6070470010024000200240D9
:1024300070B582B00446036813F0010F34D03E4BF0
:10244000DB6913F0805F48D13B4BDA6942F0805280
:10245000DA61DB6903F080530193019B0125374B5F
:102460001B6813F4807F3AD0334B1B6A13F440731C
:1024700011D0626802F440729A420CD02E4A136A5C
:1024800023F440702E4901260E6000260E60106273
:1024900013F0010F37D1284A136A23F4407361689F
:1024A0000B431362002D3FD1236813F0020F06D0B7
:1024B000214A536823F44043A1680B4353602368C7
:1024C00013F0100F35D01C4A536823F48003616960
:1024D0000B435360002002B070BD0025BFE7174AD0
:1024E000136843F480731360FFF760FC0646134BD8
:1024F0001B6813F4807FB7D1FFF758FC801B64285A
:10250000F5D90320E7E7FFF751FC06460A4B1B6AA3
:1025100013F0020FBFD1FFF749FC801B41F2883353
:102520009842F3D90320D6E7D36923F08053D361CF
:10253000BAE70020CFE700BF001002400070004063
:1025400040044242F0B482B000263546ABE0002C95
:1025500063D0012C00D1CE68FF2B72D88446FF2BAC
:1025600072D8AC00DCF800200F27A74022EA07024F
:1025700006FA04F42243CCF800204A6812F0805F87
:1025800000F09080654A946944F001049461926976
:1025900002F001020192019AAC08A71C604A52F8AD
:1025A00027C005F0030297000F22BA402CEA020C64
:1025B0005C4A90424ED002F58062904200F08B80DF
:1025C00002F58062904200F0888002F580629042BD
:1025D00000F0858002F58062904200F0828002F572
:1025E0008062904234D0062235E04F4FBC4214D076
:1025F0000BD94E4FBC4210D007F58037BC420CD0EF
:10260000A7F58017BC42A7D107E0A7F58017BC4209
:1026100003D007F58037BC429ED18C687CB1012C79
:1026200008D04261082697E7CE68083694E7CE685E
:102630000C3691E7026108268EE700268CE7042617
:102640008AE700F1040C8AE7A5F10804A40089E7F1
:10265000052200E00022BA4042EA0C020234304F68
:1026600047F824204A6812F4803F3CD0304C22685E
:102670001A4322604A6812F4003F3AD02C4C626838
:102680001A4362604A6812F4801F38D0284CA2684E
:102690001A43A2604A6812F4001F36D0244CE26844
:1026A0001343E36001350F2D35D80122AA400B6892
:1026B00013409A42F6D14C68122CB8D095D8022C0F
:1026C000B2D07FF644AF032CB7D0112C7FF444AFC7
:1026D000CE68043640E70122BDE70222BBE70322B1
:1026E000B9E70422B7E7124C226822EA030222600B
:1026F000C0E70F4C626822EA03026260C2E70C4C3A
:10270000A26822EA0302A260C4E7094CE26822EA56
:102710000303E360C6E702B0F0BC7047001002405C
:1027200000000140000801400000211000003110AD
:102730000004014012B9090401617047016170474A
:102740007047000008B5054B5B69034200D108BD26
:10275000024B5861FFF7F4FFF9E700BF00040140A6
:1027600000283FD010B4034601681F4A91422ED87A
:102770001E4A0A441E49A1FB021212099200026479
:102780001C4AC263022283F821201868016821F4E0
:102790007F5121F030015A689C682243DC68224353
:1027A0001C6922435C6922439C692243DC69224301
:1027B0000A43026000209862D862186358639863E5
:1027C000012283F8212083F8200010BC70470A4AB8
:1027D0000A440749A1FB0212120992000264074A47
:1027E000C263CFE70120704707040240F8FFFDBF36
:1027F000CDCCCCCC00000240F8FBFDBF0004024071
:1028000008B590F82130022B03D004238363012004
:1028100008BD0268136823F00E0313600268136892
:1028200023F00103136003684B4A93424ED9783A70
:10283000934224D01432934230D0143293422FD09A
:10284000143293422FD0143293422FD01432934239
:102850002FD0143293422FD002F5627293422ED0C1
:10286000143293422DD0143293422CD0143293421E
:1028700002D04FF4803203E04FF4805200E0012296
:10288000364B5A60012380F82130002380F8203035
:10289000436B002B5ED098470020B9E71022EFE78A
:1028A0004FF48072ECE74FF48052E9E74FF4803246
:1028B000E6E74FF48012E3E74FF08072E0E7012291
:1028C000DEE71022DCE74FF48072D9E7244A934216
:1028D00024D01432934225D01432934224D014329F
:1028E000934224D01432934224D01432934224D001
:1028F0001432934224D002F56272934223D01432F0
:10290000934222D01432934221D01432934202D007
:102910004FF4803203E04FF4805200E00122114B6B
:102920005A60AFE71022FAE74FF48072F7E74FF4EE
:102930008052F4E74FF48032F1E74FF48012EEE773
:102940004FF08072EBE70122E9E71022E7E74FF44E
:102950008072E4E700205BE7800002400004024050
:10296000080002400000024038B5C36B1A680468D2
:102970002568016C04238B40134200F09B8015F006
:10298000040F00F09780236813F0200F03D1236811
:1029900023F0040323600368AA4A934246D9783A95
:1029A000934224D01432934228D01432934227D039
:1029B0001432934227D01432934227D014329342D8
:1029C00027D01432934227D002F56272934226D068
:1029D0001432934225D01432934224D014329342BD
:1029E00002D04FF4802203E04FF4804200E0042242
:1029F000954B5A60C36A03B1984738BD4022F7E748
:102A00004FF48062F4E74FF48042F1E74FF4802204
:102A1000EEE74FF48002EBE74FF08062E8E7042234
:102A2000E6E74022E4E74FF48062E1E7874A934219
:102A300024D01432934225D01432934224D014323D
:102A4000934224D01432934224D01432934224D09F
:102A50001432934224D002F56272934223D014328E
:102A6000934222D01432934221D01432934202D0A6
:102A70004FF4802203E04FF4804200E00422744BC4
:102A80005A60B7E74022FAE74FF48062F7E74FF465
:102A90008042F4E74FF48022F1E74FF48002EEE742
:102AA0004FF08062EBE70422E9E74022E7E74FF4CA
:102AB0008062E4E702238B40134200F0A38015F00C
:102AC000020F00F09F80236813F0200F06D12368C7
:102AD00023F00A032360012380F821300368594A58
:102AE00093424BD9783A934224D0143293422DD05A
:102AF000143293422CD0143293422CD0143293428D
:102B00002CD0143293422CD0143293422CD002F5A4
:102B1000627293422BD0143293422AD014329342E1
:102B200029D01432934202D04FF4003203E04FF424
:102B3000005200E00222444B5A60002380F820300B
:102B4000836A002B3FF459AF984756E72022F2E7FB
:102B50004FF40072EFE74FF40052ECE74FF400320D
:102B6000E9E74FF40012E6E74FF00072E3E70222D4
:102B7000E1E72022DFE74FF40072DCE7334A9342BB
:102B800024D01432934225D01432934224D01432EC
:102B9000934224D01432934224D01432934224D04E
:102BA0001432934224D002F56272934223D014323D
:102BB000934222D01432934221D01432934202D055
:102BC0004FF4003203E04FF4005200E00222204BA9
:102BD0005A60B2E72022FAE74FF40072F7E74FF4A9
:102BE0000052F4E74FF40032F1E74FF40012EEE741
:102BF0004FF00072EBE70222E9E72022E7E74FF40B
:102C00000072E4E7082303FA01F111423FF4F5AE44
:102C100015F0080F3FF4F1AE236823F00E03236094
:102C2000026CC16B012303FA02F24A60836380F8ED
:102C30002130002380F82030036B002B3FF4DDAE01
:102C40009847DAE680000240000402400800024093
:102C500000000240074AD36823F4E0631B041B0C06
:102C6000000200F4E060184340F0BF6040F4003020
:102C7000D060704700ED00E030B4174BDB68C3F361
:102C80000223C3F10704042C28BF04241D1D062DB4
:102C900018D9033B4FF0FF3505FA04F421EA04018B
:102CA000994005FA03F322EA0303194300280BDBDA
:102CB0000901C9B200F1604000F5614080F80013DD
:102CC00030BC70470023E5E700F00F000901C9B2EE
:102CD000024B1954F4E700BF00ED00E014ED00E0F2
:102CE00000F01F02400901239340024A42F82030BD
:102CF000704700BF00E100E00138B0F1807F0AD2E8
:102D0000064B5860064AF02182F823100020986094
:102D100007221A6070470120704700BF10E000E0F2
:102D200000ED00E0042805D0054A136823F00403F1
:102D300013607047024A136843F00403136070473E
:102D400010E000E00F4B1A6842F001021A60596867
:102D50000D4A0A405A601A6822F0847222F48032C6
:102D60001A601A6822F480221A605A6822F4FE025D
:102D70005A604FF41F029A60044B4FF000629A6051
:102D8000704700BF001002400000FFF800ED00E0B7
:102D9000124A12F0070F1ED0D11D21F00701C1F514
:102DA000406313440A460E48026000214160134408
:102DB000083B23F007030B48036059601960991A18
:102DC00051601360084B1960084B1960084B4FF0B5
:102DD00000421A6070474FF44063E4E7900000201F
:102DE0009C0C00208C000020980C0020940C0020EB
:102DF000900C002010B4124B1A6882421AD3596802
:102E00005C18844203D14068014459601846416807
:102E10004418A24212D10B4C2468A2420CD0526832
:102E2000114441601A6812680260984200D018602C
:102E300010BC70471346DFE70460F6E70260F4E772
:102E40009C0C00208C00002070B5044600F086FB2E
:102E50003A4B1B68BBB13A4B1B681C4263D1ACB107
:102E6000083414F0070F11D024F00704083404F0DC
:102E700007035BB14FF0500383F31188BFF36F8FEB
:102E8000BFF34F8FFEE7FFF783FFE4E7002C4CD042
:102E90002C4B1B68A3424AD32B4B1D6801E02B46E9
:102EA00015466A68A24202D22A68002AF7D1234A4C
:102EB0001268AA423DD01E6808362A681A606B68FC
:102EC0001B1B102B10D9281910F0070F08D04FF03A
:102ED000500383F31188BFF36F8FBFF34F8FFEE76B
:102EE00043606C60FFF786FF6A6816490B689B1A9F
:102EF0000B60164909688B4201D214490B60104BD4
:102F00001B6813436B6000232B6000F0BBFB16F0C3
:102F1000070F10D04FF0500383F31188BFF36F8F6A
:102F2000BFF34F8FFEE70026EFE70026EDE7002610
:102F3000EBE70026E9E7304670BD00BF8C000020BB
:102F4000900C0020940C00209C0C0020980C002079
:102F500080B338B50446A0F1080550F8042C164992
:102F600009680A4208D14FF0500383F31188BFF378
:102F70006F8FBFF34F8FFEE750F8080C40B14FF052
:102F8000500383F31188BFF36F8FBFF34F8FFEE7BA
:102F900022EA010244F8042C00F0E0FA54F8041C80
:102FA000064A13680B4413602846FFF723FF00F01E
:102FB00069FB38BD704700BF900C0020940C0020C6
:102FC0000B4B1B68B3F1FF3F08D04FF0500383F366
:102FD0001188BFF36F8FBFF34F8FFEE74FF05003A1
:102FE00083F31188BFF36F8FBFF34F8FFEE700BFEE
:102FF0000800002006480068006880F3088862B670
:1030000061B6BFF34F8FBFF36F8F00DF00BF0000CB
:1030100008ED00E04FF0807340F8043C21F001011E
:1030200040F8081C034B40F80C3C40F8202C40387A
:10303000704700BFC12F0008000000000000000022
:10304000074B19680868B0E8F00F80F30988BFF3F0
:103050006F8F4FF0000080F311884EF00D0E704717
:10306000AC0C00204FF0500383F31188BFF36F8F37
:10307000BFF34F8F0A4A136801331360012B00D04E
:103080007047084B1B6813F0FF0FF9D04FF0500347
:1030900083F31188BFF36F8FBFF34F8FFEE700BF3D
:1030A0000800002004ED00E0094B1B6843B94FF015
:1030B000500383F31188BFF36F8FBFF34F8FFEE789
:1030C000013B034A13600BB983F31188704700BFBB
:1030D00008000020000000000000000000000000C8
:1030E000EFF30980BFF36F8F0D4B1A6820E9F00FE3
:1030F00010602DE908404FF0500080F3118800F077
:10310000A3FB4FF0000080F31188BDE80840196868
:103110000868B0E8F00F80F30988BFF36F8F70473D
:10312000AC0C002008B54FF0500383F31188BFF3B7
:103130006F8FBFF34F8F00F019FA18B1034B4FF0A8
:1031400080521A60002383F3118808BD04ED00E06B
:10315000064B1B68064AA2FB03239B09013B054A59
:103160001360054B07221A60704700BF040000205F
:10317000D34D621014E000E010E000E000B583B031
:103180001F4B1A78D2B20192FF221A701B78DBB261
:103190008DF803309DF8033003F05003194A137083
:1031A000194B07221A6009E0174A1368013B1360A4
:1031B0009DF803305B00DBB28DF803309DF80330DF
:1031C00013F0800FF0D1104A13681B0203F4E06380
:1031D0001360019BDBB20A4A13700C4B1A6842F46D
:1031E00070021A601A6842F070421A60FFF7B0FF6E
:1031F000074B00221A60FFF7FDFEFFF7E1FE00BF5C
:1032000000E400E0A40C0020A80C002020ED00E069
:1032100008000020084B1B681B683BB1064B1B686D
:10322000DB68DB685A68054B1A607047034B4FF048
:10323000FF321A60704700BFB00C0020280E00203B
:1032400010B50446006BFFF783FE2046FFF780FEB3
:1032500010BD2DE9F04780469946089D099F0A9CBC
:10326000266B02F18042013A06EB820626F0070641
:1032700000230F2B07D8C85CE21882F83400CA5C20
:103280000AB10133F5E7002384F843300E2D00D94D
:103290000E25E56265644FF0000AC4F848A0201DC1
:1032A00000F039FB04F1180000F035FB2461C5F192
:1032B0000F05A5616462C4F84CA084F850A04A468A
:1032C00041463046FFF7A6FE206007B13C60BDE8EE
:1032D000F087000038B5002407E004EB8402930077
:1032E0000E48184400F00CFB01340E2CF5D90C4D9F
:1032F000284600F005FB0B4C204600F001FB0A4875
:1033000000F0FEFA094800F0FBFA094800F0F8FA6C
:10331000084B1D60084B1C6038BD00BFB80C002076
:10332000FC0D0020100E0020300E00205C0E00204E
:10333000480E0020B00C0020B40C002010B504464C
:10334000FFF790FE204A1368013313601F4B1B6880
:103350005BB11F4B1B686BB91C4B1B68DA6AE36AD5
:103360009A4207D8194B1C6004E0184B1C60136884
:10337000012B26D0174A136801331360E36A012238
:103380009A401549086802430A6003EB83039A00D8
:10339000211D1248104400F0C1FAFFF785FE0C4BC6
:1033A0001B686BB1094B1B68DA6AE36A9A4207D261
:1033B0000B4B4FF080521A60BFF34F8FBFF36F8FEC
:1033C00010BDFFF787FFD5E7E40D0020AC0C00200F
:1033D000440E0020F40D0020F80D0020B80C002051
:1033E00004ED00E070B504460E461D4B1D681D4BF4
:1033F0001868043000F0B8FA50B91A4B1B68DA6A42
:10340000012303FA02F218490B6823EA02030B6056
:10341000B4F1FF3F13D02C44124B1B685C60A542F3
:1034200016D8124B18680F4B1968043100F082FA55
:103430000F4B1B68A34212D90D4B1C600FE0002EEE
:10344000E9D0084B196804310A4800F067FA06E031
:10345000094B1868034B1968043100F06BFA70BD12
:10346000700E0020AC0C0020F80D0020B00C0020E5
:10347000280E0020480E0020B40C00202DE9F04357
:1034800085B007468846154699469000FFF7DCFC54
:10349000F8B106465420FFF7D7FC0446A8B10663EE
:1034A000D4B10023039302940D9B01930C9B0093D2
:1034B0004B462A4641463846FFF7CBFE2046FFF7EB
:1034C0003DFF012005B0BDE8F0833046FFF740FD29
:1034D000E6E74FF0FF30F5E74FF0FF30F2E700008E
:1034E00000B583B0174B0193002300938022164947
:1034F0001648FFF7C3FF012805D0B0F1FF3F17D0F2
:1035000003B05DF804FB4FF0500383F31188BFF361
:103510006F8FBFF34F8F0E4B4FF0FF321A600D4B82
:1035200001221A600C4B00221A60FFF727FEE7E722
:103530004FF0500383F31188BFF36F8FBFF34F8FAA
:10354000FEE700BF240E0020784400082138000860
:10355000280E0020440E0020700E0020024A13683E
:1035600001331360704700BFF00D0020F8B53A4BEF
:103570001B68002B64D1394B1D6801351D60C5B92E
:10358000374B1B681B6843B14FF0500383F311881E
:10359000BFF36F8FBFF34F8FFEE7314A1168314B96
:1035A000186810601960304A136801331360FFF720
:1035B00031FE2E4B1B68AB4238D900242C4B1B68C4
:1035C000DB6A03EB83039A002A4B9B58012B3CD9FF
:1035D00001243AE00124224B1B681B6843B3204BB3
:1035E0001B68DB68DE6873689D4226D3371D38464A
:1035F00000F0BAF9B36A1BB106F1180000F0B4F993
:10360000F36A01229A401C49086802430A6003EBEE
:1036100083039A0039461748104400F07FF9F26A94
:10362000134B1B68DB6A9A42D4D2D4E70024D2E75A
:103630000E4B4FF0FF321A60C0E70C4A1360BDE733
:103640000E4A13680133136000240D4B1B6803B14D
:1036500001242046F8BD00BFF00D0020700E0020B0
:10366000B00C0020B40C00202C0E0020280E0020EE
:10367000AC0C0020B80C0020F80D0020EC0D002050
:10368000740E002038B5334B1B6843B94FF050031C
:1036900083F31188BFF36F8FBFF34F8FFEE7FFF700
:1036A000E1FC2C4B1A68013A1A601B68002B4DD1C3
:1036B000294B1B6823B90024FFF7F6FC204638BDD0
:1036C0000024264B1B681BB3244BDB68DC6804F129
:1036D000180000F049F9251D284600F045F9E36A75
:1036E00001229A401E49086802430A6003EB8303E3
:1036F0009A0029461B48104400F010F9E26A1A4B60
:103700001B68DB6A9A42DCD3184B01221A60D8E7A7
:103710000CB1FFF77FFD164B1C6854B1FFF726FF75
:1037200010B1124B01221A60013CF7D1104B00225C
:103730001A600E4B1B685BB10E4B4FF080521A6043
:10374000BFF34F8FBFF36F8F0124B5E70024B3E7BA
:103750000024B1E7F00D0020E40D0020300E002021
:10376000F80D0020B80C0020AC0C0020740E0020D6
:10377000EC0D002004ED00E010B5A8B104460F4B9D
:103780001B6843B14FF0500383F31188BFF36F8F71
:10379000BFF34F8FFEE7FFF7E1FE00212046FFF762
:1037A00021FEFFF76FFF38B9054B4FF080521A60CA
:1037B000BFF34F8FBFF36F8F10BD00BFF00D002020
:1037C00004ED00E0134B1B6813B310B5FFF7C6FE02
:1037D000114B1C68FFF756FF24B90E4B1B68002BDA
:1037E000F4D110BDFFF73EFC0B4BDB68DC68201DFD
:1037F00000F0BAF8094A1368013B1360054A1368E0
:10380000013B1360FFF750FC2046FFF719FDE4E78A
:10381000704700BFE80D00205C0E0020E40D002082
:1038200008B5FFF7CFFF064B1B68012BF9D9054BF5
:103830004FF080521A60BFF34F8FBFF36F8FF0E7E6
:10384000B80C002004ED00E0204B1B681BB1204B9E
:1038500001221A6070471E4B00221A601D4B1B6824
:10386000B3FA83F3DBB2C3F11F0303EB83018A00D6
:1038700019498A5842B94FF0500383F31188BFF3B6
:103880006F8FBFF34F8FFEE710B413489A00D41820
:10389000A10001444C6864684C601A4491000831EE
:1038A000084484420AD003EB83039A000A4B134472
:1038B0005B68DA68094B1A6010BC7047616806489B
:1038C000142202FB03025160EDE700BFF00D00205F
:1038D000740E0020F80D0020B80C0020AC0C002065
:1038E000054B1B6833B1054B1B680BB100207047BB
:1038F0000220704701207047440E0020F00D002088
:1039000000F1080343604FF0FF328260C36003613F
:1039100000230360704700230361704743684B60D6
:103920009A688A609A6851609960086103680133F7
:103930000360704730B40D68B5F1FF3F02D000F16D
:10394000080202E0026904E01A4653681C68AC42AF
:10395000FAD953684B6099608A60516008610368C6
:103960000133036030BC704703694268816891602D
:103970008268416851605A68824205D00022026123
:10398000186801381860704782685A60F6E708B511
:10399000FFF7A6FD002008BD08B5FFF7A1FF01282D
:1039A00001D0FFF7BFFB08BD002103E00B4B5B58C4
:1039B000435004310A480B4B42189A42F6D30A4A44
:1039C00002E0002342F8043B084B9A42F9D3FFF788
:1039D000B9F900F00FF8FCF7F9FC7047EC44000867
:1039E000000000207000002070000020F81100206E
:1039F000FEE7000070B500250C4E0D4CA41BA41072
:103A0000A54209D100F0BEFC00250A4E0A4CA41BB9
:103A1000A410A54205D170BD56F825309847013550
:103A2000EEE756F8253098470135F2E7E444000800
:103A3000E4440008E4440008E84400080346024463
:103A4000934200D1704703F8011BF9E770B50E46A9
:103A5000054618B183690BB900F00CFAAB69AC6884
:103A600013B9284600F006FA234B9C4217D16C6824
:103A7000A3891B071DD52369DBB1013EA36816F896
:103A8000011F013BA360E9B9002B2EDA22460A216F
:103A9000284600F03FF8013011D00A2011E0174B02
:103AA0009C4201D1AC68E3E7154B9C4208BFEC682F
:103AB000DEE72146284600F07FF80028DDD04FF0F1
:103AC000FF3070BD002B04DAA2699A4206DC0A2995
:103AD00004D023685A1C22601970CFE7224628467A
:103AE00000F018F80130C9D1E9E70A2023685A1C10
:103AF00022601870E5E700BFA4440008C444000831
:103B000084440008024B01461868FFF79FBF00BFBE
:103B10000C000020F8B50E461446054618B183691E
:103B20000BB900F0A7F9214B9C422AD16C68A3691C
:103B3000A360A3891A072ED5236963B3236920687C
:103B4000F6B2C01A63693746834204DC2146284630
:103B500000F026F928BBA3680130013BA36023686D
:103B60005A1C22601E706369834204D0A389DB075C
:103B700019D50A2E17D12146284600F011F990B127
:103B80000FE00B4B9C4201D1AC68D0E7094B9C4243
:103B900008BFEC68CBE72146284600F00DF8002866
:103BA000CCD04FF0FF373846F8BD00BFA444000822
:103BB000C444000884440008324B70B51D680646B2
:103BC0000C4625B1AB6913B9284600F053F92E4BCA
:103BD0009C420FD16C68B4F90C309AB215072CD402
:103BE000D00611D40922326043F04003A3814FF084
:103BF000FF303EE0254B9C4201D1AC68EBE7244B03
:103C00009C4208BFEC68E6E7510712D5616B41B1F1
:103C100004F14403994202D0304600F019FA00231F
:103C20006363A38923F02403A381002363602369D2
:103C30002360A38943F00803A38123694BB9A389B7
:103C400003F42073B3F5007F03D02146304600F023
:103C5000BFF9A28912F001030CD00023A3606369AD
:103C60005B42A361236953B9B4F90C3013F08000AF
:103C7000BAD170BD920758BF6369A360F2E7002014
:103C8000F7E700BF0C000020A4440008C44400086B
:103C9000844400088A892DE9F041054610070C4646
:103CA00058D44B68002B05DC0B6C002B02DC002089
:103CB000BDE8F081E66A002EF9D0002312F48052AC
:103CC0002F68216A2B6032D0606DA3895A0705D511
:103CD0006368C01A636B0BB1236CC01A00230246E1
:103CE000E66A216A2846B047431CA38906D12968A1
:103CF0001D2948D8294ACA40D60744D50022626007
:103D00002269D904226004D5421C01D12B6803B971
:103D10006065616B2F600029C9D004F144039942AA
:103D200002D0284600F094F900206063C0E7012328
:103D30002846B047411CC8D12B68002BC5D01D2B8D
:103D400001D0162B01D12F60B1E7A38943F04003C6
:103D5000A381ADE70F69002FA9D0930718BF0023F7
:103D60000E6808BF4B69A6EB07080F608B60B8F1BF
:103D7000000F9CDD43463A46216A2846A66AB047B2
:103D8000002806DCA38943F04003A3814FF0FF30F5
:103D90008EE70744A8EB0008E9E700BF01004020D8
:103DA00038B50B6905460C46DBB118B183690BB910
:103DB00000F060F80C4B9C4209D16C68B4F90C30EF
:103DC0007BB121462846BDE83840FFF763BF074B6B
:103DD0009C4201D1AC68F1E7054B9C4208BFEC68FE
:103DE000ECE7002038BD00BFA4440008C44400082C
:103DF00084440008002310B50446C0E90033836002
:103E000081814366C281C0E9043383611946082277
:103E10005C30FFF713FE054B24626362044BA36220
:103E2000044BE362044B236310BD00BFBD41000897
:103E3000DF410008174200083B420008014900F03A
:103E400085B800BFA13D000870B568254A1E5543DE
:103E50000E4605F1740100F047F9044640B1002117
:103E6000C0E900160C30A06005F16802FFF7E6FD1E
:103E7000204670BD836910B5044633BBC0E91233D8
:103E80000365124B124A1B688262984204BF0123E9
:103E9000836100F01FF86060204600F01BF8A0600E
:103EA000204600F017F80022E06004216068FFF768
:103EB000A1FF01220921A068FFF79CFF0222122125
:103EC000E068FFF797FF0123A36110BD804400085D
:103ED0003D3E0008F8B51B4B07461E68B36913B991
:103EE0003046FFF7C7FF4836D6E90134013B03D51A
:103EF000336833B13668F7E7B4F90C506DB1683404
:103F0000F4E704213846FFF79FFF30600028F1D125
:103F10000C2304463B602046F8BD0B4B6566C4E9A4
:103F20000055A560C4E90335C4E9055508222946B2
:103F300004F15C00FFF782FDC4E90D55C4E9125598
:103F4000E9E700BF804400080100FFFF2DE9F843C6
:103F500080468946002600F1480414B93046BDE881
:103F6000F883D4E90175013F01D52468F5E7AB89F1
:103F7000012B07D9B5F90E30013303D0294640464D
:103F8000C84706436835EEE770B50E46B1F90E1026
:103F900096B0002914461D4607DA00232B60B3892A
:103FA0001A0610D44FF480630EE06A4600F06CF9F4
:103FB0000028F2DB019A02F47042A2F500535A4243
:103FC0005A412A60EEE740230020236016B070BDFE
:103FD0008B8973B59D0706460C4607D504F1470348
:103FE000236023610123636102B070BD01AB6A46A7
:103FF000FFF7CAFF00990546304600F075F848B94A
:10400000B4F90C309A05EFD423F0030343F0020314
:10401000A381E3E70D4BB362A389206043F08003E3
:10402000A381009B20616361019B5BB1B4F90E1019
:10403000304600F03BF928B1A38923F0030343F095
:104040000103A381A3891D43A581CDE73D3E00085F
:1040500038B50546002943D051F8043C0C1F002B0D
:10406000B8BFE41800F044F91E4A1368104633B98B
:10407000636014602846BDE8384000F03AB9A342B6
:104080000BD921686218934201BF1A685B68521805
:10409000226063600460EDE713465A680AB1A242E9
:1040A000FAD919685818A0420BD120680144581851
:1040B00082421960DED110685268014419605A606A
:1040C000D8E702D90C232B60D4E7206821188A4254
:1040D00001BF116852680918216062605C60C9E71D
:1040E00038BD00BF780E002070B5CD1C25F003054B
:1040F00008350C2D38BF0C25002D064601DBA942E2
:1041000003D90C233360002070BD00F0F1F8214A80
:104110001468214691B9204C23681BB9304600F041
:104120003DF820602946304600F038F8431C24D181
:104130000C233046336000F0DCF8E4E70B685B1BCF
:1041400018D40B2B0FD90B60CC18CD50304600F093
:10415000D0F804F10B00231D20F00700C31AD3D0C0
:104160005A42E250D0E74B688C4216BF636013603E
:104170000C46EBE70C464968CCE7C41C24F003046A
:10418000A04205D0211A304600F008F80130CFD007
:104190002560DBE7780E00207C0E002038B5002378
:1041A000054C05460846236000F0DEF8431C02D1AA
:1041B000236803B12B6038BDF411002010B50C4604
:1041C000B1F90E1000F096F80028ABBF636DA3891B
:1041D0001B1823F48053ACBF6365A38110BD2DE988
:1041E000F0411F468B890546DB050C46164605D572
:1041F00002230022B1F90E1000F068F8A3893246BC
:1042000023F48053A381B4F90E103B462846BDE841
:10421000F04100F017B810B50C46B1F90E1000F0DF
:1042200055F8431CA38915BF606523F4805343F4FC
:104230008053A38118BFA38110BDB1F90E1000F007
:1042400013B8000038B50546084611460022054C53
:1042500022601A46FBF7FCFF431C02D1236803B11E
:104260002B6038BDF411002038B50023054C0546FD
:104270000846236000F050F8431C02D1236803B1C4
:104280002B6038BDF411002038B50023064C0546DC
:1042900008461146236000F047F8431C02D123680A
:1042A00003B12B6038BD00BFF411002038B50023E6
:1042B000054C05460846236000F03EF8431C02D139
:1042C000236803B12B6038BDF411002038B50546D2
:1042D000084611460022054C22601A4600F034F8C8
:1042E000431C02D1236803B12B6038BDF4110020B8
:1042F0007047704738B50546084611460022054C00
:1043000022601A4600F028F8431C02D1236803B14A
:104310002B6038BDF41100205822024B4FF0FF30C3
:104320001A607047F41100205822024B4FF0FF3002
:104330001A607047F41100205822024B00201A60C6
:10434000704700BFF41100205822024B4FF0FF309D
:104350001A607047F41100205822024B4FF0FF30D2
:104360001A607047F4110020044A05491368002BB5
:1043700008BF0B461844106018467047800E002096
:10438000F8110020F8B500BFF8BC08BC9E46704785
:0C439000F8B500BFF8BC08BC9E467047A2
:10439C0002030405060708090A0B0C0D0E0F10107A
:1043AC0001020000436F72652F5372632F6D6169B8
:1043BC006E2E6300436F72652F5372632F616463BB
:1043CC002E6300007363616E425350415461736BF2
:1043DC00000000007363616E425350425461736B72
:1043EC00000000007363616E436F7265426F61720F
:1043FC00645461736B0000005363616E425350410F
:10440C00200D00005363616E42535042200D00009A
:10441C005363616E436F7265426F617264200D006D
:10442C00436F72652F5372632F7370692E63000094
:10443C00436F72652F5372632F74696D2E63000086
:10444C00436F72652F5372632F75736172742E6391
:10445C000000000000000000000000000102030446
:10446C0006070809000000000102030449444C45FA
:10447C000000000010000020000000000000000000
:10448C000000000000000000000000000000000020
:10449C000000000000000000000000000000000010
:1044AC000000000000000000000000000000000000
:1044BC0000000000000000000000000000000000F0
:1044CC0000000000000000000000000000000000E0
:0844DC000000000000000000D8
:0444E40015020008B5
:0444E800F1010008D6
:1044EC000100000000A24A04AAAAAAAA10000020F7
:1044FC0000000000A4440008C444000884440008E0
:10450C00000000000000000000000000000000009F
:10451C00000000000000000000000000000000008F
:10452C00000000000000000000000000000000007F
:10453C00000000000000000000000000000000006F
:10454C00000000000000000000000000000000005F
:04000005080039A90D
:00000001FF
