:020000040800F2
:1000000000C00020F9380008F90B0008FB0B0008BD
:10001000FD0B0008FF0B0008010C000800000000A9
:10002000000000000000000000000000212F000878
:10003000030C000800000000C12F0008050C000898
:1000400041390008413900084139000841390008A8
:100050004139000841390008413900084139000898
:1000600041390008413900080D0C0008190C00083E
:1000700041390008290C000841390008390C0008F2
:10008000490C00084139000841390008413900088D
:100090004139000841390008413900084139000858
:1000A00041390008590C000841390008413900085D
:1000B0004139000841390008690C0008413900083D
:1000C0004139000841390008413900084139000828
:1000D00041390008790C0008890C0008990C0008C7
:1000E0004139000841390008413900084139000808
:1000F00041390008413900084139000841390008F8
:100100004139000841390008A90C000841390008AC
:1001100041390008413900084139000841390008D7
:1001200041390008413900084139000841390008C7
:1001300000000000000000000000000000000000BF
:1001400000000000000000000000000000000000AF
:10015000000000000000000000000000000000009F
:10016000000000000000000000000000000000008F
:10017000000000000000000000000000000000007F
:10018000000000000000000000000000000000006F
:10019000000000000000000000000000000000005F
:1001A000000000000000000000000000000000004F
:1001B000000000000000000000000000000000003F
:1001C000000000000000000000000000000000002F
:1001D000000000000000000000000000000000001F
:0401E0005FF8E0F1F3
:1001F000044B05481B1A062B02D9044B03B11847C0
:10020000704700BF0F0000200C000020000000001D
:1002100005490648091A891001EBD171491002D02D
:10022000034B03B1184770470C0000200C0000205E
:100230000000000010B5064C237843B9FFF7D8FF43
:10024000044B13B10448AFF300800123237010BDA9
:100250000C000020000000004439000808B5084BDD
:100260001BB108490848AFF300800848036813B978
:10027000BDE80840CCE7064B002BF9D09847F7E7DC
:100280000000000010000020443900080C0000208D
:100290000000000070402DE964609FE564509FE518
:1002A000066065E04661B0E10040A0130500000A69
:1002B000014084E2043095E40FE0A0E113FF2FE158
:1002C000040056E1F9FFFF1A3C609FE53C509FE5B2
:1002D000066065E09A0D00FA4661B0E10040A013A7
:1002E0000500000A014084E2043095E40FE0A0E13B
:1002F00013FF2FE1040056E1F9FFFF1A7040BDE83B
:100300001EFF2FE1043A0008043A0008083A0008EA
:10031000043A000808B5002205210A2002F01EFC5C
:100320000A2002F04DFC002205211E2002F016FCDE
:100330001E2002F045FC00220521322002F00EFCB6
:10034000322002F03DFC00220521252002F006FCAF
:10035000252002F035FC00220521262002F0FEFBBC
:10036000262002F02DFC00220521272002F0F6FBBA
:10037000272002F025FC002205210D2002F0EEFBD3
:100380000D2002F01DFC002205210F2002F0E6FBEB
:100390000F2002F015FC00220521102002F0DEFBE8
:1003A000102002F00DFC002205210B2002F0D6FBEC
:1003B0000B2002F005FC08BD08B50268034B9A4209
:1003C00000D008BD01F066FCFBE700BF002C014037
:1003D000FEE7000000B597B001220C924FF4803385
:1003E0000D9300210E9110920222139214934FF458
:1003F000E01315930CA801F075FC50BB0F23079375
:1004000002210891002309934FF480620A920B9312
:1004100007A801F08DFE00BB022301934FF40043B7
:10042000039301A801F084FFD8B901F03DFF0F4B01
:10043000A3FB0030800902F0CFFB042002F0E2FBB6
:1004400000220F214FF0FF3002F088FB17B05DF85B
:1004500004FBAE210648FFF7BBFFBC210448FFF7B1
:10046000B7FFC3210248FFF7B3FF00BFD34D6210AF
:100470008439000808B501F0FBFBFFF7ABFF00F083
:1004800019F800F0FDF800F091FA00F0ADFA00F074
:10049000C9FA00F01FF900F071F800F033FA00F02B
:1004A00069F900F09FF9FFF735FF00F0FFF803F05E
:1004B000F2F9FEE72DE9F04188B02C4B9A6942F041
:1004C00010029A619A6902F010020092009A9A69E9
:1004D00042F020029A619A6902F020020192019A88
:1004E0009A6942F004029A619A6902F00402029247
:1004F000029A9A6942F008029A619B6903F0080324
:100500000393039B1A4D002242F24301284602F056
:1005100097F8184E002243F26021304602F090F81E
:1005200042F2430304934FF00108CDF814800024F5
:1005300006940227079704A9284601F083FF102399
:1005400004930D4B0593069404A9284601F07AFF05
:1005500043F260230493CDF814800694079704A90E
:10056000304601F06FFF08B0BDE8F0810010024096
:1005700000100140000C01400000111000B585B0D2
:100580001B481C4B03604FF4807383600023C360DF
:1005900043614FF46022C26143600223036100F0B3
:1005A000D9FCB0B90C2301930123029307230393D1
:1005B00001A90F4800F00CFC80B91023019302231D
:1005C000029301A90A4800F003FC60B905B05DF888
:1005D00004FB4F210848FFF7FBFEE3E759210648DB
:1005E000FFF7F6FEE9E762210348FFF7F1FEEDE7CA
:1005F000740D0020002401409439000802681B4B50
:100600009A4200D0704710B586B0044603F56C439B
:100610009A6942F400729A619B6903F40073019332
:10062000019B042302930323039302A9104801F0C2
:1006300009FF1048104B0360002343608360802251
:10064000C2604FF4007202614FF400624261836144
:10065000C36102F00BF820B9064B23625C6206B05E
:1006600010BD86210548FFF7B3FEF5E700240140E1
:1006700000100140A40D0020080002409439000839
:1006800082B0064B5A6942F001025A615B6903F07D
:1006900001030193019B02B0704700BF00100240AC
:1006A00008B5012003F016F9FBE7000030B587B06C
:1006B00001AC064D0FCD0FC42B682360002101A8AB
:1006C00003F0EEF8024B186007B030BD5C3900084B
:1006D000E80D002008B50E480E4B03604FF48273FE
:1006E000436000238360C360036143618361102220
:1006F000C2610362436283620A23C36200F0C0FCEA
:1007000000B908BD4F210448FFF762FEF9E700BFBA
:10071000EC0D002000300140B03900080268134B96
:100720009A4200D0704710B586B003F560439A69CD
:1007300042F480529A619B6903F480530193019BB8
:1007400050230293002303930493094C02A92046EB
:1007500001F078FEA0230293022303930323059361
:1007600002A9204601F06EFE06B010BD0030014027
:100770000008014000B587B01748184B03600023FC
:1007800043608360C3600361836100F02BFF98B90D
:1007900006A94FF4805341F8103D0F4800F08FFD3B
:1007A00078B900230093019369460B4800F0F4FFE9
:1007B00060B907B05DF804FB7B210948FFF708FE2C
:1007C000E6E781210648FFF703FEEAE788210448AF
:1007D000FFF7FEFDEDE700BF440E002000080040DB
:1007E000C039000800B587B01748184B03600023D4
:1007F00043608360C3600361836100F0F3FE98B9D6
:1008000006A94FF4805341F8103D0F4800F057FD02
:1008100078B900230093019369460B4800F0BCFFB0
:1008200060B907B05DF804FB9A210948FFF7D0FDD5
:10083000E6E7A0210648FFF7CBFDEAE7A721044839
:10084000FFF7C6FDEDE700BF840E0020000C00405E
:10085000C039000884B00368154A934207D0154A8E
:1008600093420FD0144A934217D004B07047134BF1
:10087000DA6942F00202DA61DB6903F002030193F4
:10088000019BF2E70D4BDA6942F00402DA61DB69A1
:1008900003F004030293029BE7E7084BDA6942F096
:1008A0000802DA61DB6903F008030393039BDCE7CA
:1008B0000004004000080040000C0040001002400E
:1008C00002680D4B9A4200D0704700B585B01023E6
:1008D00000930223019303936946084801F0B2FD97
:1008E000074A536823F4406343F0E06343F4006332
:1008F000536005B05DF804FB00040040000C0140AB
:100900000000014000B58FB02548264B036000234E
:1009100043608360C3600361836100F063FE28BBB2
:100920000EA94FF4805341F8103D1D4800F0C7FC5C
:1009300008BB1B4800F06FFE10BB0023089309930F
:1009400008A9174800F028FFF8B960230193002296
:1009500002920392059201A9114800F0AFFEC8B9B6
:100960000F48FFF7ADFF0FB05DF804FB4C210E48B8
:10097000FFF72EFDD4E752210B48FFF729FDD8E7FA
:1009800057210948FFF724FDD7E75E210648FFF706
:100990001FFDDAE767210448FFF71AFDE0E700BF13
:1009A000C40E002000040040C039000808B50B4800
:1009B0000B4B03604FF4E133436000238360C3605B
:1009C00003610C2242618361C36101F02BF800B91D
:1009D00008BD52210348FFF7FBFCF9E71010002087
:1009E00000380140D039000808B50B480B4B0360B4
:1009F0004FF4E133436000238360C36003610C2242
:100A000042618361C36101F00DF800B908BD652141
:100A10000348FFF7DDFCF9E75010002000440040D8
:100A2000D039000808B50B480B4B03604FF4E13395
:100A3000436000238360C36003610C2242618361D1
:100A4000C36100F0EFFF00B908BD78210348FFF74C
:100A5000BFFCF9E78C0F002000480040D0390008A7
:100A600070B588B004460368564A934207D0564A88
:100A700093423BD0554A93426DD008B070BD544B61
:100A80009A6942F480429A619B6903F4804301931E
:100A9000019B4FF4007304930223059303230793F0
:100AA0004C4E04A9304601F0CDFC4FF48063049312
:100AB00000250595069504A9304601F0C3FC46487B
:100AC000464B0360456085608023C36005614561D6
:100AD0008561C56101F0CAFD18B93F4B63635C6273
:100AE000CBE7A3213E48FFF773FCF6E7384BDA6902
:100AF00042F40032DA61DB6903F400330293029BB3
:100B0000042304930223059303230793314E04A97E
:100B1000304601F097FC08230493002505950695BF
:100B200004A9304601F08EFC2E482F4B036045602F
:100B300085608023C360056145618561C56101F001
:100B400095FD18B9274B63635C6296E7CE21244874
:100B5000FFF73EFCF6E71E4BDA6942F48022DA61C9
:100B6000DB6903F480230393039B4FF480630493B6
:100B700002230593032307931C4E04A9304601F07A
:100B800061FC4FF40063049300250595069504A9C4
:100B9000304601F057FC1648164B036045608560EF
:100BA0008023C360056145618561C56101F05EFD1B
:100BB00018B90F4B63635C625FE7F9210848FFF7E0
:100BC00007FCF6E7003801400044004000480040C0
:100BD0000010024000080140CC0F002058000240E5
:100BE000D0390008040F00206C000240000C0140C6
:100BF000480F0020300002407047FEE7FEE7FEE7A6
:100C0000FEE7704708B502F06EFE08BD08B510207B
:100C100001F01EFD08BD000008B5024801F024FEE9
:100C200008BD00BFA40D002008B5024801F01CFE5D
:100C300008BD00BF480F002008B5024801F014FEAF
:100C400008BD00BFCC0F002008B5024801F00CFE23
:100C500008BD00BF040F002008B5024800F0B7FB34
:100C600008BD00BF9010002008B5024800F0AFFB9F
:100C700008BD00BF440E002008B5024800F060FF28
:100C800008BD00BF1010002008B5024800F058FF52
:100C900008BD00BF5010002008B5024800F050FF0A
:100CA00008BD00BF8C0F002008B5024800F08FFB84
:100CB00008BD00BF840E002000B583B0244B9A69A4
:100CC00042F001029A619A6902F001020092009AD0
:100CD000DA6942F08052DA61DB6903F080530193F4
:100CE000019B032001F028FF002211466FF00B004A
:100CF00001F034FF002211466FF00A0001F02EFFD0
:100D0000002211466FF0090001F028FF0022114671
:100D10006FF0040001F022FF002211466FF0030083
:100D200001F01CFF00220F216FF0010001F016FFFF
:100D300000220F214FF0FF3001F010FF054A5368E9
:100D400023F0E06343F00073536003B05DF804FBED
:100D5000001002400000014000B589B000220146A9
:100D6000192001F0FBFE192001F02AFF144B9A69AB
:100D700042F400629A619B6903F400630193019B52
:100D800002A903A801F0B6FA01F0A4FA0D4BA3FBE7
:100D900000239B0C013B0C480C4A026040F2E732F6
:100DA000C260436000230361836000F01BFC18B144
:100DB000012009B05DF804FB034800F073FAF8E77E
:100DC0000010024083DE1B4390100020002C0140E5
:100DD00030B482B00023019390F82430012B00F04E
:100DE0008B800246012380F824304B68062B29D8DB
:100DF0000568686B03EB8303053B1F249C4020EAD6
:100E000004000C6804FA03F303436B630B68092BBB
:100E100038D91568E86803EB43031E3B07249C4060
:100E200020EA04008C6804FA03F30343EB600B68C8
:100E3000103B012B34D90020002382F8243002B06B
:100E400030BC70470C2B0ED80568286B03EB83036E
:100E5000233B1F249C4020EA04000C6804FA03F39F
:100E600003432B63D2E70568E86A03EB8303413B46
:100E70001F249C4020EA04000C6804FA03F3034397
:100E8000EB62C3E71568286903EB430307249C4022
:100E900020EA04008C6804FA03F303432B61C6E7DD
:100EA00013681648834205D0936A43F02003936287
:100EB0000120C1E7986810F4000F1BD1986840F436
:100EC000000098600B68102B01D00020B4E70C4B99
:100ED0001B680C49A1FB03139B0C03EB8303590014
:100EE000019102E0019B013B0193019B002BF9D191
:100EF0000020A1E700209FE70220A0E70024014096
:100F00000400002083DE1B4338B503689A6812F0A2
:100F1000010F01D1002038BD04469A6822F0010279
:100F20009A6000F0C3FE054623689B6813F0010F2A
:100F30000ED000F0BBFE401B0228F5D9A36A43F097
:100F40001003A362E36A43F00103E362012038BDAA
:100F5000002038BD002800F08A8070B50446836AFE
:100F6000002B4DD02046FFF7CFFFA36A13F01003EC
:100F700077D1002875D1A26A22F4885222F00202A9
:100F800042F00202A262656821683A4A91423DD06D
:100F9000E2692A43E66842EA4602A568B5F5807F21
:100FA0003ED0012D39D06569012D3CD04D6825F426
:100FB00069452B434B6021688D682F4B2B401343B1
:100FC0008B60A368B3F5807F3ED0012B3CD000231B
:100FD0002568E96A21F470010B43EB622368996884
:100FE000264B0B409A4233D0A36A23F0120343F0FE
:100FF0001003A362E36A43F00103E362012070BDC2
:10100000C36280F82430FFF7F9FAABE7E269B2F582
:10101000402FBED14FF40022BBE74FF48073C2E7EC
:101020004FF48073BFE736B9A569013D43EA453304
:1010300043F40063BAE7A56A45F02005A562E56AB6
:1010400045F00105E562B1E72369013B1B05BFE7F8
:101050000023E362A36A23F0030343F00103A362C6
:1010600070BDA36A43F01003A362012070BD01208C
:10107000704700BF003C0140FDF7E1FFFE0E1FFF7F
:1010800000283CD010B504460023836290F851300C
:10109000002B31D0022384F851302268136823F0EA
:1010A0004003136022686368A1680B43E1680B4347
:1010B00021690B4361690B43A16901F400710B4382
:1010C000E1690B43216A0B43A16A0B431360226859
:1010D000638B03F00403616A0B4353602368E26A85
:1010E0001A612268D36923F40063D361002060652C
:1010F000012384F8513010BDFFF710FBCAE701202F
:101100007047000030B4036A23F001030362036AEE
:101110004468826922F073020D682A4323F00203B7
:101120008D682B43114DA84211D005F50065A842EA
:101130000DD00E4DA84211D005F50065A8420DD086
:10114000446082614A684263036230BC704723F0A6
:101150000803CD682B4323F00403EAE724F440742A
:101160004D692C438D692C43EAE700BF002C0140F8
:1011700030B4036A23F480730362036A4468C2696B
:1011800022F073020D682A4323F400738D6843EA4A
:101190000523134DA84211D005F50065A8420DD0D6
:1011A0000F4DA84212D005F50065A8420ED044604C
:1011B000C2614A68C263036230BC704723F40063B3
:1011C000CD6843EA052323F48063E9E724F440541F
:1011D0004D6944EA05148D6944EA0514E7E700BF48
:1011E000002C014030B4036A23F480530362036A85
:1011F0004468C26922F4E6420D6842EA052223F4FB
:1012000000538D6843EA0533094DA8420AD005F51D
:101210000065A84206D04460C2614A680264036265
:1012200030BC704724F480444D6944EA8514F2E7E9
:10123000002C014010B4036A046A24F00104046223
:10124000846924F0F00444EA021223F00A030B43F9
:101250008261036210BC704710B4036A23F010036C
:1012600003628469036A24F4704444EA023223F07E
:10127000A00343EA01138261036210BC70478368D4
:1012800023F0700341F007010B438360704710B4F3
:10129000846824F47F4442EA032319430C438460A6
:1012A00010BC70470268D36843F00103D360026842
:1012B000136843F00103136000207047704790F8F3
:1012C0003C30012B7DD010B50446012380F83C3022
:1012D000022380F83D300268936823F47F4323F0B3
:1012E000770393600B68402B57D010D9702B3ED0FA
:1012F0001FD8502B47D0602B32D1CA68496800688C
:10130000FFF7AAFF60212068FFF7B9FF28E0102B44
:101310004DD008D9202B4FD0302B21D1302100685F
:10132000FFF7ADFF1CE0DBB900210068FFF7A7FF66
:1013300016E0B3F5805F0ED0B3F5005F10D1CB6837
:101340004A6889680068FFF7A2FF2268936843F43F
:101350008043936004E00268936823F0070393607E
:10136000012384F83D30002084F83C0010BDCB6898
:101370004A6889680068FFF78AFF2268936843F02B
:1013800077039360ECE7CA6849680068FFF752FF8B
:1013900050212068FFF773FFE2E7CA6849680068D8
:1013A000FFF748FF40212068FFF769FFD8E71021C9
:1013B0000068FFF764FFD3E720210068FFF75FFFB5
:1013C000CEE702207047704770477047704710B5EE
:1013D000044603681A6912F0020F11D0DA6812F09D
:1013E000020F0DD06FF002021A6101230377036828
:1013F0009B6913F0030F70D0FFF7E6FF00232377FC
:1014000023681A6912F0040F12D0DA6812F0040F80
:101410000ED06FF004021A610223237723689B69C0
:1014200013F4407F5FD02046FFF7CEFF00232377E1
:1014300023681A6912F0080F12D0DA6812F0080F48
:101440000ED06FF008021A61042323772368DB694A
:1014500013F0030F4ED02046FFF7B6FF002323778B
:1014600023681A6912F0100F12D0DA6812F0100F08
:101470000ED06FF010021A61082323772368DB690E
:1014800013F4407F3DD02046FFF79EFF00232377D3
:1014900023681A6912F0010F03D0DA6812F0010F05
:1014A00036D123681A6912F0800F03D0DA6812F07F
:1014B000800F34D123681A6912F0400F03D0DA6824
:1014C00012F0400F32D123681A6912F0200F03D0B6
:1014D000DA6812F0200F30D110BDFFF774FF2046FC
:1014E000FFF773FF8AE72046FFF76DFF2046FFF7FF
:1014F0006CFF9BE72046FFF766FF2046FFF765FF7E
:10150000ACE72046FFF75FFF2046FFF75EFFBDE731
:101510006FF001021A612046FEF74EFFC1E76FF03F
:1015200080021A61204600F061F9C3E76FF04002C3
:101530001A612046FFF74AFFC5E76FF020021A61E3
:10154000204600F052F9C7E70368254A904212D0BE
:1015500002F5006290420ED0B0F1804F0BD0A2F5A0
:101560009832904207D002F58062904203D002F593
:101570008062904203D123F070034A681343184AF3
:10158000904212D002F5006290420ED0B0F1804F2E
:101590000BD0A2F59832904207D002F580629042BB
:1015A00003D002F58062904203D123F44073CA68ED
:1015B000134323F080034A69134303608B68C362BB
:1015C0000B688362064B984206D003F5006398428D
:1015D00002D00123436170470B690363F9E700BF41
:1015E000002C0140A8B110B5044690F83D305BB125
:1015F000022384F83D30211D2068FFF7A5FF012359
:1016000084F83D30002010BD80F83C30FFF722F90F
:10161000EEE701207047A8B110B5044690F83D30C0
:101620005BB1022384F83D30211D2068FFF78CFF59
:10163000012384F83D30002010BD80F83C30FFF7D6
:101640003DFEEEE70120704730B4036A23F010033B
:101650000362036A4468826922F4E6420D6842EA42
:10166000052223F020038D6843EA0513124DA8429A
:1016700011D005F50065A8420DD00F4DA84212D03B
:1016800005F50065A8420ED0446082614A68826315
:10169000036230BC704723F08003CD6843EA051332
:1016A00023F04003E9E724F440644D6944EA8504EB
:1016B0008D6944EA8504E7E7002C014038B590F8CD
:1016C0003C30012B66D00D460446012380F83C30A7
:1016D000022380F83D300C2A1AD8DFE802F00719FF
:1016E0001919201919193419191947000068FFF739
:1016F00009FD2268936943F00803936122689369A6
:1017000023F0040393612268936929690B43936171
:10171000012384F83D30002084F83C0038BD006887
:10172000FFF792FF2268936943F400639361226894
:10173000936923F48063936122689369296943EA7A
:1017400001239361E4E70068FFF712FD2268D36983
:1017500043F00803D3612268D36923F00403D36103
:101760002268D36929690B43D361D1E70068FFF789
:1017700039FD2268D36943F40063D3612268D369D9
:1017800023F48063D3612268D369296943EA012382
:10179000D361BDE7022038BD90F83C30012B22D048
:1017A00030B4012280F83C20022380F83D300468E8
:1017B000636823F070036360046863680D682B43FB
:1017C00063600468A36823F08003A3600468A368CF
:1017D00049680B43A36080F83D20002380F83C302B
:1017E000184630BC70470220704770477047026847
:1017F000D36823F49073D3600268536923F0010324
:101800005361202380F83A30704790F83930DBB2CA
:10181000212B01D0022070478368B3F5805F17D079
:101820000268036A591C01621B785360C38C9BB227
:10183000013B9BB2C384DBB90268D36823F0800309
:10184000D3600268D36843F04003D3600020704740
:10185000036A02681B88C3F30803536003691BB95A
:10186000036A02330362E1E7036A01330362DDE7DF
:10187000002070472DE9F04705460268136923F4FC
:101880004053C1680B431361836802691343426983
:1018900013430168CA6822F4B05222F00C021343C9
:1018A000CB600268536923F4407381690B43536131
:1018B000D0F80080594B984557D000F0FBFC00EB66
:1018C000800000EB80006C68A400B0FBF4F4544F7F
:1018D000A7FB04346409260100F0ECFC00EB800057
:1018E00000EB80006C68A400B0FBF4FA00F0E2FCAE
:1018F00000EB800000EB80006C68A400B0FBF4F407
:10190000A7FB043464094FF0640909FB14A4240103
:101910003234A7FB0434640904F0F004344400F0CA
:10192000C9FC00EB800000EB80006E68B600B0FBE5
:10193000F6F600F0BFFC00EB800000EB80006B6867
:101940009B00B0FBF3F0A7FB0030400909FB1069D6
:101950004FEA091909F13209A7FB0937C7F3431701
:101960002744C8F80870BDE8F08700F0B3FC00EB2E
:10197000800000EB80006C68A400B0FBF4F4284FFA
:10198000A7FB04346409260100F0A4FC00EB8000EE
:1019900000EB80006C68A400B0FBF4FA00F09AFC45
:1019A00000EB800000EB80006C68A400B0FBF4F456
:1019B000A7FB043464094FF0640909FB14A4240153
:1019C0003234A7FB0434640904F0F004344400F01A
:1019D00081FC00EB800000EB80006E68B600B0FB7D
:1019E000F6F600F077FC00EB800000EB80006B68FF
:1019F0009B00B0FBF3F3A7FB03235B0909FB13690F
:101A00004FEA091909F13209A7FB0937C7F3431750
:101A10002744C8F80870BDE8F08700BF00380140CF
:101A20001F85EB5158B310B5044690F839300BB30D
:101A3000242384F839302268D36823F40053D36018
:101A40002046FFF717FF2268136923F490431361C0
:101A50002268536923F02A0353612268D36843F450
:101A60000053D3600020E063202384F8393084F8E9
:101A70003A3010BD80F83830FEF7F2FFD8E7012089
:101A80007047704708B50168CB6823F04003CB600E
:101A9000202380F83930FFF7F4FF002008BD70479D
:101AA00008B590F83A30DBB2222B01D0022008BDF5
:101AB0008368B3F5805F0FD003690BBB836A5A1C40
:101AC0008262026852681A70C38D9BB2013B9BB25E
:101AD000C385F3B1002008BD826A036943B9036876
:101AE0005B68C3F308031380836A02338362EBE706
:101AF00003685B68DBB21380836A01338362E3E7C8
:101B0000826A531C836203685B6803F07F0313706F
:101B1000DAE70268D36823F02003D3600268D36851
:101B200023F48073D3600268536923F00103536187
:101B3000202380F83A30FFF7B2FF002008BD70473D
:101B400010B5044602681368D168526913F00F009B
:101B500005D113F0200F02D011F0200F53D100282F
:101B600067D012F0010202D111F4907F61D013F01E
:101B7000010F06D011F4807F03D0E06B40F001002C
:101B8000E06313F0040F04D01AB1E06B40F00200E0
:101B9000E06313F0020F04D01AB1E06B40F00400D0
:101BA000E06313F0080F04D01AB1E26B42F00802B0
:101BB000E263E26B002A48D013F0200F02D011F04C
:101BC000200F24D123685B6903F04003E26B12F01D
:101BD000080F00D13BB32046FFF709FE23685A697E
:101BE00012F0400F1BD05A6922F040025A61636B19
:101BF0008BB11A4A5A63606B00F088FD28B3606BA2
:101C0000436B984710BD2046FFF74AFF10BD2046A2
:101C1000FFF746FFD6E72046FFF791FF10BD2046AD
:101C2000FFF78DFF10BD2046FFF789FF0023E36318
:101C300010BD13F0800F02D011F0800F06D113F009
:101C4000400F02D011F0400F04D110BD2046FFF725
:101C5000DCFD10BD2046FFF715FFF6E7611C00080C
:101C600008B5406A0023C385C384FFF768FF08BD39
:101C700008B5074A136843F010031360032000F00F
:101C80005BFF0020FFF768F8FFF716F8002008BD9B
:101C900000200240034A1168034B1B780B44136079
:101CA000704700BFD010002000000020014B1868D2
:101CB000704700BFD010002082B0084B1B68084A54
:101CC000A2FB03235B0A00FB03F0019000BF019B12
:101CD0005A1E0192002BF9D102B070470400002077
:101CE000D34D621070B582B00446036813F0010F43
:101CF0003DD0AC4B5B6803F00C03042B2ED0A94BFA
:101D00005B6803F00C03082B23D06368B3F5803FB6
:101D100051D0002B55D103F1804303F504331A68E9
:101D200022F480321A601A6822F480221A606368F2
:101D3000002B60D0FFF7BAFF05469A4B1B6813F4DF
:101D4000003F14D1FFF7B2FF401B6428F5D90320F0
:101D5000AFE1944B5B6813F4803FD6D0914B1B6886
:101D600013F4003F03D06368002B00F09F812368C9
:101D700013F0020F65D08B4B5B6813F00C0F4ED045
:101D8000884B5B6803F00C03082B43D02369002BBE
:101D900079D00122844B1A60FFF788FF0546814BFA
:101DA0001B6813F0020F65D1FFF780FF401B02286C
:101DB000F5D903207DE17B4A136843F48033136037
:101DC000B5E7B3F5A02F09D0764B1A6822F480321C
:101DD0001A601A6822F480221A60A8E703F180438F
:101DE000A3F53C331A6842F480221A601A6842F460
:101DF00080321A609BE7FFF759FF0546694B1B6865
:101E000013F4003FB3D0FFF751FF401B6428F5D90E
:101E100003204EE1634B5B6813F4803FB6D1614B06
:101E20001B6813F0020F04D02369012B01D001209D
:101E30003FE15C4A136823F0F803616943EAC10398
:101E40001360236813F0080F32D0A369002B6ED003
:101E50000122564B1A60FFF729FF0546514B5B6A7A
:101E600013F0020F21D1FFF721FF401B0228F5D903
:101E700003201EE14B4A136823F0F803616943EA2B
:101E8000C1031360DDE70022474B1A60FFF70EFF26
:101E90000546444B1B6813F0020FD2D0FFF706FF34
:101EA000401B0228F5D9032003E10120FFF704FFBE
:101EB000236813F0040F00F099803A4BDB6913F0AC
:101EC000805F46D1374BDA6942F08052DA61DB69D4
:101ED00003F080530193019B0125354B1B6813F4DC
:101EE000807F38D0E368012B49D0002B4DD103F11E
:101EF000804303F504331A6A22F001021A621A6A57
:101F000022F004021A62E368002B5DD0FFF7CEFED8
:101F10000646244B1B6A13F0020F66D1FFF7C6FE7C
:101F2000801B41F288339842F3D90320C1E000229C
:101F30001E4B1A60FFF7BAFE05461A4B5B6A13F098
:101F4000020FB5D0FFF7B2FE401B0228F5D90320DF
:101F5000AFE00025C1E7164A136843F480731360AD
:101F6000FFF7A4FE0646124B1B6813F4807FB9D11D
:101F7000FFF79CFE801B6428F5D9032099E0094AED
:101F8000136A43F001031362BDE7052B12D0054B22
:101F90001A6A22F001021A621A6A22F004021A6214
:101FA000B1E700BF001002400000424280044242FC
:101FB00000700040414B1A6A42F004021A621A6A29
:101FC00042F001021A629EE7FFF770FE06463B4BA5
:101FD0001B6A13F0020F08D0FFF768FE801B41F266
:101FE00088339842F3D9032063E0E5B9E369002B15
:101FF0005ED0324A526802F00C02082A5BD0022BF3
:1020000017D000222E4B1A60FFF750FE04462B4BD0
:102010001B6813F0007F47D0FFF748FE001B022823
:10202000F5D9032045E0254AD36923F08053D361D5
:10203000DCE70022224B1A60FFF738FE05461F4BF3
:102040001B6813F0007F06D0FFF730FE401B02280C
:10205000F5D903202DE0236AB3F5803F1AD0174944
:102060004B6823F47413226A606A024313434B6083
:102070000122134B1A60FFF719FE04460F4B1B6831
:1020800013F0007F0ED1FFF711FE001B0228F5D9D7
:1020900003200EE0094A536823F40033A1680B4380
:1020A0005360DCE7002004E0002002E0012000E0B3
:1020B000002002B070BD0120FBE700BF001002400D
:1020C0006000424210B586B0154C94E80F000DF147
:1020D000180E0EE90F00238AADF80430114B5B682F
:1020E00003F00C02082A18D1C3F38342724412F899
:1020F000102C13F4803F03D10B4800FB02F00DE0DD
:10210000084B5B68C3F34043734413F8143C07481F
:1021100000FB02F0B0FBF3F000E0044806B010BD95
:10212000703900080010024000093D0000127A00DA
:10213000594B1B6803F007038B420CD2564A1368B5
:1021400023F007030B431360136803F0070399425E
:1021500001D00120704770B5036813F0020F06D05C
:102160004E4A536823F0F0038468234353600D46BE
:102170000446036813F0010F52D04368012B23D0AB
:10218000022B28D0454A126812F0020F00F082801C
:1021900042494A6822F0030213434B60FFF786FD71
:1021A00006466368012B1DD0022B2AD03B4B5B688F
:1021B00013F00C0F34D0FFF779FD801B41F2883308
:1021C0009842F3D9032070BD344A126812F4003FDC
:1021D000DED1012070BD314A126812F0007FD7D1E4
:1021E000012070BD2D4B5B6803F00C03042B17D04E
:1021F000FFF75CFD801B41F288339842F2D903203F
:1022000070BD264B5B6803F00C03082B08D0FFF76A
:102210004DFD801B41F288339842F2D9032070BDF6
:102220001D4B1B6803F007039D420CD21A4A13682A
:1022300023F007032B431360136803F007039D4249
:1022400001D0012070BD236813F0040F06D0134A9B
:10225000536823F4E063E1680B435360236813F091
:10226000080F07D00D4A536823F46053216943EAED
:10227000C1035360FFF726FF084B5B68C3F30313EA
:10228000074AD35CD840074B18600020FEF764FD76
:10229000002070BD012070BD0020024000100240EF
:1022A000E439000804000020014B1868704700BFA3
:1022B0000400002008B5FFF7F7FF044B5B68C3F389
:1022C0000223034AD35CD84008BD00BF001002407F
:1022D000F439000808B5FFF7E7FF044B5B68C3F368
:1022E000C223034AD35CD84008BD00BF001002409F
:1022F000F43900080F2303600B4B5A6802F0030205
:1023000042605A6802F0F00282605A6802F4E062A9
:10231000C2605B68DB0803F4E0630361034B1B6886
:1023200003F007030B6070470010024000200240DA
:1023300070B582B00446036813F0010F34D03E4BF1
:10234000DB6913F0805F48D13B4BDA6942F0805281
:10235000DA61DB6903F080530193019B0125374B60
:102360001B6813F4807F3AD0334B1B6A13F440731D
:1023700011D0626802F4407293420CD02E4A136A64
:1023800023F440702E4901260E6000260E60106274
:1023900013F0010F37D1284A136A23F440736168A0
:1023A0000B431362002D3FD1236813F0020F06D0B8
:1023B000214A536823F44043A1680B4353602368C8
:1023C00013F0100F35D01C4A536823F48003616961
:1023D0000B435360002002B070BD0025BFE7174AD1
:1023E000136843F480731360FFF760FC0646134BD9
:1023F0001B6813F4807FB7D1FFF758FC801B64285B
:10240000F5D90320E7E7FFF751FC06460A4B1B6AA4
:1024100013F0020FBFD1FFF749FC801B41F2883354
:102420009842F3D90320D6E7D36923F08053D361D0
:10243000BAE70020CFE700BF001002400070004064
:1024400040044242F0B583B00026344679E0002DC6
:1024500000F0A980012D00D1CE68FF2B00F2B780DB
:102460008646FF2B00F2B680A500DEF800200F277D
:10247000AF4022EA070206FA05F52A43CEF800200B
:102480004A6812F0805F5BD0674A956945F00105A4
:102490009561926902F001020192019AA208971CCB
:1024A000624D55F8275004F003074FEA870E0F27B7
:1024B00007FA0EF725EA07055D4FB84200F0908055
:1024C00007F58067B84200F08D8007F58067B84255
:1024D00000F08A8007F58067B84200F0878007F532
:1024E0008067B84200F0848007F58067B84275D0F5
:1024F000062707FA0EF73D4302324C4F47F82250A9
:102500004A6812F4803F75D04A4D2A681A432A60FF
:102510004A6812F4003F73D0464D6A681A436A60F5
:102520004A6812F4801F71D0424DAA681A43AA600B
:102530004A6812F4001F6FD03E4DEA681343EB6007
:1025400001340F2C6ED80122A2400B6813409A422E
:10255000F6D14D68122D30D00BD8022D2AD07FF63F
:1025600076AF032D2FD0112D7FF477AFCE680436D0
:1025700073E7314FBD4216D00CD9304FBD4212D057
:1025800007F58037BD420ED0A7F58017BD427FF416
:1025900064AF08E0A7F58017BD4204D007F5803787
:1025A000BD427FF45AAF8D687DB1012D08D04261E4
:1025B000082652E7CE6808364FE7CE680C364CE75F
:1025C0000261082649E7002647E7042645E700F1AF
:1025D000040E46E7A4F10805AD0046E7052788E7A5
:1025E000002786E7012784E7022782E7032780E7A1
:1025F00004277EE70F4D2A6822EA03022A6087E754
:102600000C4D6A6822EA03026A6089E7094DAA68EC
:1026100022EA0302AA608BE7064DEA6822EA030376
:10262000EB608DE703B0F0BD0010024000000140F8
:10263000000801400004014000002110000031109A
:1026400012B90904016170470161704770470000C9
:1026500008B5054B5B69034200D108BD024B5861C8
:10266000FFF7F4FFF9E700BF0004014000283FD066
:1026700010B4034601681F4A91422ED81E4A0A44EC
:102680001E49A1FB02121209920002641C4AC26395
:10269000022283F821201868016821F47F5121F07B
:1026A00030015A689C682243DC6822431C6922433B
:1026B0005C6922439C692243DC6922430A4302602D
:1026C00000209862D862186358639863012283F8E7
:1026D000212083F8200010BC70470A4A0A440749A9
:1026E000A1FB0212120992000264074AC263CFE7FB
:1026F0000120704707040240F8FFFDBFCDCCCCCCD1
:1027000000000240F8FBFDBF0004024008B590F84D
:102710002130022B03D004238363012008BD02680B
:10272000136823F00E0313600268136823F001039B
:1027300013600368484A934248D9783A934221D0BB
:10274000143293422DD0143293422CD0143293423F
:102750002CD0143293422CD0143293422CD002F558
:10276000677293422BD0143293422AD01432934290
:1027700029D01432934202D04FF4803203E04FF458
:10278000805200E00122354B5A60012380F821304D
:10279000002380F82030436B002B5BD0984700204B
:1027A00008BD1022EFE74FF48072ECE74FF480523F
:1027B000E9E74FF48032E6E74FF48012E3E70122C5
:1027C000E1E71022DFE74FF48072DCE7244A93420E
:1027D00024D01432934225D01432934224D01432A0
:1027E000934224D01432934224D01432934224D002
:1027F0001432934224D002F56272934223D01432F1
:10280000934222D01432934221D01432934202D008
:102810004FF4803203E04FF4805200E00122114B6C
:102820005A60B2E71022FAE74FF48072F7E74FF4EC
:102830008052F4E74FF48032F1E74FF48012EEE774
:102840004FF08072EBE70122E9E71022E7E74FF44F
:102850008072E4E7002008BD8000024000040240CE
:10286000080002400000024038B5C36B1A680468D3
:102870002568016C04238B401A4200F0978015F004
:10288000040F00F09380236813F0200F03D1236816
:1028900023F0040323600368A34A934242D9783AA1
:1028A000934221D01432934227D01432934226D03F
:1028B0001432934226D01432934226D014329342DB
:1028C00026D002F56772934225D01432934224D069
:1028D0001432934223D01432934202D04FF4802218
:1028E00003E04FF4804200E00422904B5A60C36A38
:1028F000002B00F01781984738BD4022F5E74FF4D0
:102900008062F2E74FF48042EFE74FF48022ECE779
:102910004FF48002E9E70422E7E74022E5E74FF4BD
:102920008062E2E7824A934224D01432934225D057
:102930001432934224D01432934224D0143293425E
:1029400024D01432934224D01432934224D002F57E
:102950006272934223D01432934222D014329342B3
:1029600021D01432934202D04FF4802203E04FF47E
:10297000804200E004226F4B5A60B8E74022FAE739
:102980004FF48062F7E74FF48042F4E74FF480227F
:10299000F1E74FF48002EEE74FF08062EBE70422AC
:1029A000E9E74022E7E74FF48062E4E702238B4047
:1029B0001A4200F09C8015F0020F00F09880236806
:1029C00013F0200F06D1236823F00A0323600123AC
:1029D00080F821300368544A934244D9783A9342AC
:1029E00021D01432934229D01432934228D0143289
:1029F000934228D01432934228D01432934228D0E4
:102A000002F56772934227D01432934226D01432D3
:102A1000934225D01432934202D04FF4003203E0A7
:102A20004FF4005200E00222404B5A60002380F82D
:102A30002030836A002B75D0984738BD2022F3E7F9
:102A40004FF40072F0E74FF40052EDE74FF400321C
:102A5000EAE74FF40012E7E70222E5E72022E3E786
:102A60004FF40072E0E7324A934224D0143293428A
:102A700025D01432934224D01432934224D01432FD
:102A8000934224D01432934224D01432934224D05F
:102A900002F56272934223D01432934222D0143250
:102AA000934221D01432934202D04FF4003203E01B
:102AB0004FF4005200E002221E4B5A60B6E720227B
:102AC000FAE74FF40072F7E74FF40052F4E74FF4DF
:102AD0000032F1E74FF40012EEE74FF00072EBE73F
:102AE0000222E9E72022E7E74FF40072E4E7082337
:102AF00003FA01F10A4215D015F0080F12D023682D
:102B000023F00E032360C16B026C012303FA02F26F
:102B10004A60836380F82130002380F82030036B03
:102B200003B1984738BD00BF800002400004024056
:102B30000800024000000240074AD36823F4E06323
:102B40001B041B0C000200F4E060184340F0BF605F
:102B500040F40030D060704700ED00E030B4164B18
:102B6000DB68C3F30223C3F10704042C28BF042449
:102B70001D1D062D17D9033B012505FA04F4013C60
:102B80002140994005FA03F3013B13401943002803
:102B90000BDB0901C9B200F1604000F5614080F82B
:102BA000001330BC70470023E6E700F00F00090176
:102BB000C9B2024B1954F4E700ED00E014ED00E057
:102BC000420900F01F00012303FA00F0014B43F813
:102BD0002200704700E100E00138B0F1807F0AD2A6
:102BE000064B5860F021064A82F8231000209860B6
:102BF00007221A6070470120704700BF10E000E014
:102C000000ED00E0042805D0054A136823F0040312
:102C100013607047024A136843F00403136070475F
:102C200010E000E00F4B1A6842F001021A60596888
:102C30000D4A0A405A601A6822F0847222F48032E7
:102C40001A601A6822F480221A605A6822F4FE027E
:102C50005A604FF41F029A604FF00062034B9A6073
:102C6000704700BF001002400000FFF800ED00E0D8
:102C7000124A12F0070F1ED0D11D21F00701C1F535
:102C8000406313440A460E48026000214160134429
:102C9000083B23F007030B48036059601960991A39
:102CA00051601360084B1960084B19604FF00042E7
:102CB000074B1A6070474FF44063E4E72C00002094
:102CC000380C002028000020340C0020300C00209C
:102CD0002C0C002010B4124B1A6882421AD3596887
:102CE0005C18A04203D1406801445960184641680D
:102CF0004418A24212D10B4C2468A2420CD0526854
:102D0000114441601A6812680260984200D018604D
:102D100010BC70471346DFE70460F6E70260F4E793
:102D2000380C00202800002070B5044600F08AFB13
:102D30003A4B1B68BBB13A4B1B681C4263D1ACB128
:102D4000083414F0070F11D024F00704083404F0FD
:102D500007035BB14FF0500383F31188BFF36F8F0C
:102D6000BFF34F8FFEE7FFF783FFE4E7002C4CD063
:102D70002C4B1B689C424AD82B4B1D6801E02B460C
:102D800015466A68944202D92A68002AF7D1234A74
:102D9000126895423DD01E6808362A681A606B6832
:102DA0001B1B102B10D9281910F0070F08D04FF05B
:102DB000500383F31188BFF36F8FBFF34F8FFEE78C
:102DC00043606C60FFF786FF6A6816490B689B1AC0
:102DD0000B60164909688B4201D214490B60104BF5
:102DE0001B6813436B6000232B6000F0C3FB16F0DD
:102DF000070F10D04FF0500383F31188BFF36F8F8C
:102E0000BFF34F8FFEE70026EFE70026EDE7002631
:102E1000EBE70026E9E7304670BD00BF2800002040
:102E20002C0C0020300C0020380C0020340C00202A
:102E300080B338B50446A0F1080550F8042C1649B3
:102E400009680A4208D14FF0500383F31188BFF399
:102E50006F8FBFF34F8FFEE750F8080C40B14FF073
:102E6000500383F31188BFF36F8FBFF34F8FFEE7DB
:102E700022EA010244F8042C00F0E4FA54F8041C9D
:102E8000064A13680B4413602846FFF723FF00F03F
:102E900071FB38BD704700BF2C0C0020300C0020A7
:102EA0000B4B1B68B3F1FF3F08D04FF0500383F387
:102EB0001188BFF36F8FBFF34F8FFEE74FF05003C2
:102EC00083F31188BFF36F8FBFF34F8FFEE700BF0F
:102ED0000800002006480068006880F3088862B691
:102EE00061B6BFF34F8FBFF36F8F00DF00BF0000ED
:102EF00008ED00E04FF0807340F8043C21F0010140
:102F000040F8081C034B40F80C3C40F8202C40389B
:102F1000704700BFA12E0008000000000000000064
:102F2000074B19680868B0E8F00F80F30988BFF311
:102F30006F8F4FF0000080F311884EF00D0E704738
:102F4000480C00204FF0500383F31188BFF36F8FBC
:102F5000BFF34F8F0A4A136801331360012B0DD161
:102F6000084B1B6813F0FF0F08D04FF0500383F39A
:102F70001188BFF36F8FBFF34F8FFEE7704700BF1D
:102F80000800002004ED00E0094B1B6843B94FF036
:102F9000500383F31188BFF36F8FBFF34F8FFEE7AA
:102FA000013B034A13600BB983F31188704700BFDC
:102FB00008000020000000000000000000000000E9
:102FC000EFF30980BFF36F8F0D4B1A6820E9F00F04
:102FD00010602DE908404FF0500080F3118800F098
:102FE000B1FB4FF0000080F31188BDE8084019687C
:102FF0000868B0E8F00F80F30988BFF36F8F70475F
:10300000480C002008B54FF0500383F31188BFF33C
:103010006F8FBFF34F8F00F01DFA18B14FF0805241
:10302000024B1A60002383F3118808BD04ED00E011
:10303000064B1B68064AA2FB03239B09013B054A7A
:1030400013600722044B1A60704700BF0400002081
:10305000D34D621014E000E010E000E000B583B052
:103060001F4B1A78D2B20192FF221A701B78DBB282
:103070008DF803309DF8033003F05003194A1370A4
:103080000722194B1A6009E0174A1368013B1360C5
:103090009DF803305B00DBB28DF803309DF8033000
:1030A00013F0800FF0D1104A13681B0203F4E063A1
:1030B0001360019BDBB20A4A13700C4B1A6842F48E
:1030C00070021A601A6842F070421A60FFF7B0FF8F
:1030D0000022074B1A60FFF7FDFEFFF7E1FE00BF7D
:1030E00000E400E0400C0020440C002020ED00E053
:1030F000080000200A4B1B681B684BB901234BB921
:10310000074B1B68DB68DB685A68064B1A60704720
:103110000023F4E74FF0FF32024B1A60704700BF04
:103120004C0C0020240D002010B50446006BFFF766
:103130007FFE2046FFF77CFE10BD2DE9F04780465C
:103140009946089D099F0A9C266B02F18042013A2C
:1031500006EB820626F0070600230F2B07D8C85C73
:10316000E21882F83400CA5C0AB10133F5E70023A3
:1031700084F84330062D00D90625E56265644FF0DA
:10318000000AC4F848A0201D00F043FB04F1180019
:1031900000F03FFB2461C5F10705A5616462C4F836
:1031A0004CA084F850A04A4641463046FFF7A2FEA4
:1031B000206007B13C60BDE8F087000038B500240E
:1031C00007E004EB840293000E48184400F016FB5D
:1031D0000134062CF5D90C4D284600F00FFB0B4CA2
:1031E000204600F00BFB0A4800F008FB094800F0FD
:1031F00005FB094800F002FB084B1D60084B1C60F2
:1032000038BD00BF540C0020F80C00200C0D00202D
:103210002C0D0020580D0020440D00204C0C0020E7
:10322000500C002010B50446FFF78CFE204A1368AE
:10323000013313601F4B1B68002B31D01E4B1B68E2
:103240003BB91C4B1B68DA6AE36A9A4201D8194BF6
:103250001C601A4A136801331360E36A01229A4022
:103260001749086802430A6003EB83039A00211D93
:103270001448104400F0D0FAFFF786FE0E4B1B688E
:103280006BB10C4B1B68DA6AE36A9A4207D24FF0C3
:1032900080520D4B1A60BFF34F8FBFF36F8F10BD7D
:1032A000044B1C601368012BD3D1FFF787FFD0E7D5
:1032B000E00C0020480C0020400D0020F00C002005
:1032C000F40C0020540C002004ED00E070B504461E
:1032D0000E461D4B1D681D4B1868043000F0C2FAE5
:1032E00050B91A4B1B68DA6A012303FA02F2184933
:1032F0000B6823EA02030B60B4F1FF3F13D02C44A8
:10330000124B1B685C60A54216D8124B18680F4B15
:103310001968043100F08CFA0F4B1B689C4201D2F3
:103320000D4B1C6070BD002EE9D0084B19680431AC
:103330000A4800F071FA70BD094B1868034B196810
:10334000043100F075FA70BD6C0D0020480C0020AF
:10335000F40C00204C0C0020240D0020440D002013
:10336000500C00202DE9F04385B006460F46154667
:1033700098469000FFF7D8FC00B381465420FFF731
:10338000D3FC0446B0B1C0F83090CCB10023039315
:1033900002940D9B01930C9B009343462A463946A9
:1033A0003046FFF7CAFE2046FFF73CFF012005B07C
:1033B000BDE8F0834846FFF73BFDE6E70024E4E77D
:1033C0004FF0FF30F3E7000000B583B0174B0193D7
:1033D00000230093802216491648FFF7C3FF0128F7
:1033E00005D0B0F1FF3F17D003B05DF804FB4FF0FC
:1033F000500383F31188BFF36F8FBFF34F8F4FF0EC
:10340000FF320D4B1A6001220C4B1A6000220C4B4C
:103410001A60FFF723FEE7E74FF0500383F31188AC
:10342000BFF36F8FBFF34F8FFEE700BF200D00206B
:10343000FC3900081D370008240D0020400D002035
:103440006C0D0020024A136801331360704700BFFF
:10345000EC0C0020F8B53C4B1B68002B68D13B4BB3
:103460001D6801351D60C5B9394B1B681B6843B128
:103470004FF0500383F31188BFF36F8FBFF34F8F6B
:10348000FEE7334A1168334B186810601960324AFE
:10349000136801331360FFF72DFE304B1B689D420C
:1034A0003AD200242E4B1B68DB6A03EB83039A009D
:1034B0002C4B9B58012B40D901243EE00124244B86
:1034C0001B681B6853B3002353BB214B1B68DB688D
:1034D000DE6873689D4228D3371D384600F0C2F974
:1034E000B36A1BB106F1180000F0BCF9F36A0122BF
:1034F0009A401D49086802430A6003EB83039A005F
:1035000039461848104400F087F9F26A144B1B68DA
:10351000DB6A9A42D2D2D2E70024D0E70123D3E774
:103520004FF0FF320D4B1A60BCE70C4A1360B9E74D
:103530000E4A13680133136000240D4B1B6803B15E
:1035400001242046F8BD00BFEC0C00206C0D0020CB
:103550004C0C0020500C0020280D0020240D0020D1
:10356000480C0020540C0020F40C0020E80C002033
:10357000700D002038B5354B1B6843B94FF0500330
:1035800083F31188BFF36F8FBFF34F8FFEE7FFF711
:10359000D9FC2E4B1A68013A1A601B68002B50D1D7
:1035A0002B4B1B6823B90024FFF7EEFC204638BDE7
:1035B0000024284B1B681BB3264BDB68DC6804F136
:1035C000180000F04FF9251D284600F04BF9E36A7A
:1035D00001229A402049086802430A6003EB8303F2
:1035E0009A0029461D48104400F016F9E26A1C4B67
:1035F0001B68DB6A9A42DCD301221A4B1A60D8E7B7
:103600000CB1FFF777FD184B1C6874B9154B1B689C
:10361000CBB14FF08052154B1A60BFF34F8FBFF301
:103620006F8F0124C0E7013C07D0FFF713FF00288C
:10363000F9D001220B4B1A60F5E700220A4B1A6001
:10364000E4E70024B0E70024AEE700BFEC0C002064
:10365000E00C00202C0D0020F40C0020540C002065
:10366000480C0020700D0020E80C002004ED00E064
:1036700010B5A8B10446104B1B6843B14FF050037E
:1036800083F31188BFF36F8FBFF34F8FFEE7FFF710
:10369000D9FE00212046FFF719FEFFF76BFF00E07F
:1036A000002038B94FF08052044B1A60BFF34F8F9F
:1036B000BFF36F8F10BD00BFEC0C002004ED00E0E5
:1036C000134B1B6813B310B5FFF7BCFE114B1C68FE
:1036D000FFF750FF24B90E4B1B68002BF4D110BD2F
:1036E000FFF730FC0B4BDB68DC68201D00F0BAF8FC
:1036F000094A1368013B1360054A1368013B1360D4
:10370000FFF742FC2046FFF70FFDE4E7704700BFDC
:10371000E40C0020580D0020E00C002008B5FFF755
:10372000CFFF064B1B68012BF9D94FF08052044B99
:103730001A60BFF34F8FBFF36F8FF0E7540C002078
:1037400004ED00E0204B1B68C3B900221F4B1A6038
:103750001F4B1B68B3FA83F3DBB2C3F11F0303EB08
:1037600083018A001B498A5862B94FF0500383F3E2
:103770001188BFF36F8FBFF34F8FFEE70122134B0A
:103780001A60704710B413489A00D418A10001447D
:103790004C6864684C601A449100083108448442C3
:1037A0000AD003EB83039A000A4B13445B68DA6880
:1037B000094B1A6010BC7047606803EB83029100EC
:1037C000044A0A445060ECE7EC0C0020700D002025
:1037D000F40C0020540C0020480C0020054B1B6802
:1037E00023B1054B1B681BB90220704701207047AD
:1037F00000207047400D0020EC0C002000F1080371
:1038000043604FF0FF328260C360036100230360B6
:10381000704700230361704743684B609A688A6071
:103820009A685160996008610368013303607047CA
:1038300030B40D68B5F1FF3F02D000F1080202E09C
:10384000026904E01A4653681C68A542FAD253681C
:103850004B6099608A6051600861036801330360BE
:1038600030BC704703694268816891608268416832
:1038700051605A68904205D00022026118680138F0
:103880001860704782685A60F6E7842801D00330D8
:1038900070470020704708B5FFF796FD002008BD6F
:1038A000F0B585B00F46446805680669B0F90800B0
:1038B000FFF7EBFF03AB019300903B46B2B2294602
:1038C0002046FFF74FFD012802D1039805B0F0BD57
:1038D0000020FBE708B5034600B901231846FFF7AF
:1038E000C7FE002008BD08B5FFF778FF012801D00A
:1038F000FFF788FB08BD0000002103E00B4B5B587D
:10390000435004310A480B4B42189A42F6D30A4AF4
:1039100002E0002342F8043B084B9A42F9D3FFF738
:1039200081F9FCF7B7FCFCF7A5FD70470C3A0008DD
:10393000000000200C0000200C000020D41000200B
:10394000FEE70000F8B500BFF8BC08BC9E46704713
:0C395000F8B500BFF8BC08BC9E467047EC
:10395C00A4390008A10600080000000000000000C7
:10396C008000000002030405060708090A0B0C0D71
:10397C000E0F101001020000436F72652F5372631B
:10398C002F6D61696E2E6300436F72652F537263E6
:10399C002F6164632E63000064656661756C7454FA
:1039AC0061736B00436F72652F5372632F73706971
:1039BC002E630000436F72652F5372632F74696D11
:1039CC002E630000436F72652F5372632F75736102
:1039DC0072742E6300000000000000000000000064
:1039EC000102030406070809000000000102030499
:0839FC0049444C4500000000A5
:043A04005D02000857
:043A0800350200087B
:0C3A0C000100000000A24A04AAAAAAAA15
:04000005080038F9BE
:00000001FF
